:100000000C9412010C943A010C943A010C943A01AC
:100010000C943A010C943A010C943A010C943A0174
:100020000C943A010C943A010C94E40A0C94560B8B
:100030000C943A010C943A010C943A010C943A0154
:100040000C943A010C943A010C943A010C943A0144
:100050000C943A010C943A010C943A010C945A070E
:100060000C943A010C943A010C943A010C943A0124
:100070000C943A010C943A010C943A010C943A0114
:100080000C943A010C943A010C943A010C943A0104
:100090000C943A010C943A010C943A010C943A01F4
:1000A0000C943A010C943A010C943A01AC0FB20F43
:1000B000B80FC40FD00F251025102510DC0FE80F46
:1000C000F40F00100E10251017101B021E020D0257
:1000D000110217023F023F023F02220226022A02B9
:1000E000300234023F023A02D102D702DD02E302BB
:1000F000E902EF02F502300437043E0445044C04E3
:100100006304530463045A040000000200090F0052
:1001100000030401000C00000000000000000000CB
:1001200000000000000000070605040100080A0B9B
:100130000C0D0900000000240027002A002D0030CB
:100140000000000000250028002B002E00310000D8
:100150000000002300260029002C002F00040404C6
:10016000040403040502020202040302020202065E
:10017000060606060604040202020404040802013C
:1001800010408040102040804080080204018040E0
:100190002010020110801020404020080B000202B5
:1001A0000201000904000001020200000524001001
:1001B00001052401010104240206052406000107AB
:1001C00005810310004009040100020A0000000735
:1001D00005020240000007058302400000040309F5
:1001E0000441726475696E6F204C4C430041726427
:1001F00075696E6F204C656F6E6172646F001201DD
:10020000000200000040412336800001010203018A
:1002100012010002EF020140412336800001010279
:100220000301EC1211241FBECFEFDAE0DEBFCDBF19
:1002300011E0A0E0B1E0E0E1FEE202C005900D9225
:10024000A43EB107D9F723E0A4EEB1E001C01D92AE
:10025000A937B207E1F711E0C2E1D1E004C021976C
:10026000FE010E94F313C131D107C9F70E94050EA8
:100270000C9406170C9400008F929F92AF92BF923D
:10028000CF92DF92EF92FF920F931F93CF93DF9362
:100290005C016B018A0180910B01882309F45EC027
:1002A00080914602882309F459C08091440280FF5E
:1002B00005C08091E00082608093E000E8018AEF51
:1002C000F82E93E0E92E2FE3822E3AE3932E209727
:1002D00009F43DC08FB7F894E092E9009091E800EE
:1002E00095FF06C09091F200282D291B922F01C086
:1002F00090E08FBF91110AC0FA94FF2079F161E07C
:1003000070E080E090E00E941407E1CF292F30E0F8
:10031000C217D3070CF49C2F8FB7F894E092E90032
:100320002091E80025FF11C0292F30E0C21BD30B1C
:10033000F601915020F041914093F100FACFC20EA6
:10034000D31E9091E80095FF13C08FBFC0CF5D987A
:1003500084E6809345021016110644F081E090E097
:10036000F5019383828380E090E005C0C80103C05B
:100370009092E800EACFDF91CF911F910F91FF900B
:10038000EF90DF90CF90BF90AF909F908F900895A7
:10039000CF93DF931F92CDB7DEB76983DC01ED9178
:1003A000FC910280F381E02D41E050E0BE016F5FDF
:1003B0007F4F09950F90DF91CF91089583E080934F
:1003C000E9008091F200882319F08AE38093E80025
:1003D0000895FC018485958597FD0BC09FB7F8941F
:1003E00082E08093E9008091F2009FBF90E0019647
:1003F00008959FB7F89482E08093E9008091F2001D
:100400009FBF90E0089590E0FC013197EF30F10537
:10041000B0F5EB59FF4F0C94F313809180008F7768
:1004200003C0809180008F7D80938000089580912B
:100430008000877FF9CF84B58F7702C084B58F7D28
:1004400084BD0895809190008F7707C080919000BF
:100450008F7D03C080919000877F809390000895E6
:100460008091C0008F7703C08091C0008F7D809302
:10047000C00008958091C200877F8093C2000895D4
:10048000CF93DF93282F30E0F901E85FFE4F84918E
:10049000F901E458FE4FD491F901E35AFE4FC4919B
:1004A000CC2391F081110E940302EC2FF0E0EE0FBB
:1004B000FF1FE15BFE4FA591B491EC91ED2381E02C
:1004C00090E021F480E002C080E090E0DF91CF91E5
:1004D0000895823108F08251E82FF0E0E95DFE4F87
:1004E000E49180917B00E3FB222720F930E095E046
:1004F000220F331F9A95E1F78F7D282B20937B00E5
:10050000E770E064E0937C0080917A0080648093DF
:100510007A0080917A0086FDFCCF8091780020914E
:10052000790090E0922B08953FB7F89480913E02B5
:1005300090913F02A0914002B091410226B5A89B44
:1005400005C02F3F19F00196A11DB11D3FBFBA2F65
:10055000A92F982F8827820F911DA11DB11DBC01C5
:10056000CD0142E0660F771F881F991F4A95D1F78A
:100570000895CF93DF934770552766277727FA01B1
:100580003197EC01A881B981E730F10520F4EC58EE
:10059000FF4F0C94F3131496ED91FC91159761E0C5
:1005A00029C01496ED91FC91159765E023C014962F
:1005B000ED91FC91159764E01DC01496ED91FC91AE
:1005C000159766E017C01496ED91FC91159762E0BF
:1005D00011C01496ED91FC9115976AE00BC014962A
:1005E000ED91FC91159768E005C01496ED91FC9192
:1005F000159769E0DF91CF910994CF93DF93EC01D8
:10060000CB01BA0126E030E040E050E00E94CD1678
:10061000623071058105910559F18CF46115710500
:1006200081059105F1F06130710581059105C1F5F4
:10063000E881F9810480F581E02D65E02DC064300A
:1006400071058105910511F1D4F0653071058105C1
:10065000910531F5E881F9810480F581E02D66E0AE
:100660001BC0E881F9810480F581E02D64E014C0AD
:10067000E881F9810480F581E02D61E00DC0E88119
:10068000F9810480F581E02D63E006C0E881F981FD
:100690000480F581E02D62E0CE01DF91CF910994D5
:1006A000DF91CF9108954370552766277727DC01A6
:1006B000ED91FC910480F581E02D423051056105FA
:1006C000710571F0433051056105710559F04130F4
:1006D00051056105710511F065E005C066E003C0D4
:1006E0006AE001C069E00994CF93DF93EC01CB018C
:1006F000BA0123E030E040E050E00E94CD166130C6
:1007000071058105910581F06230710581059105C2
:1007100091F0672B682B692BC1F4E881F981048083
:10072000F581E02D64E00DC0E881F9810480F58158
:10073000E02D61E006C0E881F9810480F581E02DBB
:1007400062E0CE01DF91CF910994DF91CF910895BE
:100750004370552766277727DC01ED91FC910480D3
:10076000F581E02D423051056105710571F043308E
:1007700051056105710559F041305105610571055B
:1007800011F062E005C063E003C061E001C060E019
:1007900009940F931F93CF93DF93EC01E881F981C4
:1007A0000480F581E02D8C010D5B1F4FD8018C91E9
:1007B000811102C060E001C062E0CE010995E881CC
:1007C000F9810480F581E02DD8018C91811102C05E
:1007D00061E001C063E0CE010995EBA5FCA5E23024
:1007E000F10538F0EE0FFF1FEE0FFF1F3597319721
:1007F000F1F7E881F9810480F581E02DD8018C9131
:10080000811102C060E001C062E0CE01DF91CF91B2
:100810001F910F910994CF93DF93EC0120E030E01A
:10082000A9016B897C898D899E890E9422151816E1
:100830001CF4EFA5F8A902C0E9A9FAA9DF91CF91AC
:1008400009940F931F93DC011296EC910E2F10E088
:1008500009301105C0F5F801E558FF4F0C94F3136A
:10086000DC01ED91FC910084F185E02D29C0DC01D3
:10087000ED91FC910284F385E02D22C0DC01ED9125
:10088000FC910484F585E02D1BC0DC01ED91FC9109
:100890000684F785E02D14C0DC01ED91FC91008801
:1008A000F189E02D0DC0DC01ED91FC910288F38906
:1008B000E02D06C0DC01ED91FC910488F589E02D66
:1008C0001F910F9109941F910F9108952F923F92BC
:1008D0004F925F926F927F928F929F92AF92BF9250
:1008E000CF92DF92EF92FF920F931F93CF93DF93FC
:1008F00000D000D0CDB7DEB71C01FC018784908802
:10090000A188B28883859485A585B685881A990AB9
:10091000AA0ABB0A63897489858996899B01AC01FF
:100920000E94ED156B017C01F101638D748D858D45
:10093000968D9B01AC010E940E149B01AC01C70176
:10094000B6010E947A140E94EC1481149104A1044F
:10095000B104A1F462307105810591050CF07CC0F1
:10096000F10113A214A215A216A2138A148A158AE1
:10097000168A13AA14AA15AA16AA03C1F10103A97B
:1009800014A925A936A9ED5BFF4F181419041A0400
:100990001B04FCF410161106120613064CF468151D
:1009A00079058A059B054CF52081211155C025C08C
:1009B000011511052105310509F44EC068157905A9
:1009C0008A059B050CF048C08081882309F444C047
:1009D00037C01016110612061306F4F4002711276B
:1009E0009801081919092A093B096017710782073C
:1009F00093071CF42081222379F19B01AC01882705
:100A00009927DC01821B930BA40BB50BF10183AB7F
:100A100094ABA5ABB6AB20C001151105210531057E
:100A2000D9F0CC24DD247601C818D908EA08FB08DF
:100A30006C157D058E059F057CF4808181110CC0AD
:100A400030952095109501951F4F2F4F3F4FF10185
:100A500003AB14AB25AB36ABF101C3A8D4A8E5A812
:100A6000F6A881010D5B1F4FC114D104E104F1040C
:100A700091F487A990ADA1ADB2AD83AF94AFA5AF0E
:100A8000B6AF81E0181419041A041B040CF080E0BE
:100A9000F801808340C0F10183AC94ACA5ACB6AC46
:100AA000A5019401C501B4010E940E142B013C0163
:100AB000C701B6010E948E1520E030E040E850E406
:100AC0000E94ED1520E030E040E85FE30E940E1444
:100AD0009B01AC01C301B2010E947A149B01AC01DD
:100AE000C501B4010E940D144B015C01F101FF9698
:100AF00040805180628073809201A3010E94221580
:100B0000181614F042015301A401B501F10143AFDD
:100B100054AF65AF76AFFFEFCF1ADF0AEF0AFF0AD7
:100B2000F101C3AAD4AAE5AAF6AA23AD34AD45AD16
:100B300056ADCA01B90129833A834B835C830E9475
:100B4000F314F10163A374A385A396A329813A81C9
:100B50004B815C8160E074E284E799E40E947A143E
:100B6000F101638B748B858B968BF80120812111A9
:100B700008C0DC01CB01B058F101838B948BA58BAD
:100B8000B68B0F900F900F900F90DF91CF911F9128
:100B90000F91FF90EF90DF90CF90BF90AF909F901C
:100BA0008F907F906F905F904F903F902F9008951F
:100BB0000F931F93CF93DF931F92CDB7DEB78C01B6
:100BC000FC018485958597FF0EC0CE0101960E9499
:100BD000BA0A019719F4298130E002C02FEF3FEFE4
:100BE000F80135872487F801848595850F90DF917A
:100BF000CF911F910F910895CF93DF931F92CDB79F
:100C0000DEB7FC018485958597FD05C02FEF3FEF8A
:100C1000358724870BC0CE0101960E94BA0A01973E
:100C200019F4898190E002C08FEF9FEF0F90DF9160
:100C3000CF9108951F93CF93DF93282F30E0F901D0
:100C4000E85FFE4F8491F901E458FE4FD491F90119
:100C5000E35AFE4FC491CC23C9F0162F81110E9494
:100C60000302EC2FF0E0EE0FFF1FEF5BFE4FA591AC
:100C7000B4918FB7F894111105C09C91ED2FE095B8
:100C8000E92302C0EC91ED2BEC938FBFDF91CF9164
:100C90001F910895CF92DF92EF92FF920F931F93CF
:100CA000CF93DF93FC012281243041F0283031F0D2
:100CB000233031F0263021F012E003C014E001C0EF
:100CC00013E0EC012796E12CF12CC62ED12C01E08B
:100CD000C6010E2C02C0959587950A94E2F76881AB
:100CE00080FD6027FE01349780810E941A06FFEF85
:100CF000EF1AFF0A2196E11658F3DF91CF911F9169
:100D00000F91FF90EF90DF90CF900895CF93DF93F6
:100D100090E0FC01E458FE4F2491FC01E35AFE4FA1
:100D20008491882361F190E0880F991FFC01ED5CAC
:100D3000FE4FC591D491FC01EF5BFE4FA591B4919C
:100D4000611109C09FB7F894888120958223888318
:100D5000EC912E230BC0623061F49FB7F894388178
:100D6000822F809583238883EC912E2B2C939FBF19
:100D700006C08FB7F894E8812E2B28838FBFDF91B0
:100D8000CF910895CF93DF93FC012281222359F163
:100D9000EC0161E083810E94860661E08C810E9403
:100DA00086068A81843011F0883039F461E08D81C3
:100DB0000E94860661E08E8106C0833011F0863085
:100DC00021F461E08D810E9486068EA58F3F59F047
:100DD00061E00E9486066DA581E068278EA5DF91FF
:100DE000CF910C941A06DF91CF910895CF93DF93A2
:100DF000FC0122812223A9F0EC010190F081E02D79
:100E00000480F581E02D60E009958EA58F3F49F0C3
:100E100061E00E9486066DA58EA5DF91CF910C94AE
:100E20001A06DF91CF9108958F929F92AF92BF9251
:100E3000CF92DF92EF92FF926B017C010E949402AD
:100E40004B015C01C114D104E104F104F1F00E94F2
:100E50009402DC01CB0188199909AA09BB09883ED3
:100E60009340A105B10570F321E0C21AD108E10851
:100E7000F10888EE880E83E0981EA11CB11CC114F5
:100E8000D104E104F10419F7DDCFFF90EF90DF907A
:100E9000CF90BF90AF909F908F9008952FB7F89408
:100EA00060913A0270913B0280913C0290913D0228
:100EB0002FBF08951F920F920FB60F9211242F93F8
:100EC0003F938F939F93AF93BF9380913A029091FA
:100ED0003B02A0913C02B0913D023091390223E0E7
:100EE000230F2D3720F40196A11DB11D05C026E862
:100EF000230F0296A11DB11D2093390280933A025F
:100F000090933B02A0933C02B0933D0280913E023D
:100F100090913F02A0914002B09141020196A11D23
:100F2000B11D80933E0290933F02A0934002B09384
:100F30004102BF91AF919F918F913F912F910F905F
:100F40000FBE0F901F9018958F929F92AF92BF92F5
:100F5000CF92DF92FF920F931F93CF93DF93C0E165
:100F6000D1E084EEC82E81E0D82E9FE0A92EB12CCE
:100F7000F88060E08F2D0E941A061A81812F0E944E
:100F800069024C0161E08F2D0E941A06C50101978C
:100F9000F1F7812F0E9469028C0160E08F2D0E9481
:100FA0001A0608191909F601019311936F01249685
:100FB000F1E0C032DF07E1F6DF91CF911F910F9191
:100FC000FF90DF90CF90BF90AF909F908F9008954B
:100FD0004F925F926F927F928F929F92AF92BF9249
:100FE000CF92DF92EF92FF92CF93DF93EC016A01F1
:100FF0007B018B8C9C8CAD8CBE8C9A01AB01C501A6
:10100000B4010E948715882309F449C06BA97CA903
:101010008DA99EA90E948E152B013C01A701960166
:10102000C501B4010E947A149B01AC01C301B20155
:101030000E94ED150E94EC146BAB7CAB8DAB9EABAC
:10104000A701960160E070E080E090E40E947A14CD
:101050000E942D1526E53EE04DE25FE30E94ED156E
:1010600020E034E244E759E40E94ED156FAB78AF1D
:1010700089AF9AAFCB8EDC8EED8EFE8ECE01DF91E6
:10108000CF91FF90EF90DF90CF90BF90AF909F9067
:101090008F907F906F905F904F900C946604DF91DB
:1010A000CF91FF90EF90DF90CF90BF90AF909F9047
:1010B0008F907F906F905F904F900895CF92DF92C6
:1010C000EF92FF92CF93DF93EC010E9494026B01A9
:1010D0007C018FA198A5A9A5BAA5B701A601481BB7
:1010E000590B6A0B7B0B8BA19CA1ADA1BEA148172C
:1010F00059076A077B0730F1FE01ED5BFF4F208146
:101100008B859C85AD85BE85222321F00196A11D8E
:10111000B11D03C00197A109B1098B879C87AD87D9
:10112000BE87E881F9814B855C856D857E8506806B
:10113000F781E02DCE010995CFA2D8A6E9A6FAA69F
:1011400081E001C080E0DF91CF91FF90EF90DF90D0
:10115000CF9008958F929F92AF92BF92CF92DF92DD
:10116000EF92FF92CF93DF93EC018B889C88AD8840
:10117000BE8820E030E0A901C501B4010E948715B6
:10118000882309F44FC0A5019401C501B4010E9450
:10119000ED156B017C016B8D7C8D8D8D9E8D9B0182
:1011A000AC010E940E149B01AC01C701B6010E9464
:1011B0007A140E94EC146B017C012FEFC21AD20A40
:1011C000E20AF20A20E030E0A901C501B4010E9460
:1011D00022154B855C856D857E858F849888A988CE
:1011E000BA8818162CF44C0D5D1D6E1D7F1D04C0B1
:1011F0004C195D096E097F0984169506A606B70687
:1012000089F04F87588B698B7A8BCE01DF91CF9114
:10121000FF90EF90DF90CF90BF90AF909F908F9016
:101220000C946604DF91CF91FF90EF90DF90CF9008
:10123000BF90AF909F908F90089582E00E944002EF
:10124000892B39F483E00E944002892B11F480E05D
:1012500008958091EC01811106C06CED71E087E486
:1012600092E00E94F10D81E08093EC01089580915D
:10127000700381110DC082E080936C0384E0809341
:101280006D0310926F0310926E0381E080937003E0
:101290008CE693E0089540916A0350916B0320918E
:1012A00068033091690342175307B4F49091E80042
:1012B0009570E1F39091E80092FD19C08093F100E0
:1012C00080916A0390916B0301968F739927892B04
:1012D00019F48EEF8093E80080916A0390916B037C
:1012E000019690936B0380936A0381E0089580E0F8
:1012F0000895CF92DF92EF92FF920F931F93CF93B7
:10130000DF931F92CDB7DEB7182F062FE42E862F5E
:10131000880F8E5F99830E944B0983E00E944B09DE
:10132000F12EC12E9981D92E8C2D8F19801798F40A
:10133000F601E7FE02C0849101C080810E944B0942
:10134000182F80E00E944B098123FFEFCF1ADF0A9C
:101350008111EACF01C081E00F90DF91CF911F9101
:101360000F91FF90EF90DF90CF900895DF92EF9272
:10137000FF920F931F93CF93DF93D82E8A017B01A7
:10138000E40EF51EEB01CE15DF0571F0D7FE03C0AC
:10139000FE01849101C088810E944B092196811130
:1013A000F2CF8FEF9FEF01C0C801DF91CF911F9166
:1013B0000F91FF90EF90DF9008950F931F93CF93BD
:1013C000DF931F92CDB7DEB782E0898342E450E01D
:1013D0006BE971E080E80E94B6090E943709DC01E0
:1013E00012960D911C9113970115110569F0D80102
:1013F000ED91FC910280F381E02DBE016F5F7F4F84
:10140000C801099597FF07C089810F90DF91CF919F
:101410001F910F910895F80100851185E5CF615066
:1014200030F02091F100FC0120830196F8CF28983C
:1014300084E6809378030895CF92DF92EF92FF9233
:101440000F931F93CF93DF936C017A018B01C0E060
:10145000D0E0CE15DF0589F0D8016D918D01D60160
:10146000ED91FC910190F081E02DC6010995892B49
:1014700011F47E0102C02196ECCFC701DF91CF911C
:101480001F910F91FF90EF90DF90CF9008950E94F1
:1014900082158F929F92AF92BF92CF92DF92EF927E
:1014A000FF921F93CF93DF93EC01CF88D88CE98C08
:1014B000FA8C46015701B7FAB094B7F8B09420E01F
:1014C00030E040E251E4C501B4010E942215181633
:1014D0005CF020E030E040E251E4C701B6010E9438
:1014E000871587FD03C010C07501640120E030E05E
:1014F000A901C701B6010E94871581110BC01BA26B
:101500001CA21DA21EA226C0C12CD12C80E2E82E56
:1015100081E4F82EA701960160E074E284E799E483
:101520000E947A149F770E94F3146BA37CA38DA36F
:101530009EA35E0183E4A80EB11C11E020E030E020
:10154000A901C701B6010E94221518160CF010E07F
:10155000F5011083CB8ADC8AED8AFE8ADF91CF9178
:101560001F91FF90EF90DF90CF90BF90AF909F9032
:101570008F900895FC0180914602811103C08FEF86
:101580009FEF08959FB7F89482E08093E90020913F
:10159000F20030E01216130614F421E030E02115B9
:1015A000310559F0289884E6809378038091F10002
:1015B00080838091F200882319F09FBFC9010895AC
:1015C0008BE68093E800F9CF1F920F920FB60F922F
:1015D00011248F939F938091E1009091E100937F7C
:1015E0009093E10083FF0FC01092E90091E0909387
:1015F000EB001092EC0092E39093ED001092460203
:1016000098E09093F00082FF20C093E09093E9006F
:101610009091F200992319F09AE39093E800909149
:101620004502992339F090914502915090934502DB
:10163000992389F190917803992339F09091780357
:10164000915090937803992341F184FF10C08091C9
:10165000E2008E7E81608093E2008091E1008F7EC7
:101660008093E100809144028E7E806111C080FFF2
:1016700016C08091E2008E7E80618093E2008091AE
:10168000E1008E7E8093E100809144028E7E816035
:101690008093440204C05D9ACDCF289AD6CF9F9103
:1016A0008F910F900FBE0F901F9018951F920F9261
:1016B0000FB60F921124CF92DF92EF92FF920F9309
:1016C0001F932F933F934F935F936F937F938F93CA
:1016D0009F93AF93BF93EF93FF93CF93DF93CDB7D8
:1016E000DEB76C97DEBFCDBF1092E9008091E800B5
:1016F00083FFFAC168E0CE0145960E940F0A82EF8F
:101700008093E8008D8987FF05C09091E80090FFE5
:10171000FCCF03C09EEF9093E800982F907609F0DD
:10172000C6C09E892F89188D91110CC0803829F46C
:10173000809143028093F10002C01092F100109258
:10174000F10047C1422F50E0512B913051F48111EB
:1017500040C14130510509F03CC1809143028D7F69
:101760000BC0933061F4811134C14130510509F04F
:1017700030C1809143028260809343022AC1953038
:1017800041F48091E80080FFFCCF20682093E300C3
:1017900020C1963009F05FC0EB8CFC8C1092E90000
:1017A00010926B0310926A03123091F51092690344
:1017B000109268030E94DD0999E0BE016F5F7F4FC0
:1017C000DB01E92F1D92EA95E9F799831A8391E0ED
:1017D0009E8390EA98879AEF998720916A033091C7
:1017E0006B03275F3F4F3C832B838D831092E9006F
:1017F00010926B0310926A03F0926903E0926803FF
:1018000049E050E080E00E94B6090E94DD09E1C095
:10181000F0926903E09268030E943709DC01129696
:10182000ED90FC901397E114F10409F4C0C0D701C6
:10183000ED91FC910480F581E02DBE016B5E7F4F40
:10184000C7010995009719F00CF0C3C0C6C0F70195
:10185000E084F184E8CF973009F4BFC0983021F4D8
:1018600081E08093F100B5C0993009F0B2C0837077
:1018700009F0B3C0E1E2F1E081E021E036E39081DC
:10188000992361F08093E9002093EB00919190936C
:10189000EC003093ED008F5F873089F78EE78093FF
:1018A000EA001092EA008F898093460292C08B8DE5
:1018B0009C8D1092E90010926B0310926A03909332
:1018C000690380936803898D811156C08E899D8933
:1018D000913A59F4813209F080C047E050E064E069
:1018E00071E080E00E94B60974C0913209F075C0C1
:1018F000833289F4888D90E0982F88272F89822B56
:10190000A0E0B0E08093000190930101A093020158
:10191000B09303015EC0803269F48091E80082FFD9
:10192000FCCF67E084E091E00E940F0A8BEF809388
:10193000E80006C0823209F04CC08F8980930B0109
:1019400080914202882319F0EEEFFAE002C0E0E055
:10195000F8E08091040190910501A0910601B091F9
:101960000701803B9440A105B10509F088C0809132
:101970000B0180FFA0C083C00E943709DC011296D2
:101980000D911C9113970115110539F1D801ED91B5
:10199000FC910190F081E02DBE016B5E7F4FC8018C
:1019A0000995811116C0F80100851185ECCF113021
:1019B000C1F0133091F48F89882309F455C0823027
:1019C000E9F440E860E18DEE91E00E947909882316
:1019D00021F08EEF8093E80087C081E28093EB00D6
:1019E00083C08B8D9C8D089711F4109367038091B1
:1019F0006703811136C06EEF71E038C0813029F481
:101A000040E86BE081EE91E0E0CF833031F70E9457
:101A10003709DC011296ED90FC9013978E010F5F51
:101A20001F4F6801E114F10479F0D701ED91FC91A9
:101A30000680F781E02DB801C7010995080F111D37
:101A4000F701E084F184EECFD8011C92F6010190F9
:101A50000020E9F73197BF016C197D0940E0C6010C
:101A6000B4CF60E172E002C06DED71E06115710507
:101A700009F4B3CFFB01449150E080E833CF0FB6B7
:101A8000F894A8958091600088618093600010921E
:101A900060000FBEA895EE3F2AE0F20739F0809172
:101AA000FE0A9091FF0A9183808393CF1092FF0AE0
:101AB0001092FE0A8ECFEE3F8AE0F80731F0808167
:101AC00091819093FF0A8093FE0A87E797E79183BD
:101AD00080839BE088E10FB6F894A895809360001E
:101AE0000FBE9093600075CF6C960FB6F894DEBF72
:101AF0000FBECDBFDF91CF91FF91EF91BF91AF911D
:101B00009F918F917F916F915F914F913F912F9115
:101B10001F910F91FF90EF90DF90CF900F900FBE2D
:101B20000F901F9018956115710579F0FB010190D8
:101B30000020E9F73197AF01461B570BDC01ED910F
:101B4000FC910280F381E02D099480E090E00895FB
:101B50004F925F926F927F92EF92FF920F931F933B
:101B6000CF93DF93CDB7DEB7A1970FB6F894DEBF62
:101B70000FBECDBF7C01FA01CB0119A2223008F4BF
:101B80002AE08E010F5D1F4F422E512C612C712CCB
:101B9000BF01A30192010E94AB16F901CA010150D5
:101BA00011096A3014F4605D01C0695CD8016C935E
:101BB000232B242B252B61F7B801C7010E94930D1D
:101BC000A1960FB6F894DEBF0FBECDBFDF91CF91C7
:101BD0001F910F91FF90EF907F906F905F904F90CB
:101BE00008950F931F93CF93DF93EC010E94930D01
:101BF0008C0160E671E0CE010E94930D800F911F71
:101C0000DF91CF911F910F910895CF93DF93CDB7BF
:101C1000DEB728970FB6F894DEBF0FBECDBF78941D
:101C200084B5826084BD84B5816084BD85B58260E1
:101C300085BD85B5816085BD80916E008160809392
:101C40006E001092810080918100826080938100FB
:101C5000809181008160809381008091800081600B
:101C600080938000809191008260809391008091A8
:101C700091008160809391008091900081608093B9
:101C800090008091C10084608093C1008091C10068
:101C900082608093C1008091C10081608093C10007
:101CA0008091C30081608093C3008091C0008260F6
:101CB0008093C0008091C20081608093C2008091B7
:101CC0007A00846080937A0080917A0082608093A9
:101CD0007A0080917A00816080937A0080917A0006
:101CE000806880937A00109246021092430210920C
:101CF00044028091D70081608093D70080EA80936E
:101D0000D80089B5806189BD89B5826089BD09B473
:101D100000FEFDCF61E070E080E090E00E941407DB
:101D20008091D8008F7C80618093D8008091E00002
:101D3000807F8093E0008091E1008E7E8093E100BF
:101D40008DE08093E200559A209AEEEFFFE78591AF
:101D500094918B3F9C4D19F481E080934202109244
:101D6000630310926403109265031092660310924D
:101D7000210310922203109223031092240360ED9A
:101D800077E080E090E00E94140787E492E090936F
:101D9000620380936103FBE1EF2EF12C10910B01A4
:101DA0006AE070E080E090E00E94140711110BC01F
:101DB00031E0E31AF10839F064E670E080E090E089
:101DC0000E941407EBCFE0916103F09162030FEFE3
:101DD0001FEF158704870E944E07609321037093BD
:101DE0002203809323039093240361E571E08091A3
:101DF0006103909162030E94930D6AE070E080E0BD
:101E000090E00E941407FF24F394F092350310939E
:101E100054020093530264E670E080E090E00E9478
:101E2000140763E671E087E492E00E94F10D60E040
:101E300082E00E94860660E083E00E94860661E000
:101E40008DE00E94860685E090E0909307038093E2
:101E500006031092E202F092E302F092080340E0DF
:101E600050E068EC72E48BED92E00E94E80720E01D
:101E700030E040E251E46091EE027091EF02809117
:101E8000F0029091F1020E948715882321F08BEDDA
:101E900092E00E94490A85E090E09093C30280930B
:101EA000C20240E050E068EC72E487E992E00E94F0
:101EB000E80720E030E040E251E46091AA0270912E
:101EC000AB028091AC029091AD020E9487158823ED
:101ED00021F087E992E00E94490A61E084E00E94D3
:101EE000860661E085E00E94860661E086E00E9449
:101EF000860661E087E00E94860660E084E00E943A
:101F00001A0660E085E00E941A0660E086E00E9402
:101F10001A0660E087E00E941A066AE070E080E03E
:101F200090E00E94140766E771E087E492E00E9467
:101F3000F10D61E08DE00E948606E5E1F1E0E491BB
:101F40008E2F90E0FC013197EF30F10508F07DC055
:101F5000EA5AFF4F0C94F31384B5806884BD84E67D
:101F600087BD77C084B5806284BD84E688BD71C0BA
:101F70008091800080688093800084E690E0909358
:101F800089008093880065C0809180008062809382
:101F9000800084E690E090938B0080938A0059C083
:101FA0008091800088608093800084E690E0909328
:101FB0008D0080938C004DC080919000806880934C
:101FC000900084E690E0909399008093980041C03F
:101FD0008091900080628093900084E690E09093DE
:101FE0009B0080939A0035C0809190008860809318
:101FF000900084E690E090939D0080939C0029C01F
:102000008091C00080688093C0008091C0008F7B69
:102010008093C00084E68093CF001BC08091C000F5
:1020200080628093C00084E68093D00012C08091CB
:10203000C20088608093C2008091C2008B7F809331
:10204000C20084E68093D20004C060E08DE00E946C
:102050001A060E944E076B017C018FEF93E090936C
:102060001E0280931D021092160210921502909388
:10207000200280931F021092180210921702909370
:1020800022028093210210921A0210921902909358
:1020900024028093230210921C0210921B020E94C1
:1020A0004E07DC01CB018C199D09AE09BF09883BA5
:1020B0009B40A105B10550F50E94A40744EE51E0F4
:1020C000EDE1F2E065E172E0DA018D919D91AD0103
:1020D00020813181821793070CF49C012193319365
:1020E000DB012D913C91281739070CF49C01DB0191
:1020F0002D933D93BD01B2E0E532FB0729F76AE07D
:1021000070E080E090E00E941407C9CF61E08DE0AC
:102110000E94860660E08DE00E941A066DE871E07C
:1021200087E492E00E94F10D68EE73E080E090E0B9
:102130000E94140761EA71E087E492E00E94F10DC9
:10214000E4EF4E2E55245394612C712C0E944E07BF
:10215000672B682B692B41F40E944E076230710592
:102160008105910508F404C10E944E076093350271
:1021700070933602809337029093380200913102B7
:1021800010913202209133023091340260177107AE
:102190008207930740F46093310270933202809378
:1021A0003302909334020091310210913202209157
:1021B0003302309134026B017C01C01AD10AE20A69
:1021C000F30A970186010A3F11052105310508F43C
:1021D000CFC06093310270933202809333029093A8
:1021E000340240922D0350922E0360922F0370927E
:1021F0003003109231031092320310923303109285
:1022000034038091250390912603A0912703B09178
:1022100028038093290390932A03A0932B03B09360
:102220002C030E944E07609325037093260380932E
:102230002703909328030E944E0760932103709315
:10224000220380932303909324030E944E076B0183
:102250007C0163EB71E080916103909162030E94C5
:10226000930D2AE041E050E060E070E0809161036E
:10227000909162030E94A80D6AEB71E08091610366
:10228000909162030E94930D2AE0B701A60180910C
:102290006103909162030E94A80D6CEB71E0809144
:1022A0006103909162030E94930D809125039091A8
:1022B0002603A0912703B0912803B701A601481B6C
:1022C000590B6A0B7B0B2AE08091610390916203AA
:1022D0000E94A80D6CEB71E0809161039091620304
:1022E0000E94930D4091250350912603609127038E
:1022F000709128038091290390912A03A0912B03C8
:10230000B0912C03481B590B6A0B7B0B2AE0809180
:102310006103909162030E94A80D6EEB71E08091C1
:102320006103909162030E94930D0E944E07AB01DE
:10233000BC012AE080916103909162030E94A80D84
:1023400060EC71E080916103909162030E94F10D55
:1023500065E070E080E090E00E9414070E944E0764
:10236000609325037093260380932703909328039B
:102370000E94A4072091270230912802C90165E03C
:1023800070E00E94DF1340912502509126024530F3
:10239000510534F44F5F5F4F50932602409325025E
:1023A0002F5F3F4F2530310529F0309328022093CD
:1023B000270204C0109228021092270220902502C2
:1023C0003090260209E212E05DE1C52E52E0D52EE2
:1023D00024EE31E03A83298365E1E62E62E0F62EB1
:1023E000AC01440F551F5E834D8318861F82D801B0
:1023F0001D921C92E981FA8181919191FA83E9837E
:10240000D6012D913C914C01281739070CF4490154
:10241000F60191828082D701ED91FC91E817F907CE
:102420000CF4FC01D701ED93FC93092C000CAA08D5
:10243000BB082D813E814F815885240F351FD9015E
:10244000A351BE4FBC83AB83092E000CAA0BBB0B60
:102450009C01AD01281939094A095B09AFEFB0E0C9
:102460000E94EC169F01FF0F440B550B28193909E8
:102470004A095B090E94CD16EB81FC8131832083E0
:102480002F3F310519F014F02FEF30E037FF02C075
:1024900020E030E0AB81BC812D933C9320E030E024
:1024A000F80180819181221533059CF4F901EE0F2A
:1024B000FF1F4F815885E40FF51FE351FE4F408108
:1024C0005181840F951FD8018D939C932F5F3F4FAF
:1024D000E7CFB1010E94DF13D8016D937D938D0189
:1024E000B2E0CB0ED11CE2E0EE0EF11C2F8138855C
:1024F000265F3F4F38872F832832310509F077CF89
:102500000E941D09811157C08091EC01882339F187
:102510001092EC0167EC71E087E492E00E94930D69
:102520002AE043E050E060E070E087E492E00E943F
:10253000A80D68E871E087E492E00E94F10D68EB75
:102540007BE080E090E00E9414070E941D09811149
:1025500006C064ED71E087E492E00E94F10D809185
:102560002F0290913002C39774F5809129029091C7
:102570002A02C39744F58091FE029091FF02A09138
:102580000003B0910103892B8A2B8B2B21F08BED5B
:1025900092E00E945E088091BA029091BB02A091E5
:1025A000BC02B091BD02892B8A2B8B2B21F087E9CD
:1025B00092E00E945E0840E050E0452B09F4C6CD51
:1025C0000E940000C3CD8BED92E00E94AA0887E92B
:1025D00092E00E94AA08EFCF8F929F92AF92BF9293
:1025E000CF92DF92EF92FF920F931F93CF93DF93DF
:1025F000E7E4F2E01382128288EE93E0A0E0B0E01C
:1026000084839583A683B7838BE291E09183808353
:102610008FEF9FEF95878487EBEDF2E00BE311E0FE
:1026200011830083882483948282138614861586FE
:1026300016861786108A118A128A138A148A158AB6
:10264000168AC12CD12C80E8E82E8FE3F82EC78A99
:10265000D08EE18EF28E138E148E158E168EC78E4E
:10266000D0A2E1A2F2A213A214A215A216A2C1E066
:10267000D0E0D4A7C3A799249A9496A617A210A62F
:1026800011A612A689E0838388E0848394E0A92EB2
:10269000A58225E0B22EB68213AA14AA15AA16AAFC
:1026A00017AA10AE11AE12AE13AE14AE15AE16AE22
:1026B000C0921A03D0921B03E0921C03F0921D03F8
:1026C00010921E031782108611861286CF010E9477
:1026D000C206B701A6018BED92E00E94E807E7E988
:1026E000F2E0118300838282138614861586168693
:1026F0001786108A118A128A138A148A158A168AF2
:10270000C78AD08EE18EF28E138E148E158E168EA1
:10271000C78ED0A2E1A2F2A213A214A215A216A201
:10272000D4A7C3A796A617A210A611A612A68BE03F
:1027300083838AE08483A582B68213AA14AA15AA89
:1027400016AA17AA10AE11AE12AE13AE14AE15AE85
:1027500016AEC092D602D092D702E092D802F09282
:10276000D9021092DA021782108611861286CF01E2
:102770000E94C206B701A60187E992E00E94E8071D
:10278000EFE1F3E016821782108611861286138617
:102790001486158616861786108A118A128A138A5D
:1027A000148A158ADF91CF911F910F91FF90EF90BE
:1027B000DF90CF90BF90AF909F908F90089597FB40
:1027C000072E16F4009407D077FD09D00E94F91364
:1027D00007FC05D03EF4909581959F4F0895709524
:1027E00061957F4F0895EE0FFF1F0590F491E02D46
:1027F0000994AA1BBB1B51E107C0AA1FBB1FA61748
:10280000B70710F0A61BB70B881F991F5A95A9F799
:1028100080959095BC01CD0108955058BB27AA27FB
:102820000E9425140C9471160E94631638F00E94C1
:102830006A1620F039F49F3F19F426F40C946016C0
:102840000EF4E095E7FB0C945A16E92F0E948216CD
:1028500058F3BA17620773078407950720F079F4D5
:10286000A6F50C94A4160EF4E0950B2EBA2FA02D0D
:102870000B01B90190010C01CA01A0011124FF272D
:10288000591B99F0593F50F4503E68F11A16F04028
:10289000A22F232F342F4427585FF3CF4695379527
:1028A0002795A795F0405395C9F77EF41F16BA0BEC
:1028B000620B730B840BBAF09150A1F0FF0FBB1F9A
:1028C000661F771F881FC2F70EC0BA0F621F731FE3
:1028D000841F48F4879577956795B795F7959E3F40
:1028E00008F0B0CF9395880F08F09927EE0F9795D1
:1028F000879508950E948E140C9471160E946A1692
:1029000058F00E94631640F029F45F3F29F00C94C0
:102910005A1651110C94A5160C9460160E9482163A
:1029200068F39923B1F3552391F3951B550BBB27FE
:10293000AA2762177307840738F09F5F5F4F220F43
:10294000331F441FAA1FA9F335D00E2E3AF0E0E83A
:1029500032D091505040E695001CCAF72BD0FE2F84
:1029600029D0660F771F881FBB1F26173707480718
:10297000AB07B0E809F0BB0B802DBF01FF279358D0
:102980005F4F3AF09E3F510578F00C945A160C9424
:10299000A5165F3FE4F3983ED4F386957795679547
:1029A000B795F7959F5FC9F7880F911D9695879505
:1029B00097F90895E1E0660F771F881FBB1F621724
:1029C00073078407BA0720F0621B730B840BBA0BE2
:1029D000EE1F88F7E09508950E94F3146894B111F2
:1029E0000C94A51608950E948A1688F09F5798F0B7
:1029F000B92F9927B751B0F0E1F0660F771F881F04
:102A0000991F1AF0BA95C9F714C0B13091F00E941D
:102A1000A416B1E008950C94A416672F782F882788
:102A2000B85F39F0B93FCCF3869577956795B39544
:102A3000D9F73EF490958095709561957F4F8F4FB3
:102A40009F4F08950E94C91508F48FEF089519F457
:102A500016F40C9460160C946D150E948A16B8F347
:102A60009923C9F3B6F39F57550B87FF0E947B1537
:102A70000024A0E640EA900180585695979528F4E6
:102A8000805C660F771F881F20F0261737074807DE
:102A900030F4621B730B840B202931294A2BA69535
:102AA00017940794202531254A2758F7660F771F7A
:102AB000881F20F026173707480730F4620B730B86
:102AC000840B200D311D411DA09581F7B901842F84
:102AD0009158880F9695879508959F3F31F09150B2
:102AE00020F4879577956795B795880F911D9695F2
:102AF000879597F9089591505040660F771F881F6A
:102B0000D2F7089581E090E0F8940C9406170E94A3
:102B1000C91508F481E00895E89409C097FB3EF4D4
:102B200090958095709561957F4F8F4F9F4F99231A
:102B3000A9F0F92F96E9BB279395F6958795779598
:102B40006795B795F111F8CFFAF4BB0F11F460FF58
:102B50001BC06F5F7F4F8F4F9F4F16C0882311F0B0
:102B600096E911C0772321F09EE8872F762F05C0C4
:102B7000662371F096E8862F70E060E02AF09A955F
:102B8000660F771F881FDAF7880F9695879597F954
:102B90000895990F0008550FAA0BE0E8FEEF1616EE
:102BA0001706E807F907C0F012161306E407F50741
:102BB00098F0621B730B840B950B39F40A2661F0B5
:102BC000232B242B252B21F408950A2609F4A14058
:102BD000A6958FEF811D811D08950E9400160C940B
:102BE00071160E94631638F00E946A1620F0952331
:102BF00011F00C945A160C94601611240C94A5161E
:102C00000E94821670F3959FC1F3950F50E0551FF7
:102C1000629FF001729FBB27F00DB11D639FAA2731
:102C2000F00DB11DAA1F649F6627B00DA11D661F80
:102C3000829F2227B00DA11D621F739FB00DA11DA1
:102C4000621F839FA00D611D221F749F3327A00D5B
:102C5000611D231F849F600D211D822F762F6A2FF7
:102C600011249F5750409AF0F1F088234AF0EE0F5C
:102C7000FF1FBB1F661F771F881F91505040A9F789
:102C80009E3F510580F00C945A160C94A5165F3F98
:102C9000E4F3983ED4F3869577956795B795F795C5
:102CA000E7959F5FC1F7FE2B880F911D969587953D
:102CB00097F9089597F99F6780E870E060E00895BC
:102CC0009FEF80EC089500240A9416161706180644
:102CD0000906089500240A94121613061406050620
:102CE0000895092E0394000C11F4882352F0BB0FB1
:102CF00040F4BF2B11F460FF04C06F5F7F4F8F4F14
:102D00009F4F089557FD9058440F551F59F05F3F4E
:102D100071F04795880F97FB991F61F09F3F79F0FD
:102D200087950895121613061406551FF2CF46957F
:102D3000F1DF08C0161617061806991FF1CF869501
:102D40007105610508940895E894BB2766277727E5
:102D5000CB0197F90895A1E21A2EAA1BBB1BFD0116
:102D60000DC0AA1FBB1FEE1FFF1FA217B307E4076A
:102D7000F50720F0A21BB30BE40BF50B661F771FC2
:102D8000881F991F1A9469F76095709580959095A2
:102D90009B01AC01BD01CF010895052E97FB1EF4E8
:102DA00000940E94E41657FD07D00E94AB1607FC62
:102DB00003D04EF40C94E41650954095309521952F
:102DC0003F4F4F4F5F4F0895909580957095619557
:102DD0007F4F8F4F9F4F08950E94F716A59F900D2C
:102DE000B49F900DA49F800D911D11240895A29F62
:102DF000B001B39FC001A39F700D811D1124911DCF
:102E0000B29F700D811D1124911D0895F894FFCF7C
:102E1000FFFFFFFF00E100000000000001000000D4
:102E2000040013000600150005001400070012003E
:102E300000C1808100000000000000C8013C01E9E1
:102E400001FC05D805DE0100000000F606C2064AB6
:102E50000621040B04C903A80374035303FD02B93C
:102E600002564D4450565F317C315F564D445056AA
:102E70000D0A00736574757028292073746172746B
:102E800065642E2E2E0043616C6962726174696EF6
:102E9000672073656E736F72732E2E2E0053656EEE
:102EA000736F72732063616C69627261746564210F
:102EB00000736574757028292066696E697368658A
:102EC000642100564D4450455F003A323A007C0080
:102ED0005F564D44504500526573756D696E6720AD
:102EE000696E2000526573756D65210050617573C0
:042EF0006521000058
:00000001FF
