:100000000C9403010C942B010C942B010C942B01E8
:100010000C942B010C942B010C942B010C942B01B0
:100020000C942B010C942B010C94BE0F0C94B40B6C
:100030000C942B010C942B010C942B010C942B0190
:100040000C942B010C942B010C942B010C942B0180
:100050000C942B010C942B010C942B010C94D905BE
:100060000C942B010C942B010C942B010C942B0160
:100070000C942B010C942B010C942B010C942B0150
:100080000C942B010C942B010C942B010C942B0140
:100090000C942B010C942B010C942B010C942B0130
:1000A0000C942B010C942B010C942B014E02510249
:1000B000400244024A02720272027202550259025E
:1000C0005D026302670272026D02D902DF02E5027D
:1000D000EB02F102F702FD0238043F0446044D042E
:1000E00054046B045B046B046204070605040100FE
:1000F000080A0B0C0D0900000000240027002A004C
:100100002D00300000000000250028002B002E00EC
:100110003100000000002300260029002C002F00E1
:10012000040404040403040502020202040302029C
:10013000020206060606060604040202020404047D
:1001400008020110408040102040804080080204D6
:10015000018040201002011080102040402000004B
:10016000000200090F0000030401000C0000000061
:1001700000000000000000000000000000080B006C
:10018000020202010009040000010202000005242D
:1001900000100105240101010424020605240600C3
:1001A000010705810310004009040100020A000054
:1001B000000705020240000007058302400000041A
:1001C00003090441726475696E6F204C4C43004111
:1001D000726475696E6F204C656F6E6172646F003A
:1001E000120100020000004041233680000101029C
:1001F000030112010002EF02014041233680000199
:1002000001020301521511241FBECFEFDAE0DEBF59
:10021000CDBF12E0A0E0B1E0E8E7F4E302C0059052
:100220000D92A035B107D9F728E0A0E5B2E001C0F2
:100230001D92A531B207E1F711E0C3E0D1E004C09F
:100240002197FE010E942717C230D107C9F70E94EB
:1002500030100C943A1A0C940000CF93DF931F9245
:10026000CDB7DEB76983DC01ED91FC910280F381AB
:10027000E02D41E050E0BE016F5F7F4F09950F9088
:10028000DF91CF91089583E08093E9008091F2009F
:10029000882319F08AE38093E8000895FC0184859F
:1002A000958597FD0BC09FB7F89482E08093E90095
:1002B0008091F2009FBF90E0019608959FB7F89457
:1002C00082E08093E9008091F2009FBF90E0089562
:1002D0008F929F92AF92BF92CF92DF92EF92FF9256
:1002E0000F931F93CF93DF935C016B018A01809181
:1002F0000D01882309F45EC08091B102882309F4BE
:1003000059C08091AE0280FF05C08091E0008260FC
:100310008093E000E8018AEFF82E93E0E92E2FE3C6
:10032000822E3AE3932E209709F43DC08FB7F894BC
:10033000E092E9009091E80095FF06C09091F200EC
:10034000282D291B922F01C090E08FBF91110AC068
:10035000FA94FF2079F161E070E080E090E00E9483
:100360009305E1CF292F30E0C217D3070CF49C2F5F
:100370008FB7F894E092E9002091E80025FF11C0C2
:10038000292F30E0C21BD30BF601915020F0419190
:100390004093F100FACFC20ED31E9091E80095FF72
:1003A00013C08FBFC0CF5D9884E68093AF02101654
:1003B000110644F081E090E0F5019383828380E0B0
:1003C00090E005C0C80103C09092E800EACFDF9139
:1003D000CF911F910F91FF90EF90DF90CF90BF9042
:1003E000AF909F908F9008950F931F93CF93DF93BB
:1003F0001F92CDB7DEB78C01FC018485958597FFF0
:100400000EC0CE0101960E94800F019719F4298138
:1004100030E002C02FEF3FEFF80135872487F80165
:10042000848595850F90DF91CF911F910F9108954D
:10043000CF93DF931F92CDB7DEB7FC0184859585FE
:1004400097FD05C02FEF3FEF358724870BC0CE0106
:1004500001960E94800F019719F4898190E002C0F3
:100460008FEF9FEF0F90DF91CF91089590E0FC0107
:100470003197EF30F105B0F5EA5AFF4F0C9427178A
:10048000809180008F7703C0809180008F7D809362
:100490008000089580918000877FF9CF84B58F77A1
:1004A00002C084B58F7D84BD0895809190008F77C0
:1004B00007C0809190008F7D03C080919000877F5E
:1004C0008093900008958091C0008F7703C0809141
:1004D000C0008F7D8093C00008958091C200877F07
:1004E0008093C2000895CF93DF93282F30E0F90165
:1004F000E25AFE4F8491F901E15CFE4FD491F9017B
:10050000E05EFE4FC491CC2391F081110E9436022F
:10051000EC2FF0E0EE0FFF1FEE5EFE4FA591B491C1
:10052000EC91ED2381E090E021F480E002C080E0D6
:1005300090E0DF91CF9108953FB7F8948091A302A6
:100540009091A402A091A502B091A60226B5A89B05
:1005500005C02F3F19F00196A11DB11D3FBFBA2F55
:10056000A92F982F8827820F911DA11DB11DBC01B5
:10057000CD0142E0660F771F881F991F4A95D1F77A
:100580000895CF93DF934770552766277727FA01A1
:100590003197EC01A881B981E730F10520F4EB59DE
:1005A000FF4F0C9427171496ED91FC91159761E07D
:1005B00029C01496ED91FC91159765E023C014961F
:1005C000ED91FC91159764E01DC01496ED91FC919E
:1005D000159766E017C01496ED91FC91159762E0AF
:1005E00011C01496ED91FC9115976AE00BC014961A
:1005F000ED91FC91159768E005C01496ED91FC9182
:10060000159769E0DF91CF910994CF93DF93EC01C7
:10061000CB01BA0126E030E040E050E00E94011A30
:10062000623071058105910559F18CF461157105F0
:1006300081059105F1F06130710581059105C1F5E4
:10064000E881F9810480F581E02D65E02DC06430FA
:1006500071058105910511F1D4F0653071058105B1
:10066000910531F5E881F9810480F581E02D66E09E
:100670001BC0E881F9810480F581E02D64E014C09D
:10068000E881F9810480F581E02D61E00DC0E88109
:10069000F9810480F581E02D63E006C0E881F981ED
:1006A0000480F581E02D62E0CE01DF91CF910994C5
:1006B000DF91CF9108954370552766277727DC0196
:1006C000ED91FC910480F581E02D423051056105EA
:1006D000710571F0433051056105710559F04130E4
:1006E00051056105710511F065E005C066E003C0C4
:1006F0006AE001C069E00994CF93DF93EC01CB017C
:10070000BA0123E030E040E050E00E94011A61307D
:1007100071058105910581F06230710581059105B2
:1007200091F0672B682B692BC1F4E881F981048073
:10073000F581E02D64E00DC0E881F9810480F58148
:10074000E02D61E006C0E881F9810480F581E02DAB
:1007500062E0CE01DF91CF910994DF91CF910895AE
:100760004370552766277727DC01ED91FC910480C3
:10077000F581E02D423051056105710571F043307E
:1007800051056105710559F041305105610571054B
:1007900011F062E005C063E003C061E001C060E009
:1007A00009940F931F93CF93DF93EC01E881F981B4
:1007B0000480F581E02D8C010D5B1F4FD8018C91D9
:1007C000811102C060E001C062E0CE010995E881BC
:1007D000F9810480F581E02DD8018C91811102C04E
:1007E00061E001C063E0CE010995EBA5FCA5E23014
:1007F000F10538F0EE0FFF1FEE0FFF1F3597319711
:10080000F1F7E881F9810480F581E02DD8018C9120
:10081000811102C060E001C062E0CE01DF91CF91A2
:100820001F910F910994CF93DF93EC0120E030E00A
:10083000A9016B897C898D899E890E94561818169A
:100840001CF4EFA5F8A902C0E9A9FAA9DF91CF919C
:1008500009940F931F93DC011296EC910E2F10E078
:1008600009301105C0F5F801E459FF4F0C94271722
:10087000DC01ED91FC910084F185E02D29C0DC01C3
:10088000ED91FC910284F385E02D22C0DC01ED9115
:10089000FC910484F585E02D1BC0DC01ED91FC91F9
:1008A0000684F785E02D14C0DC01ED91FC910088F1
:1008B000F189E02D0DC0DC01ED91FC910288F389F6
:1008C000E02D06C0DC01ED91FC910488F589E02D56
:1008D0001F910F9109941F910F9108951F93CF932A
:1008E000DF93282F30E0F901E25AFE4F8491F9019D
:1008F000E15CFE4FD491F901E05EFE4FC491CC2340
:10090000C9F0162F81110E943602EC2FF0E0EE0F95
:10091000FF1FEC5FFE4FA591B4918FB7F8941111B2
:1009200005C09C91ED2FE095E92302C0EC91ED2BE1
:10093000EC938FBFDF91CF911F910895CF92DF92FB
:10094000EF92FF920F931F93CF93DF93FC012281CD
:10095000243041F0283031F0233031F0263021F0BE
:1009600012E003C014E001C013E0EC012796E12C73
:10097000F12CC62ED12C01E0C6010E2C02C095959B
:1009800087950A94E2F7688180FD6027FE0134971D
:1009900080810E946E04FFEFEF1AFF0A2196E11694
:1009A00058F3DF91CF911F910F91FF90EF90DF905F
:1009B000CF900895CF93DF9390E0FC01E15CFE4F70
:1009C0002491FC01E05EFE4F8491882361F190E068
:1009D000880F991FFC01EA50FF4FC591D491FC018B
:1009E000EC5FFE4FA591B491611109C09FB7F894D7
:1009F0008881209582238883EC912E230BC062305E
:100A000061F49FB7F8943881822F8095832388837F
:100A1000EC912E2B2C939FBF06C08FB7F894E881E2
:100A20002E2B28838FBFDF91CF910895CF93DF9333
:100A3000FC012281222359F1EC0161E083810E94B3
:100A4000DA0461E08C810E94DA048A81843011F03A
:100A5000883039F461E08D810E94DA0461E08E8192
:100A600006C0833011F0863021F461E08D810E9450
:100A7000DA048EA58F3F59F061E00E94DA046DA57B
:100A800081E068278EA5DF91CF910C946E04DF91F1
:100A9000CF910895CF93DF93FC0122812223A9F007
:100AA000EC010190F081E02D0480F581E02D60E003
:100AB00009958EA58F3F49F061E00E94DA046DA58B
:100AC0008EA5DF91CF910C946E04DF91CF910895A4
:100AD000823108F08251E82FF0E0E651FF4FE491B7
:100AE00080917B00E3FB222720F930E095E0220F84
:100AF000331F9A95E1F78F7D282B20937B00E770B9
:100B0000E064E0937C0080917A00806480937A00B6
:100B100080917A0086FDFCCF809178002091790049
:100B200090E0922B08958F929F92AF92BF92CF92B6
:100B3000DF92EF92FF926B017C010E949C024B01BD
:100B40005C01C114D104E104F104F1F00E949C02A3
:100B5000DC01CB0188199909AA09BB09883E934099
:100B6000A105B10570F321E0C21AD108E108F1082E
:100B700088EE880E83E0981EA11CB11CC114D1041C
:100B8000E104F10419F7DDCFFF90EF90DF90CF90F3
:100B9000BF90AF909F908F9008952FB7F894609179
:100BA0009F027091A0028091A1029091A2022FBF9A
:100BB00008951F920F920FB60F9211242F933F9317
:100BC0008F939F93AF93BF9380919F029091A002C8
:100BD000A091A102B091A20230919E0223E0230FC6
:100BE0002D3720F40196A11DB11D05C026E8230F65
:100BF0000296A11DB11D20939E0280939F029093A7
:100C0000A002A093A102B093A2028091A3029091AE
:100C1000A402A091A502B091A6020196A11DB11D4A
:100C20008093A3029093A402A093A502B093A6027E
:100C3000BF91AF919F918F913F912F910F900FBED8
:100C40000F901F9018954F925F926F927F92AF9284
:100C5000BF92CF92DF92EF92FF920F931F93CF93A9
:100C6000DF93EC015A018B012B893C894D895E8908
:100C7000B501C8010E94BB18882309F451C0CF8870
:100C8000D88CE98CFA8C2601370177FA709477F8C2
:100C90007094A3019201B501C8010E94BB1887FDA1
:100CA0000BC0A7019601B501C8010E94561818167D
:100CB0002CF06501780102C07301620120E030E090
:100CC000A901C701B6010E94BB18811105C01BA272
:100CD0001CA21DA21EA220C0A701960160E074E222
:100CE00084E799E40E94AE179F770E9427186BA3B0
:100CF0007CA38DA39EA35E0183E4A80EB11C11E02A
:100D000020E030E0A901C701B6010E94561818166C
:100D10000CF010E0F5011083CB8ADC8AED8AFE8AA4
:100D2000DF91CF911F910F91FF90EF90DF90CF90C7
:100D3000BF90AF907F906F905F904F9008952F92EB
:100D40003F924F925F926F927F928F929F92AF925B
:100D5000BF92CF92DF92EF92FF920F931F93CF93A8
:100D6000DF9300D000D0CDB7DEB71C01FC01878433
:100D70009088A188B28883859485A585B685881AD0
:100D8000990AAA0ABB0A63897489858996899B0195
:100D9000AC010E9421196B017C01F101638D748DFE
:100DA000858D968D9B01AC010E9442179B01AC0181
:100DB000C701B6010E94AE170E9420188114910449
:100DC000A104B104A1F462307105810591050CF014
:100DD0007CC0F10113A214A215A216A2138A148AD0
:100DE000158A168A13AA14AA15AA16AA03C1F10114
:100DF00003A914A925A936A9ED5BFF4F18141904FE
:100E00001A041B04FCF410161106120613064CF407
:100E1000681579058A059B054CF52081211155C07F
:100E200025C0011511052105310509F44EC06815CD
:100E300079058A059B050CF048C08081882309F458
:100E400044C037C01016110612061306F4F400272A
:100E500011279801081919092A093B096017710718
:100E6000820793071CF42081222379F19B01AC01B6
:100E700088279927DC01821B930BA40BB50BF1018A
:100E800083AB94ABA5ABB6AB20C001151105210512
:100E90003105D9F0CC24DD247601C818D908EA0838
:100EA000FB086C157D058E059F057CF48081811102
:100EB0000CC030952095109501951F4F2F4F3F4F37
:100EC000F10103AB14AB25AB36ABF101C3A8D4A839
:100ED000E5A8F6A881010D5B1F4FC114D104E10400
:100EE000F10491F487A990ADA1ADB2AD83AF94AFF9
:100EF000A5AFB6AF81E0181419041A041B040CF056
:100F000080E0F801808340C0F10183AC94ACA5ACD3
:100F1000B6ACA5019401C501B4010E9442172B0192
:100F20003C01C701B6010E94C21820E030E040E851
:100F300050E40E94211920E030E040E85FE30E9485
:100F400042179B01AC01C301B2010E94AE179B0185
:100F5000AC01C501B4010E9441174B015C01F101D4
:100F6000FF9640805180628073809201A3010E94AD
:100F70005618181614F042015301A401B501F101ED
:100F800043AF54AF65AF76AFFFEFCF1ADF0AEF0A7A
:100F9000FF0AF101C3AAD4AAE5AAF6AA23AD34AD8B
:100FA00045AD56ADCA01B90129833A834B835C83B1
:100FB0000E942718F10163A374A385A396A3298136
:100FC0003A814B815C8160E074E284E799E40E949D
:100FD000AE17F101638B748B858B968BF8012081A2
:100FE000211108C0DC01CB01B058F101838B948B37
:100FF000A58BB68B0F900F900F900F90DF91CF9134
:101000001F910F91FF90EF90DF90CF90BF90AF9026
:101010009F908F907F906F905F904F903F902F9018
:1010200008954F925F926F927F928F929F92AF92AC
:10103000BF92CF92DF92EF92FF92CF93DF93EC01BA
:101040006A017B018B8C9C8CAD8CBE8C9A01AB01B0
:10105000C501B4010E94BB18882309F449C06BA9DB
:101060007CA98DA99EA90E94C2182B013C01A70151
:101070009601C501B4010E94AE179B01AC01C301EA
:10108000B2010E9421190E9420186BAB7CAB8DAB82
:101090009EABA701960160E070E080E090E40E94C2
:1010A000AE170E94611826E53EE04DE25FE30E9424
:1010B000211920E034E244E759E40E9421196FAB82
:1010C00078AF89AF9AAFCB8EDC8EED8EFE8ECE01DF
:1010D000DF91CF91FF90EF90DF90CF90BF90AF90D6
:1010E0009F908F907F906F905F904F900C949F0691
:1010F000DF91CF91FF90EF90DF90CF90BF90AF90B6
:101100009F908F907F906F905F904F900895CF92B7
:10111000EF920F93CF93DF93EC018DE391E09983EE
:1011200088836A831B861C861D861E861F86188AF6
:10113000198A1A8A1B8A1C8A1D8A1E8A80E090E0FE
:10114000A0E8BFE38F8B988FA98FBA8F1B8E1C8E60
:101150001D8E1E8E8F8F98A3A9A3BAA31BA21CA2BB
:101160001DA21EA261E070E07CA76BA73FEF3EA727
:101170001FA218A619A61AA64B832C830D83EE82F4
:101180001BAA1CAA1DAA1EAA1FAA18AE19AE1AAE27
:101190001BAE1CAE1DAE1EAEFE01FF96808391837A
:1011A000A283B383349610821F82188619861A860A
:1011B000CC2019F0CE010E94160540E050E060E816
:1011C0007FE3CE01DF91CF910F91EF90CF900C9400
:1011D00011088F929F92AF92BF92CF92EF920F938E
:1011E000CF93DF934C015B01EA01CC24C39425E04B
:1011F000E22E04E023E042E064E08D5D9C4F0E941B
:10120000870823E042E064E0C40189599C4F0E94B2
:101210008708EEE8F3E0D50112968C91129782834D
:1012200013964D915D916D917C91169743835483F4
:101230006583768317964D915D916D917C911A9798
:1012400047835087618772871B964D915D916D91A1
:101250007C911E9743875487658776871F964D91AB
:101260005D916D917C9152974787508B618B728B0A
:1012700053964D915D916D917C915697438B548B14
:10128000658B768B57964D915D916D917C915A97B8
:10129000478B508F618F728F5B964D915D916D91F1
:1012A0007C915E97438F548F658F768F5F964D91BB
:1012B0005D916D917C919297478F50A361A372A32A
:1012C00093964D915D916D917C91969743A354A314
:1012D00065A376A397964D915D916D917C919A97B8
:1012E00047A350A761A772A79B968D919C919C974D
:1012F00094A783A79D968C919D9785A79E968C9188
:101300009E9786A79F968D919C91D09790AB87A72B
:10131000D1968D919C91D29792AB81ABD3964D9102
:101320005D916D917C91D69743AB54AB65AB76AB39
:10133000D7964D915D916D917C91DA9747AB50AF07
:1013400061AF72AFDB964D915D916D917C91DE97AF
:1013500043AF54AF65AF76AFF501FF9680819181C1
:10136000A281B3818093CD039093CE03A093CF034A
:10137000B093D003349680818093D103EAE4F3E004
:101380008A8182838B819C81AD81BE81838394839A
:10139000A583B6838F819885A985BA858783908731
:1013A000A187B2878B859C85AD85BE858387948711
:1013B000A587B6878F859889A989BA898787908BF1
:1013C000A18BB28B8B899C89AD89BE89838B948BD1
:1013D000A58BB68B8F89988DA98DBA8D878B908FB1
:1013E000A18FB28F8B8D9C8DAD8DBE8D838F948F91
:1013F000A58FB68F8F8D98A1A9A1BAA1878F90A331
:10140000A1A3B2A38BA19CA1ADA1BEA183A394A3D0
:10141000A5A3B6A38FA198A5A9A5BAA587A390A7B0
:10142000A1A7B2A78BA59CA594A783A78DA585A7E7
:101430008EA586A78FA598A990AB87A789A99AA9F9
:1014400092AB81AB8BA99CA9ADA9BEA983AB94AB90
:10145000A5ABB6AB8FA998ADA9ADBAAD87AB90AF30
:10146000A1AFB2AF8BAD9CADADADBEAD83AF94AF10
:10147000A5AFB6AFFE01FF9680819181A281B381B5
:101480008093890390938A03A0938B03B0938C037A
:10149000CD5BDF4F888180938D03F401E55EFC4FC7
:1014A00080E090E0ADEEB3E480839183A283B383C8
:1014B000349680839183A283B383DF91CF910F9180
:1014C000EF90CF90BF90AF909F908F9008950F9323
:1014D0001F93FC010385148525853685400F511F18
:1014E000621F731F07851089218932890417150728
:1014F0002607370741F04787508B618B728B1F910E
:101500000F910C949F061F910F91089582E00E9405
:101510007302892B51F483E00E947302892B29F412
:1015200080910001811101C00895809150028111C4
:1015300006C068E472E082EB92E00E943E0E81E019
:101540008093500208954091AC025091AD022091D9
:10155000AA023091AB0242175307B4F49091E8000D
:101560009570E1F39091E80092FD19C08093F1002D
:101570008091AC029091AD0201968F739927892BCF
:1015800019F48EEF8093E8008091AC029091AD0247
:1015900001969093AD028093AC0281E0089580E0C3
:1015A0000895CF92DF92EF92FF920F931F93CF9304
:1015B000DF931F92CDB7DEB7182F062FE42E862FAC
:1015C000880F8E5F99830E94A30A83E00E94A30A7A
:1015D000F12EC12E9981D92E8C2D8F19801798F458
:1015E000F601E7FE02C0849101C080810E94A30A37
:1015F000182F80E00E94A30A8123FFEFCF1ADF0A91
:101600008111EACF01C081E00F90DF91CF911F914E
:101610000F91FF90EF90DF90CF900895DF92EF92BF
:10162000FF920F931F93CF93DF93D82E8A017B01F4
:10163000E40EF51EEB01CE15DF0571F0D7FE03C0F9
:10164000FE01849101C088810E94A30A2196811124
:10165000F2CF8FEF9FEF01C0C801DF91CF911F91B3
:101660000F91FF90EF90DF900895615030F020913E
:10167000F100FC0120830196F8CF289884E680933E
:10168000B0020895CF92DF92EF92FF920F931F93D3
:10169000CF93DF936C017A018B01C0E0D0E0CE15CF
:1016A000DF0589F0D8016D918D01D601ED91FC9196
:1016B0000190F081E02DC6010995892B11F47E017E
:1016C00002C02196ECCFC701DF91CF911F910F91FE
:1016D000FF90EF90DF90CF9008950F931F93CF93DB
:1016E000DF931F92CDB7DEB782E0898342E450E0FA
:1016F0006DE771E080E80E940E0B0E94AA0FDC01EA
:1017000012960D911C9113970115110569F0D801DE
:10171000ED91FC910280F381E02DBE016F5F7F4F60
:10172000C801099597FF07C089810F90DF91CF917C
:101730001F910F910895F80100851185E5CF61157E
:10174000710579F0FB0101900020E9F73197AF01B5
:10175000461B570BDC01ED91FC910280F381E02DDB
:10176000099480E090E008951F920F920FB60F92B7
:101770001124CF92DF92EF92FF920F931F932F933A
:101780003F934F935F936F937F938F939F93AF9309
:10179000BF93EF93FF93CF93DF93CDB7DEB76C97F3
:1017A000DEBFCDBF1092E9008091E80083FFFAC14F
:1017B00068E0CE0145960E94350B82EF8093E800E9
:1017C0008D8987FF05C09091E80090FFFCCF03C092
:1017D0009EEF9093E800982F907609F0C6C09E89FE
:1017E0002F89188D91110CC0803829F48091A8029E
:1017F0008093F10002C01092F1001092F10047C1F5
:10180000422F50E0512B913051F4811140C14130B1
:10181000510509F03CC18091A8028D7F0BC0933027
:1018200061F4811134C14130510509F030C180911A
:10183000A80282608093A8022AC1953041F4809169
:10184000E80080FFFCCF20682093E30020C19630A1
:1018500009F05FC0EB8CFC8C1092E9001092AD0295
:101860001092AC02123091F51092AB021092AA02C3
:101870000E946D0B99E0BE016F5F7F4FDB01E92F86
:101880001D92EA95E9F799831A8391E09E8390EA85
:1018900098879AEF99872091AC023091AD02275F2B
:1018A0003F4F3C832B838D831092E9001092AD0251
:1018B0001092AC02F092AB02E092AA0249E050E032
:1018C00080E00E940E0B0E946D0BE1C0F092AB0213
:1018D000E092AA020E94AA0FDC011296ED90FC9001
:1018E0001397E114F10409F4C0C0D701ED91FC9104
:1018F0000480F581E02DBE016B5E7F4FC701099525
:10190000009719F00CF0C3C0C6C0F701E084F18461
:10191000E8CF973009F4BFC0983021F481E080937C
:10192000F100B5C0993009F0B2C0837009F0B3C0BE
:10193000E3E1F1E081E021E036E39081992361F079
:101940008093E9002093EB0091919093EC00309309
:10195000ED008F5F873089F78EE78093EA00109261
:10196000EA008F898093B10292C08B8D9C8D10927A
:10197000E9001092AD021092AC029093AB028093FA
:10198000AA02898D811156C08E899D89913A59F498
:10199000813209F080C047E050E066E071E080E00D
:1019A0000E940E0B74C0913209F075C0833289F425
:1019B000888D90E0982F88272F89822BA0E0B0E0B7
:1019C0008093020190930301A0930401B093050159
:1019D0005EC0803269F48091E80082FFFCCF67E04E
:1019E00086E091E00E94350B8BEF8093E80006C003
:1019F000823209F04CC08F8980930D018091A7023B
:101A0000882319F0EEEFFAE002C0E0E0F8E0809100
:101A1000060190910701A0910801B0910901803B56
:101A20009440A105B10509F088C080910D0180FFA7
:101A3000A0C083C00E94AA0FDC0112960D911C91D8
:101A400013970115110539F1D801ED91FC91019021
:101A5000F081E02DBE016B5E7F4FC80109958111B9
:101A600016C0F80100851185ECCF1130C1F013309C
:101A700091F48F89882309F455C08230E9F440E855
:101A800060E18FEC91E00E94D10A882321F08EEF73
:101A90008093E80087C081E28093EB0083C08B8D48
:101AA0009C8D089711F41093A9028091A9028111CD
:101AB00036C060EE71E038C0813029F440E86BE058
:101AC00083EC91E0E0CF833031F70E94AA0FDC0174
:101AD0001296ED90FC9013978E010F5F1F4F6801D7
:101AE000E114F10479F0D701ED91FC910680F781C2
:101AF000E02DB801C7010995080F111DF701E08419
:101B0000F184EECFD8011C92F60101900020E9F794
:101B10003197BF016C197D0940E0C601B4CF62EF77
:101B200071E002C06FEB71E06115710509F4B3CF8C
:101B3000FB01449150E080E833CF0FB6F894A895AC
:101B400080916000886180936000109260000FBEF9
:101B5000A895EE3F2AE0F20739F08091FE0A9091B5
:101B6000FF0A9183808393CF1092FF0A1092FE0A9E
:101B70008ECFEE3F8AE0F80731F08081918190931B
:101B8000FF0A8093FE0A87E797E7918380839BE0B3
:101B900088E10FB6F894A895809360000FBE9093EB
:101BA000600075CF6C960FB6F894DEBF0FBECDBF48
:101BB000DF91CF91FF91EF91BF91AF919F918F9165
:101BC0007F916F915F914F913F912F911F910F9155
:101BD000FF90EF90DF90CF900F900FBE0F901F906F
:101BE00018954F925F926F927F92EF92FF920F93B0
:101BF0001F93CF93DF93CDB7DEB7A1970FB6F894BD
:101C0000DEBF0FBECDBF7C01FA01CB0119A222308D
:101C100008F42AE08E010F5D1F4F422E512C612CDB
:101C2000712CBF01A30192010E94DF19F901CA01C1
:101C3000015011096A3014F4605D01C0695CD8017B
:101C40006C93232B242B252B61F7B801C7010E942D
:101C50009F0BA1960FB6F894DEBF0FBECDBFDF91EC
:101C6000CF911F910F91FF90EF907F906F905F90B9
:101C70004F90089562E671E00C949F0B0F931F93B1
:101C8000CF93DF93EC010E949F0B8C01CE010E9449
:101C90003A0E800F911FDF91CF911F910F91089500
:101CA0000C949F0B0E94B618E091B202F091B3021F
:101CB0000190F081E02D682F82EB92E009940F9360
:101CC0001F93CF93DF9300D000D0CDB7DEB7AC0128
:101CD000990F660B770B77FF23C08DE249835A83F8
:101CE0006B837C830E94540E8C0149815A816B81E5
:101CF0007C8170956095509541955F4F6F4F7F4FF8
:101D00002AE082EB92E00E94F10D800F911F0F906C
:101D10000F900F900F90DF91CF911F910F91089529
:101D20002AE082EB92E00F900F900F900F90DF91DE
:101D3000CF911F910F910C94F10D8F929F92AF92C2
:101D4000BF92CF92DF92FF920F931F93CF93DF93B7
:101D5000C9E1D1E082EDC82E83E0D82E97E0A92E0C
:101D6000B12CF88060E08F2D0E946E041A81812FC3
:101D70000E9468054C0190938C0780938B0761E06B
:101D80008F2D0E946E04C5010197F1F7812F0E94EB
:101D900068058C0190938A078093890760E08F2DF6
:101DA0000E946E0408191909F601019311936F013D
:101DB0002496F1E0C932DF07A1F6DF91CF911F91A0
:101DC0000F91FF90DF90CF90BF90AF909F908F903A
:101DD0000895CF92DF92EF92FF92CF93DF93EC01C1
:101DE00020E030E44CE156E46F89788D898D9A8D3E
:101DF0000E94BB18882309F442C080E090E4ACE163
:101E0000B6E48F8B988FA98FBA8F80E090E0A8EC12
:101E1000B2E4FE01FF9680839183A283B3838BA9F2
:101E20009CA9ADA9BEA9181619061A061B063CF5F1
:101E30006B897C898D899E899B01AC010E94211947
:101E40006B017C016B8D7C8D8D8D9E8D9B01AC011A
:101E50000E9442179B01AC01C701B6010E94AE1758
:101E60000E9420186BAB7CAB8DAB9EABCE01DF919B
:101E7000CF91FF90EF90DF90CF900C949F06DF9171
:101E8000CF91FF90EF90DF90CF9008950F931F9325
:101E90000E94CD056093BA027093BB028093BC028E
:101EA0009093BD02E091B202F091B3020680F781F7
:101EB000E02D82EB92E0099597FF1FC00E94CD05AF
:101EC0000091BA021091BB022091BC023091BD0278
:101ED000DC01CB01801B910BA20BB30B0091B6026E
:101EE0001091B7022091B8023091B9028017910782
:101EF000A207B307B8F28FEF9FEF1F910F910895DC
:101F0000FC018091B102811103C08FEF9FEF089512
:101F10009FB7F89482E08093E9002091F20030E0CE
:101F20001216130614F421E030E02115310559F0A2
:101F3000289884E68093B0028091F100808380919C
:101F4000F200882319F09FBFC90108958BE68093A2
:101F5000E800F9CF8091810781110DC082E0809364
:101F60007D0784E080937E071092800710927F07A0
:101F700081E0809381078DE797E008951F920F928B
:101F80000FB60F9211248F939F938091E10090914F
:101F9000E100937F9093E10083FF0FC01092E9006E
:101FA00091E09093EB001092EC0092E39093ED009F
:101FB0001092B10298E09093F00082FF20C093E06D
:101FC0009093E9009091F200992319F09AE390938D
:101FD000E8009091AF02992339F09091AF029150AF
:101FE0009093AF02992389F19091B002992339F02F
:101FF0009091B00291509093B002992341F184FFE7
:1020000010C08091E2008E7E81608093E20080911A
:10201000E1008F7E8093E1008091AE028E7E806130
:1020200011C080FF16C08091E2008E7E8061809397
:10203000E2008091E1008E7E8093E1008091AE020B
:102040008E7E81608093AE0204C05D9ACDCF289AC7
:10205000D6CF9F918F910F900FBE0F901F90189524
:10206000CF93DF93CDB7DEB7EA970FB6F894DEBF14
:102070000FBECDBF789484B5826084BD84B5816085
:1020800084BD85B5826085BD85B5816085BD809143
:102090006E00816080936E001092810080918100BB
:1020A00082608093810080918100816080938100B3
:1020B0008091800081608093800080919100826097
:1020C0008093910080919100816080939100809134
:1020D00090008160809390008091C1008460809323
:1020E000C1008091C10082608093C1008091C100D5
:1020F00081608093C1008091C30081608093C300A0
:102100008091C00082608093C0008091C200816095
:102110008093C20080917A00846080937A008091DD
:102120007A00826080937A0080917A008160809347
:102130007A0080917A00806880937A001092B102D0
:102140001092A8021092AE028091D7008160809315
:10215000D70080EA8093D80089B5806189BD89B5B0
:10216000826089BD09B400FEFDCF61E070E080E0CF
:1021700090E00E9493058091D8008F7C80618093CD
:10218000D8008091E000807F8093E0008091E100A2
:102190008E7E8093E1008DE08093E200559A209A34
:1021A000EEEFFFE7859194918B3F9C4D19F481E010
:1021B0008093A7021092460310924703109248039F
:1021C0001092490310920403109205031092060323
:1021D0001092070360ED77E080E090E00E949305A5
:1021E00082EB92E090934503809344030BE110E06F
:1021F000F0900D016AE070E080E090E00E949305AD
:10220000F1100AC00150110939F064E670E080E075
:1022100090E00E949305ECCFE0914403F0914503D8
:102220000FEF1FEF158704870E94CD05609304030D
:1022300070930503809306039093070363E571E0B1
:1022400080914403909145030E94500E6AE070E033
:1022500080E090E00E94930581E080931803109342
:10226000BF020093BE0210910D016AE070E080E0B1
:1022700090E00E9493051123B1F361E070E080E0EB
:1022800090E00E94930565E671E082EB92E00E9487
:102290003E0E80910101882399F168E771E082EB9D
:1022A00092E00E94500E05E010E082EB92E00E9466
:1022B0004E0118161906BCF083E20E94540E64EF1A
:1022C00071E080E090E00E9493050150110969F7E8
:1022D00082EB92E00E943A0E69EA71E082EB92E0B2
:1022E0000E943E0E0DC082EB92E00E943A0E61E920
:1022F00071E082EB92E00E943E0E81E0809301014A
:1023000060E082E00E94DA0460E083E00E94DA0488
:1023100061E08DE00E94DA0461E08DE00E94DA0461
:1023200061E084E00E94DA0460E084E00E946E04D0
:1023300061E085E00E94DA0460E085E00E946E04BE
:1023400061E086E00E94DA0460E086E00E946E04AC
:1023500061E087E00E94DA0460E087E00E946E049A
:102360001092950381E0809396038093BB038EE8DF
:1023700093E00E94E90E8AE493E00E94E90E40E0B7
:1023800050E06AE774E48EE893E00E94110840E0B0
:1023900050E06AE774E48AE493E00E9411084091F7
:1023A000ED065091EE066091EF067091F0068EE812
:1023B00093E00E9423064091F1065091F20660914D
:1023C000F3067091F4068AE493E00E9423066AE023
:1023D00070E080E090E00E94930561E08DE00E9453
:1023E0006E0465EC71E082EB92E00E94500E85E095
:1023F00090E00E945F0E6DED71E082EB92E00E9432
:102400003E0E0E94CD056B017C018FEF93E090930F
:1024100083028093820210927B0210927A02909340
:1024200085028093840210927D0210927C02909328
:1024300087028093860210927F0210927E02909310
:1024400089028093880210928102109280020E9479
:10245000CD05DC01CB018C199D09AE09BF09883877
:102460009341A105B10550F50E949D0E42ED53E048
:10247000E2E8F2E06AE772E0DA018D919D91AD0148
:1024800020813181821793070CF49C0121933193B1
:10249000DB012D913C91281739070CF49C01DB01DD
:1024A0002D933D93BD01B2E0EA38FB0729F76AE0BE
:1024B00070E080E090E00E949305C9CFAAE7EA2E81
:1024C000A2E0FA2E02E812E0D8018D919D918D01D3
:1024D0000E945F0E6FE871E082EB92E00E94500E66
:1024E000F701819191917F010E945F0E6FED71E084
:1024F00082EB92E00E94500EF2E00A381F0721F7AB
:1025000082EB92E00E943A0E63EE71E082EB92E081
:102510000E943E0E60E08DE00E946E0468EE73E063
:1025200080E090E00E94930567EF71E082EB92E01B
:102530000E943E0EF4EF2F2E33243394412C512C65
:102540000E94CD05672B682B692B41F40E94CD05B5
:10255000623071058105910508F404C10E94CD0522
:1025600060939A0270939B0280939C0290939D02C9
:102570000091960210919702209198023091990251
:10258000601771078207930740F460939602709377
:10259000970280939802909399020091960210916D
:1025A000970220919802309199026B017C01C01A28
:1025B000D10AE20AF30A970186010A3F11052105B3
:1025C000310508F4CFC06093960270939702809310
:1025D0009802909399022092100330921103409236
:1025E00012035092130310921403109215031092C9
:1025F0001603109217038091080390910903A0918C
:102600000A03B0910B0380930C0390930D03A093E6
:102610000E03B0930F030E94CD05609308037093DF
:10262000090380930A0390930B030E94CD056093E6
:1026300004037093050380930603909307030E949D
:10264000CD056B017C0169E072E0809144039091BB
:1026500045030E94500E2AE041E050E060E070E047
:1026600080914403909145030E94F10D60E172E076
:1026700080914403909145030E94500E2AE0B701D7
:10268000A60180914403909145030E94F10D62E1FF
:1026900072E080914403909145030E94500E809116
:1026A000080390910903A0910A03B0910B03B701AD
:1026B000A601481B590B6A0B7B0B2AE0809144034F
:1026C000909145030E94F10D62E172E08091440314
:1026D000909145030E94500E4091080350910903C8
:1026E00060910A0370910B0380910C0390910D038C
:1026F000A0910E03B0910F03481B590B6A0B7B0B83
:102700002AE080914403909145030E94F10D64E119
:1027100072E080914403909145030E94500E0E9404
:10272000CD05AB01BC012AE08091440390914503A3
:102730000E94F10D66E172E080914403909145039F
:102740000E943E0E65E070E080E090E00E949305FC
:102750000E94CD05609308037093090380930A03D8
:1027600090930B036AE070E080E090E00E94930594
:1027700080910101882309F491C082EB92E00E94CC
:102780004E018C01181619060CF088C09E012F5FAF
:102790003F4F79016901A12CB12C0E94460F97FD92
:1027A0000CC08E33910549F0D6018D936D01BFEFBA
:1027B000AB1ABB0AA016B10681F70A191B0910163D
:1027C00011060CF06BC0E1E0F0E0EC0FFD1F0E0F06
:1027D0001F1F0E94460F97FF3CC06DE172E082EB25
:1027E00092E00E94500E1981812F0E94540E82EBBC
:1027F00092E00E943A0E103509F44AC094F4103267
:1028000009F04CC040E050E0BA018EE893E00E942D
:10281000670A40E050E0BA018AE493E00E94670A48
:102820003DC0133509F11735C9F541E550E060E0C9
:1028300070E08EE893E00E94670A41E550E060E0B6
:1028400070E08AE493E00E94670AB1E0B09351021D
:1028500025C08C33910509F2D7018D937D01A01716
:10286000B10709F0B6CFB9CF4FEA5FEF6FEF7FEF57
:102870008EE893E00E94670A4FEA5FEF6FEF7FEF09
:102880008AE493E00E94670AE1E0E093510206C007
:1028900080910001F1E08F27809300010E949D0E3E
:1028A00060919202709193028091940290919502AE
:1028B0008B019C010F5F1F4F2F4F3F4F00939202E0
:1028C00010939302209394023093950206301105E1
:1028D0002105310524F005E010E020E030E01EABDA
:1028E0000DAB5AE8652E52E0752E22ED33E03CAB7D
:1028F0002BAB25E030E040E050E00E94011A6B0174
:10290000CC0CDD1CDAAEC9AE7AE7A72E72E0B72E8A
:10291000E2E88E2EE2E09E2E00E010E0D3011D9250
:102920001C92EBA9FCA921913191FCABEBABD4013A
:102930008D919C916901821793070CF46C01F4014D
:10294000D182C082D501ED91FC91E217F3070CF41E
:10295000F901D501ED93FC930D2C000CEE08FF0856
:1029600089AD9AAD800F911FAC014E5A5D4F58AFA3
:102970004FABC901330FAA0BBB0B9C01AD012C1946
:102980003D094E095F09AFEFB0E00E94201A9F0198
:10299000FF0F440B550B2C193D094E095F090E948E
:1029A000011AAFA9B8AD2D933C932F3F310519F013
:1029B00014F02FEF30E037FF02C020E030E0EFA945
:1029C000F8AD3183208320E030E0F30180819181F4
:1029D000CDA8DEA82C153D058CF4F901EE0FFF1FE4
:1029E000E00FF11FEE5AFD4F40815181840F951F7A
:1029F000D3018D939C932F5F3F4FE7CFB6010E9489
:102A00001317CB01D3016D937D933D010E945F0E9F
:102A10006FED71E082EB92E00E94500EB2E08B0EFF
:102A2000911CE2E0AE0EB11C065F1F4F083211058B
:102A300009F074CF82EB92E00E943A0E0E94860A5F
:102A4000811126C080915002882311F1109250020A
:102A50006EE272E082EB92E00E94500E83E090E022
:102A60000E945F0E6BE372E082EB92E00E943E0EEA
:102A700068EB7BE080E090E00E9493050E94860A6C
:102A8000811106C060E472E082EB92E00E943E0E8B
:102A900080E0C82E80E0D82ECD2809F451CD0E94C8
:102AA00000004ECDCF92EF920F93CF93DF93CDB72F
:102AB000DEB7C858D1090FB6F894DEBF0FBECDBF40
:102AC000E2EBF2E01382128288EE93E0A0E0B0E045
:102AD00084839583A683B7838DE291E0918380837D
:102AE0008FEF9FEF95878487E2E0F3E016821782ED
:102AF000108611861286138614861586168617860A
:102B0000108A118A128A138A148A158ACC24C394D3
:102B100085E0E82E04E023E042E064E08EE893E004
:102B20000E94870823E042E064E08AE493E00E9488
:102B3000870828E049E061E081ED97E00E9487087E
:102B40002AE04BE061E08DE897E00E9487088DE382
:102B500091E027969FAF8EAF2797EDE8F7E02281AF
:102B600028962FAF289743815481658176812C96D2
:102B70004CAF5DAF6EAF7FAF2C97478150856185BD
:102B8000728560964CAF5DAF6EAF7FAF6097438547
:102B900054856585768564964CAF5DAF6EAF7FAF2B
:102BA0006497478550896189728968964CAF5DAF9B
:102BB0006EAF7FAF689743895489658976896C9633
:102BC0004CAF5DAF6EAF7FAF6C974789508D618D15
:102BD000728DA0964CAF5DAF6EAF7FAFA097438D67
:102BE000548D658D768DA4964CAF5DAF6EAF7FAF83
:102BF000A497478D50A161A172A1A8964CAF5DAF7B
:102C00006EAF7FAFA89743A154A165A176A1AC9602
:102C10004CAF5DAF6EAF7FAFAC9747A150A561A53C
:102C200072A5E0964CAF5DAF6EAF7FAFE09723A586
:102C300034A5E2963FAF2EAFE29725A5E3962FAFDE
:102C4000E39726A5E4962FAFE49727A530A9E6964B
:102C50003FAF2EAFE69721A932A9E8963FAF2EAF3E
:102C6000E89743A954A965A976A9EC964CAF5DAF46
:102C70006EAF7FAFEC9747A950AD61AD72ADC45850
:102C8000DF4F488359836A837B83CC57D04043AD61
:102C900054AD65AD76ADC058DF4F488359836A8324
:102CA0007B83C058D040E5E4F0E0EC0FFD1FFF96B9
:102CB0004091CC075091CD076091CE077091CF071E
:102CC00040835183628373832091D007C857DF4FBD
:102CD0002883C858D0409A838983E1EDF7E0828148
:102CE0008B8383819481A581B6818C839D83AE8300
:102CF000BF8387819085A185B28588879987AA87B8
:102D0000BB8783859485A585B6858C879D87AE878F
:102D1000BF8787859089A189B289888B998BAA8B77
:102D2000BB8B83899489A589B6898C8B9D8BAE8B4F
:102D3000BF8B8789908DA18DB28D888F998FAA8F37
:102D4000BB8F838D948DA58DB68D8C8F9D8FAE8F0F
:102D5000BF8F878D90A1A1A1B2A188A399A3AAA397
:102D6000BBA383A194A1A5A1B6A18CA39DA3AEA34F
:102D7000BFA387A190A5A1A5B2A588A799A7AAA737
:102D8000BBA783A594A59DA78CA785A58EA786A57F
:102D90008FA787A590A999AB88AB81A992A99BAB76
:102DA0008AAB83A994A9A5A9B6A98CAB9DABAEAB00
:102DB000BFAB87A990ADA1ADB2AD88AF99AFAAAFB7
:102DC000BBAF83AD94ADA5ADB6AD8CAF9DAFAEAF8F
:102DD000BFAF8091100890911108A0911208B09196
:102DE000130824968CAF9DAFAEAFBFAF24978091F0
:102DF000140825968FAF2597AE014B5B5F4FBE0140
:102E00006F5F7F4F82ED93E00E94E908C857DF4F64
:102E10000FB6F894DEBF0FBECDBFDF91CF910F91FB
:102E2000EF90CF90089597FB072E16F4009407D0EB
:102E300077FD09D00E942D1707FC05D03EF4909530
:102E400081959F4F0895709561957F4F0895EE0F7E
:102E5000FF1F0590F491E02D0994AA1BBB1B51E1C3
:102E600007C0AA1FBB1FA617B70710F0A61BB70BFA
:102E7000881F991F5A95A9F780959095BC01CD019F
:102E800008955058BB27AA270E9459170C94A519DA
:102E90000E94971938F00E949E1920F039F49F3F44
:102EA00019F426F40C9494190EF4E095E7FB0C94B5
:102EB0008E19E92F0E94B61958F3BA1762077307E3
:102EC0008407950720F079F4A6F50C94D8190EF430
:102ED000E0950B2EBA2FA02D0B01B90190010C012A
:102EE000CA01A0011124FF27591B99F0593F50F442
:102EF000503E68F11A16F040A22F232F342F44279A
:102F0000585FF3CF469537952795A795F040539591
:102F1000C9F77EF41F16BA0B620B730B840BBAF061
:102F20009150A1F0FF0FBB1F661F771F881FC2F7CC
:102F30000EC0BA0F621F731F841F48F487957795E0
:102F40006795B795F7959E3F08F0B0CF9395880F9A
:102F500008F09927EE0F9795879508950E94C2175C
:102F60000C94A5190E949E1958F00E94971940F0E0
:102F700029F45F3F29F00C948E1951110C94D91942
:102F80000C9494190E94B61968F39923B1F3552350
:102F900091F3951B550BBB27AA276217730784076C
:102FA00038F09F5F5F4F220F331F441FAA1FA9F302
:102FB00035D00E2E3AF0E0E832D091505040E695F0
:102FC000001CCAF72BD0FE2F29D0660F771F881F51
:102FD000BB1F261737074807AB07B0E809F0BB0B44
:102FE000802DBF01FF2793585F4F3AF09E3F510558
:102FF00078F00C948E190C94D9195F3FE4F3983E45
:10300000D4F3869577956795B795F7959F5FC9F740
:10301000880F911D9695879597F90895E1E0660FC1
:10302000771F881FBB1F621773078407BA0720F03A
:10303000621B730B840BBA0BEE1F88F7E0950895A3
:103040000E9427186894B1110C94D91908950E9410
:10305000BE1988F09F5798F0B92F9927B751B0F053
:10306000E1F0660F771F881F991F1AF0BA95C9F70C
:1030700014C0B13091F00E94D819B1E008950C94B9
:10308000D819672F782F8827B85F39F0B93FCCF36C
:10309000869577956795B395D9F73EF49095809589
:1030A000709561957F4F8F4F9F4F08950E94FD1837
:1030B00008F48FEF089519F416F40C9494190C94F5
:1030C000A1180E94BE19B8F39923C9F3B6F39F570C
:1030D000550B87FF0E94AF180024A0E640EA90013C
:1030E00080585695979528F4805C660F771F881F47
:1030F00020F026173707480730F4621B730B840B48
:10310000202931294A2BA69517940794202531258B
:103110004A2758F7660F771F881F20F026173707B2
:10312000480730F4620B730B840B200D311D411DD9
:10313000A09581F7B901842F9158880F96958795AE
:1031400008959F3F31F0915020F4879577956795CA
:10315000B795880F911D9695879597F90895915089
:103160005040660F771F881FD2F7089581E090E0E6
:10317000F8940C943A1A0E94FD1808F481E008951E
:10318000E89409C097FB3EF4909580957095619501
:103190007F4F8F4F9F4F9923A9F0F92F96E9BB27B7
:1031A0009395F695879577956795B795F111F8CF33
:1031B000FAF4BB0F11F460FF1BC06F5F7F4F8F4F9E
:1031C0009F4F16C0882311F096E911C0772321F094
:1031D0009EE8872F762F05C0662371F096E8862F2C
:1031E00070E060E02AF09A95660F771F881FDAF783
:1031F000880F9695879597F90895990F0008550FB0
:10320000AA0BE0E8FEEF16161706E807F907C0F06C
:1032100012161306E407F50798F0621B730B840B74
:10322000950B39F40A2661F0232B242B252B21F44E
:1032300008950A2609F4A140A6958FEF811D811DEE
:1032400008950E9434190C94A5190E94971938F01A
:103250000E949E1920F0952311F00C948E190C9465
:10326000941911240C94D9190E94B61970F3959FE2
:10327000C1F3950F50E0551F629FF001729FBB276D
:10328000F00DB11D639FAA27F00DB11DAA1F649F09
:103290006627B00DA11D661F829F2227B00DA11DBC
:1032A000621F739FB00DA11D621F839FA00D611D42
:1032B000221F749F3327A00D611D231F849F600D63
:1032C000211D822F762F6A2F11249F5750409AF08C
:1032D000F1F088234AF0EE0FFF1FBB1F661F771F18
:1032E000881F91505040A9F79E3F510580F00C94E3
:1032F0008E190C94D9195F3FE4F3983ED4F3869568
:1033000077956795B795F795E7959F5FC1F7FE2B82
:10331000880F911D9695879597F9089597F99F675E
:1033200080E870E060E008959FEF80EC089500244D
:103330000A941616170618060906089500240A941A
:1033400012161306140605060895092E0394000CA0
:1033500011F4882352F0BB0F40F4BF2B11F460FF2F
:1033600004C06F5F7F4F8F4F9F4F089557FD905858
:10337000440F551F59F05F3F71F04795880F97FB39
:10338000991F61F09F3F79F08795089512161306F3
:103390001406551FF2CF4695F1DF08C01616170622
:1033A0001806991FF1CF8695710561050894089557
:1033B000E894BB2766277727CB0197F90895A1E208
:1033C0001A2EAA1BBB1BFD010DC0AA1FBB1FEE1F9F
:1033D000FF1FA217B307E407F50720F0A21BB30BEA
:1033E000E40BF50B661F771F881F991F1A9469F766
:1033F00060957095809590959B01AC01BD01CF01C2
:103400000895052E97FB1EF400940E94181A57FD8C
:1034100007D00E94DF1907FC03D04EF40C94181A51
:1034200050954095309521953F4F4F4F5F4F0895F0
:1034300090958095709561957F4F8F4F9F4F089520
:103440000E942B1AA59F900DB49F900DA49F800DF4
:10345000911D11240895A29FB001B39FC001A39FA5
:10346000700D811D1124911DB29F700D811D1124BD
:08347000911D0895F894FFCFAF
:103478000101FFFFFFFF00E1000000000000010064
:10348800000000C180810000000400130006001540
:10349800000500140007001200000000002D01685C
:1034A800014E011802F4014301000000004A05160C
:1034B800059E0429041304D103B0037C035B0305B0
:1034C80003C102564D4450565F317C315F564D441E
:1034D80050560D0A0073657475702829207374613D
:1034E800727465642E2E2E00436F6E6E6563746968
:1034F8006E6720746F2053657269616C2E2E2E20C2
:1035080000436F6E6E656374696F6E2065737461D6
:10351800626C69736865642100436F756C646E271B
:103528007420636F6E6E65637420746F20536572C8
:1035380069616C2E0043616C6962726174696E67BF
:103548002073656E736F72732E2E2E200073002009
:103558007C200053656E736F72732063616C6962BF
:10356800726174656421007365747570282920661A
:10357800696E69736865642100564D4450455F0063
:103588003A323A007C005F564D445045004D6F7505
:1035980073652072656365697665643A20005265D3
:1035A80073756D696E6720696E2000732E2E2E006C
:1035B800526573756D652100506175736521000052
:00000001FF
