:100000000C940C010C9434010C9434010C943401C4
:100010000C9434010C9434010C9434010C9434018C
:100020000C9434010C9434010C9458070C94CA07B6
:100030000C9434010C9434010C9434010C9434016C
:100040000C9434010C9434010C9434010C9434015C
:100050000C9434010C9434010C9434010C94150567
:100060000C9434010C9434010C9434010C9434013C
:100070000C9434010C9434010C9434010C9434012C
:100080000C9434010C9434010C9434010C9434011C
:100090000C9434010C9434010C9434010C9434010C
:1000A0000C9434010C9434010C943401A40BAA0B6D
:1000B000B00BBC0BC80B1D0C1D0C1D0CD40BE00BA6
:1000C000EC0BF80B060C1D0C0F0CF702FA02E90200
:1000D000ED02F3021B031B031B03FE0202030603D4
:1000E0000C0310031B03160314061A06240632061B
:1000F00034063A064406520664066606000000020C
:1001000000090F0000030401000C000000000000C3
:100110000000000000000000000000080B000202C8
:100120000201000904000001020200000524001081
:10013000010524010101042402060524060001072B
:1001400005810310004009040100020A00000007B5
:100150000502024000000705830240000007060573
:10016000040100080A0B0C0D090000000024002700
:10017000002A002D00300000000000250028002B80
:10018000002E003100000000002300260029002C72
:10019000002F000404040404030405020202020404
:1001A0000302020202060606060606040402020212
:1001B0000404040802011040804010204080408068
:1001C00008020401804020100201108010204040ED
:1001D000200403090441726475696E6F204C4C431E
:1001E0000041726475696E6F204C656F6E61726458
:1001F0006F00120100020000004041233680000120
:100200000102030112010002EF0201404123368086
:10021000000101020301C40E11241FBECFEFDAE07A
:10022000DEBFCDBF11E0A0E0B1E0E8EAFFE102C02F
:1002300005900D92AA3CB107D9F723E0AAECB1E0F2
:1002400001C01D92AB30B207E1F711E0CCE0D1E084
:1002500004C02197FE010E94580FCB30D107C9F787
:100260000E94070A0C94D20F0C94000040912A02BD
:1002700050912B02209128023091290242175307F6
:10028000B4F49091E8009570E1F39091E80092FD4C
:1002900019C08093F10080912A0290912B0201965F
:1002A0008F739927892B19F48EEF8093E800809142
:1002B0002A0290912B02019690932B0280932A029E
:1002C00081E0089580E00895CF92DF92EF92FF924F
:1002D0000F931F93CF93DF936C017A018B01C0E0E2
:1002E000D0E0CE15DF0589F0D8016D918D01D601E2
:1002F000ED91FC910190F081E02DC6010995892BCB
:1003000011F47E0102C02196ECCFC701DF91CF919D
:100310001F910F91FF90EF90DF90CF90089561159E
:10032000710579F0FB0101900020E9F73197AF01E9
:10033000461B570BDC01ED91FC910280F381E02D0F
:10034000099480E090E008954F925F926F927F92BF
:10035000EF92FF920F931F93CF93DF93CDB7DEB74A
:10036000A1970FB6F894DEBF0FBECDBF7C01FA0196
:10037000CB0119A2223008F42AE08E010F5D1F4F35
:10038000422E512C612C712CBF01A30192010E94BD
:10039000770FF901CA01015011096A3014F4605D48
:1003A00001C0695CD8016C93232B242B252B61F7AA
:1003B000B801C7010E948F01A1960FB6F894DEBF65
:1003C0000FBECDBFDF91CF911F910F91FF90EF90A6
:1003D0007F906F905F904F900895CF92DF92EF9251
:1003E000FF920F931F93CF93DF931F92CDB7DEB78A
:1003F000182F062FE42E862F880F8E5F99830E9478
:10040000360183E00E943601F12EC12E9981D92E4A
:100410008C2D8F19801798F4F601E7FE02C08491A5
:1004200001C080810E943601182F80E00E943601B1
:100430008123FFEFCF1ADF0A8111EACF01C081E0EB
:100440000F90DF91CF911F910F91FF90EF90DF9070
:10045000CF900895DF92EF92FF920F931F93CF9367
:10046000DF93D82E8A017B01E40EF51EEB01CE1539
:10047000DF0571F0D7FE03C0FE01849101C08881C1
:100480000E94360121968111F2CF8FEF9FEF01C0BC
:10049000C801DF91CF911F910F91FF90EF90DF90F6
:1004A00008950F931F93CF93DF931F92CDB7DEB7BD
:1004B00082E0898342E450E06BE171E080E80E94D1
:1004C0002A020E944407DC0112960D911C91139799
:1004D0000115110569F0D801ED91FC910280F381BD
:1004E000E02DBE016F5F7F4FC801099597FF07C0E0
:1004F00089810F90DF91CF911F910F910895F8019D
:1005000000851185E5CF615030F02091F100FC01AC
:1005100020830196F8CF289884E6809330020895CE
:100520000F931F93CF93DF93EC010E948F018C01F7
:1005300066E471E0CE010E948F01800F911FDF9170
:10054000CF911F910F910895CF93DF931F92CDB755
:10055000DEB76983DC01ED91FC910280F381E02D2F
:1005600041E050E0BE016F5F7F4F09950F90DF9132
:10057000CF91089583E08093E9008091F200882371
:1005800019F08AE38093E8000895FC01848595853D
:1005900097FD0BC09FB7F89482E08093E9008091AB
:1005A000F2009FBF90E0019608959FB7F89482E013
:1005B0008093E9008091F2009FBF90E0089590E061
:1005C000FC013197EF30F105B0F5EB59FF4F0C947A
:1005D000580F809180008F7703C0809180008F7DBD
:1005E00080938000089580918000877FF9CF84B543
:1005F0008F7702C084B58F7D84BD0895809190006F
:100600008F7707C0809190008F7D03C0809190000C
:10061000877F8093900008958091C0008F7703C0FA
:100620008091C0008F7D8093C00008958091C200AA
:10063000877F8093C2000895CF93DF93282F30E007
:10064000F901E450FF4F8491F901EE54FE4FD4912B
:10065000F901ED56FE4FC491CC2391F081110E9417
:10066000DF02EC2FF0E0EE0FFF1FEB57FE4FA591DE
:10067000B491EC91ED2381E090E021F480E002C0A0
:1006800080E090E0DF91CF910895823108F08251AF
:10069000E82FF0E0E35AFE4FE49180917B00E3FB0A
:1006A000222720F930E095E0220F331F9A95E1F7D9
:1006B0008F7D282B20937B00E770E064E0937C0023
:1006C00080917A00806480937A0080917A0086FD20
:1006D000FCCF809178002091790090E0922B0895D2
:1006E000CF93DF931F92CDB7DEB7FC01848595854C
:1006F00097FD05C02FEF3FEF358724870BC0CE0154
:1007000001960E941A07019719F4898190E002C0AE
:100710008FEF9FEF0F90DF91CF9108950F931F936D
:10072000CF93DF931F92CDB7DEB78C01FC01848598
:10073000958597FF0EC0CE0101960E941A0701977A
:1007400019F4298130E002C02FEF3FEFF80135871F
:100750002487F801848595850F90DF91CF911F91B3
:100760000F9108951F93CF93DF93282F30E0F90165
:10077000E450FF4F8491F901EE54FE4FD491F901FA
:10078000ED56FE4FC491CC23C9F0162F81110E9463
:10079000DF02EC2FF0E0EE0FFF1FE958FE4FA591AE
:1007A000B4918FB7F894111105C09C91ED2FE0958D
:1007B000E92302C0EC91ED2BEC938FBFDF91CF9139
:1007C0001F910895CF93DF9390E0FC01EE54FE4F0C
:1007D0002491FC01ED56FE4F8491882361F190E055
:1007E000880F991FFC01E759FE4FC591D491FC0178
:1007F000E958FE4FA591B491611109C09FB7F894D3
:100800008881209582238883EC912E230BC062304F
:1008100061F49FB7F8943881822F80958323888371
:10082000EC912E2B2C939FBF06C08FB7F894E881D4
:100830002E2B28838FBFDF91CF9108953FB7F89477
:100840008091240290912502A0912602B091270266
:1008500026B5A89B05C02F3F19F00196A11DB11D1B
:100860003FBFBA2FA92F982F8827820F911DA11D56
:10087000B11DBC01CD0142E0660F771F881F991F93
:100880004A95D1F708958F929F92AF92BF92CF92DF
:10089000DF92EF92FF926B017C010E941E044B01DC
:1008A0005C01C114D104E104F104F1F00E941E04C2
:1008B000DC01CB0188199909AA09BB09883E93403C
:1008C000A105B10570F321E0C21AD108E108F108D1
:1008D00088EE880E83E0981EA11CB11CC114D104BF
:1008E000E104F10419F7DDCFFF90EF90DF90CF9096
:1008F000BF90AF909F908F9008958F929F92AF92EC
:10090000BF92CF92DF92EF92FF920F931F93CF93FC
:10091000DF935C016B018A0180910B01882309F44C
:100920005EC080913102882309F459C080912E0263
:1009300080FF05C08091E00082608093E000E801C4
:100940008AEFF82E93E0E92E2FE3822E3AE3932EDE
:10095000209709F43DC08FB7F894E092E900909198
:10096000E80095FF06C09091F200282D291B922FD8
:1009700001C090E08FBF91110AC0FA94FF2079F175
:1009800061E070E080E090E00E944304E1CF292F15
:1009900030E0C217D3070CF49C2F8FB7F894E09285
:1009A000E9002091E80025FF11C0292F30E0C21B8B
:1009B000D30BF601915020F041914093F100FACF12
:1009C000C20ED31E9091E80095FF13C08FBFC0CF19
:1009D0005D9884E680932F021016110644F081E0A2
:1009E00090E0F5019383828380E090E005C0C80128
:1009F00003C09092E800EACFDF91CF911F910F9151
:100A0000FF90EF90DF90CF90BF90AF909F908F902E
:100A100008952FB7F894609120027091210280917F
:100A20002202909123022FBF08951F920F920FB6BA
:100A30000F9211242F933F938F939F93AF93BF9364
:100A40008091200290912102A0912202B091230274
:100A500030911F0223E0230F2D3720F40196A11DB2
:100A6000B11D05C026E8230F0296A11DB11D2093DC
:100A70001F028093200290932102A0932202B09340
:100A800023028091240290912502A0912602B09128
:100A900027020196A11DB11D809324029093250287
:100AA000A0932602B0932702BF91AF919F918F919F
:100AB0003F912F910F900FBE0F901F9018958F921E
:100AC0009F92AF92BF92CF92DF92FF920F931F93AC
:100AD000CF93DF93C0E1D1E08AECC82E81E0D82E1D
:100AE0009FE0A92EB12CF88060E08F2D0E94B20308
:100AF0001A81812F0E9445034C0161E08F2D0E94D5
:100B0000B203C5010197F1F7812F0E9445038C01C3
:100B100060E08F2D0E94B20308191909F6010193B4
:100B200011936F012496F1E0C032DF07E1F6DF9107
:100B3000CF911F910F91FF90DF90CF90BF90AF901A
:100B40009F908F9008950F931F93CF93DF93EC01A5
:100B50008B01888599850297F1F46130710569F000
:100B600024F4672BC1F460E009C06230710559F0CC
:100B70006330710581F460E007C061E08C850E94FC
:100B8000B20361E005C061E08C850E94B20360E0C1
:100B90008E850E94B203888599850497B9F5013046
:100BA0001105B1F04CF40115110581F561E08C855A
:100BB0000E94B20360E011C002301105B9F00330A9
:100BC000110521F561E08C850E94B20360E013C03D
:100BD00060E08C850E94B20361E08E850E94B203C2
:100BE00061E088890E94B20360E00DC060E08C85FE
:100BF0000E94B20361E08E850E94B20360E08889A2
:100C00000E94B20361E08A890E94B20388859985B7
:100C1000059709F073C00A30110508F06FC0F8019C
:100C2000EC58FF4F0C94580F60E08C850E94B20383
:100C300061E051C060E08C850E94B20361E08E8566
:100C40000E94B20360E04BC060E08C850E94B2035A
:100C500061E08E850E94B20360E088890E94B20341
:100C600061E041C060E001C061E08C850E94B20398
:100C700061E005C061E08C850E94B20360E08E8572
:100C80000E94B20360E009C061E08C850E94B2035B
:100C900060E08E850E94B20361E088890E94B20301
:100CA00061E00DC061E08C850E94B20360E08E853A
:100CB0000E94B20361E088890E94B20360E08A89E1
:100CC0000E94B20360E013C061E001C060E08C8567
:100CD0000E94B20360E08E850E94B20361E08889C1
:100CE0000E94B20360E08A890E94B20361E08C89AD
:100CF000DF91CF911F910F910C94B203DF91CF91AF
:100D00001F910F91089582E00E941C03892B39F4F2
:100D100083E00E941C03892B11F480E008958091E8
:100D2000D201811106C062EC71E082E392E00E9480
:100D3000900281E08093D20108950E94720F4F9239
:100D40005F926F927F928F929F92AF92BF92CF925B
:100D5000DF92EF92FF920F931F93CF93DF93EC01FB
:100D600081E090E0998388830AE010E084E0E82E37
:100D7000F12C9AE0C92ED12C0115110509F449C0B6
:100D80000E941E048E889F88A88CB98C2B013C0180
:100D9000481859086A087B088A809B80AC80BD800F
:100DA000481459046A047B0438F36E8B7F8B888F58
:100DB000998F288139818A859B852130310559F4A5
:100DC00001969B878A872E813F818217930771F452
:100DD0001B861A860BC0892B21F48E819F819B87ED
:100DE0008A878A859B8501979B878A87015011098D
:100DF000288539858A859B852530310511F4B60112
:100E000001C0B7010E94440FBC01CE010E94A3059E
:100E1000B3CFDF91CF911F910F91FF90EF90DF90B3
:100E2000CF90BF90AF909F908F907F906F905F908A
:100E30004F900895FC0180913102811103C08FEF22
:100E40009FEF08959FB7F89482E08093E900209186
:100E5000F20030E01216130614F421E030E0211500
:100E6000310559F0289884E6809330028091F10092
:100E700080838091F200882319F09FBFC9010895F3
:100E80008BE68093E800F9CF8091030381110DC0B8
:100E900082E08093FF0284E08093000310920203BB
:100EA0001092010381E0809303038FEF92E0089595
:100EB0001F920F920FB60F9211248F939F938091E0
:100EC000E1009091E100937F9093E10083FF0FC0D8
:100ED0001092E90091E09093EB001092EC0092E305
:100EE0009093ED001092310298E09093F00082FF11
:100EF00020C093E09093E9009091F200992319F0BB
:100F00009AE39093E80090912F02992339F0909101
:100F10002F02915090932F02992389F190913002E2
:100F2000992339F090913002915090933002992397
:100F300041F184FF10C08091E2008E7E8160809339
:100F4000E2008091E1008F7E8093E10080912E028B
:100F50008E7E806111C080FF16C08091E2008E7E7F
:100F600080618093E2008091E1008E7E8093E100B9
:100F700080912E028E7E816080932E0204C05D9A45
:100F8000CDCF289AD6CF9F918F910F900FBE0F9003
:100F90001F9018951F920F920FB60F921124CF92A7
:100FA000DF92EF92FF920F931F932F933F934F93F4
:100FB0005F936F937F938F939F93AF93BF93EF93C1
:100FC000FF93CF93DF93CDB7DEB76C97DEBFCDBF76
:100FD0001092E9008091E80083FFFAC168E0CE0139
:100FE00045960E94830282EF8093E8008D8987FFF7
:100FF00005C09091E80090FFFCCF03C09EEF909356
:10100000E800982F907609F0C6C09E892F89188D28
:1010100091110CC0803829F480912D028093F10049
:1010200002C01092F1001092F10047C1422F50E02F
:10103000512B913051F4811140C14130510509F0DB
:101040003CC180912D028D7F0BC0933061F48111E2
:1010500034C14130510509F030C180912D028260C8
:1010600080932D022AC1953041F48091E80080FFE1
:10107000FCCF20682093E30020C1963009F05FC0C8
:10108000EB8CFC8C1092E90010922B0210922A0239
:10109000123091F510922902109228020E945102FA
:1010A00099E0BE016F5F7F4FDB01E92F1D92EA954A
:1010B000E9F799831A8391E09E8390EA98879AEFE3
:1010C000998720912A0230912B02275F3F4F3C8362
:1010D0002B838D831092E90010922B0210922A022A
:1010E000F0922902E092280249E050E080E00E945C
:1010F0002A020E945102E1C0F0922902E0922802E5
:101100000E944407DC011296ED90FC901397E114C5
:10111000F10409F4C0C0D701ED91FC910480F58180
:10112000E02DBE016B5E7F4FC7010995009719F056
:101130000CF0C3C0C6C0F701E084F184E8CF97305B
:1011400009F4BFC0983021F481E08093F100B5C06C
:10115000993009F0B2C0837009F0B3C0E1E2F1E068
:1011600081E021E036E39081992361F08093E900EA
:101170002093EB0091919093EC003093ED008F5F02
:10118000873089F78EE78093EA001092EA008F8912
:101190008093310292C08B8D9C8D1092E900109249
:1011A0002B0210922A029093290280932802898DA3
:1011B000811156C08E899D89913A59F4813209F086
:1011C00080C047E050E064E071E080E00E942A02C5
:1011D00074C0913209F075C0833289F4888D90E033
:1011E000982F88272F89822BA0E0B0E08093000100
:1011F00090930101A0930201B09303015EC080327D
:1012000069F48091E80082FFFCCF67E084E091E020
:101210000E9483028BEF8093E80006C0823209F0BF
:101220004CC08F8980930B0180912C02882319F088
:10123000EEEFFAE002C0E0E0F8E080910401909166
:101240000501A0910601B0910701803B9440A105E2
:10125000B10509F088C080910B0180FFA0C083C058
:101260000E944407DC0112960D911C911397011501
:10127000110539F1D801ED91FC910190F081E02D3B
:10128000BE016B5E7F4FC8010995811116C0F80140
:1012900000851185ECCF1130C1F0133091F48F89A6
:1012A000882309F455C08230E9F440E860E181EE1A
:1012B00091E00E94ED01882321F08EEF8093E800F9
:1012C00087C081E28093EB0083C08B8D9C8D089753
:1012D00011F41093FE028091FE02811136C062EF7C
:1012E00071E038C0813029F440E86BE085ED91E091
:1012F000E0CF833031F70E944407DC011296ED9075
:10130000FC9013978E010F5F1F4F6801E114F104E9
:1013100079F0D701ED91FC910680F781E02DB801BD
:10132000C7010995080F111DF701E084F184EECF84
:10133000D8011C92F60101900020E9F73197BF0116
:101340006C197D0940E0C601B4CF64E072E002C0D0
:1013500061ED71E06115710509F4B3CFFB014491B2
:1013600050E080E833CF0FB6F894A89580916000E4
:10137000886180936000109260000FBEA895EE3FD8
:101380002AE0F20739F08091FE0A9091FF0A9183DA
:10139000808393CF1092FF0A1092FE0A8ECFEE3F09
:1013A0008AE0F80731F0808191819093FF0A809361
:1013B000FE0A87E797E7918380839BE088E10FB679
:1013C000F894A895809360000FBE9093600075CF4D
:1013D0006C960FB6F894DEBF0FBECDBFDF91CF91F4
:1013E000FF91EF91BF91AF919F918F917F916F91FD
:1013F0005F914F913F912F911F910F91FF90EF902F
:10140000DF90CF900F900FBE0F901F901895CF9345
:10141000DF93CDB7DEB728970FB6F894DEBF0FBEC7
:10142000CDBF789484B5826084BD84B5816084BD6D
:1014300085B5826085BD85B5816085BD80916E0072
:10144000816080936E0010928100809181008260A3
:1014500080938100809181008160809381008091E0
:1014600080008160809380008091910082608093F1
:101470009100809191008160809391008091900013
:101480008160809390008091C10084608093C1004E
:101490008091C10082608093C1008091C100816011
:1014A0008093C1008091C30081608093C3008091CC
:1014B000C00082608093C0008091C20081608093F0
:1014C000C20080917A00846080937A0080917A00D3
:1014D000826080937A0080917A00816080937A00A4
:1014E00080917A00806880937A0010923102109285
:1014F0002D0210922E028091D70081608093D70038
:1015000080EA8093D80089B5806189BD89B5826001
:1015100089BD09B400FEFDCF61E070E080E090E09D
:101520000E9443048091D8008F7C80618093D80012
:101530008091E000807F8093E0008091E1008E7ECA
:101540008093E1008DE08093E200559A209AEEEFBF
:10155000FFE7859194918B3F9C4D19F481E0809336
:101560002C021092FA021092FB021092FC021092CE
:10157000FD021092B8021092B9021092BA021092B3
:10158000BB0260ED77E080E090E00E94430482E3DC
:1015900092E09093F9028093F802BBE1EB2EF12CDC
:1015A00010910B016AE070E080E090E00E9443043B
:1015B00011110BC031E0E31AF10839F064E670E074
:1015C00080E090E00E944304EBCFE091F802F091BC
:1015D000F9020FEF1FEF158704870E94090560933A
:1015E000B8027093B9028093BA029093BB0267E38A
:1015F00071E08091F8029091F9020E948F016AE0F7
:1016000070E080E090E00E94430481E08093CC028F
:1016100010933F0200933E0264E670E080E090E0A9
:101620000E94430469E471E082E392E00E94900228
:1016300060E082E00E94E20360E083E00E94E20357
:1016400061E08DE00E94E2032091A2023091A302AA
:10165000032E000C440B550BC12CF7E8DF2EF3E9E9
:10166000EF2EF3E0FF2EC701B6010E94990FAFE005
:101670008A2EA7E29A2EA12CB12CCA01B901A5018C
:1016800094010E94990F20939E0230939F024093F1
:10169000A0025093A1020091880210918902980142
:1016A000110F440B550BC701B6010E94990FCA01D7
:1016B000B901A50194010E94990F209384023093EF
:1016C0008502409386025093870261E084E00E9485
:1016D000E20361E085E00E94E20361E086E00E94AF
:1016E000E20361E087E00E94E20360E084E00E94A0
:1016F000B20360E085E00E94B20360E086E00E94F1
:10170000B20360E087E00E94B2036AE070E080E02C
:1017100090E00E9443046CE571E082E392E00E9455
:10172000900261E08DE00E94E203E9E0F1E0E491E3
:101730008E2F90E0FC013197EF30F10508F07DC06D
:10174000EA5AFF4F0C94580F84B5806884BD84E634
:1017500087BD77C084B5806284BD84E688BD71C0D2
:101760008091800080688093800084E690E0909370
:1017700089008093880065C080918000806280939A
:10178000800084E690E090938B0080938A0059C09B
:101790008091800088608093800084E690E0909340
:1017A0008D0080938C004DC0809190008068809364
:1017B000900084E690E0909399008093980041C057
:1017C0008091900080628093900084E690E09093F6
:1017D0009B0080939A0035C0809190008860809330
:1017E000900084E690E090939D0080939C0029C037
:1017F0008091C00080688093C0008091C0008F7B82
:101800008093C00084E68093CF001BC08091C0000D
:1018100080628093C00084E68093D00012C08091E3
:10182000C20088608093C2008091C2008B7F809349
:10183000C20084E68093D20004C060E08DE00E9484
:10184000B2030E9409056B017C018FEF93E0909336
:101850000402809303021092FC011092FB0190930A
:101860000602809305021092FE011092FD019093F2
:10187000080280930702109200021092FF019093D9
:101880000A028093090210920202109201020E9441
:101890000905DC01CB018C199D09AE09BF09883B04
:1018A0009B40A105B10550F50E945F054AEC51E04F
:1018B000E3E0F2E06BEF71E0DA018D919D91AD0113
:1018C00020813181821793070CF49C01219331937D
:1018D000DB012D913C91281739070CF49C01DB01A9
:1018E0002D933D93BD01B2E0EB30FB0729F76AE091
:1018F00070E080E090E00E944304C9CF61E08DE099
:101900000E94E20360E08DE00E94B20363E771E0B1
:1019100082E392E00E94900268EE73E080E090E043
:101920000E94430467E871E082E392E00E94900223
:10193000E4EF4E2E55245394612C712C0E9409051E
:10194000672B682B692B41F40E94090562307105F1
:101950008105910508F404C10E94090560931B02EA
:1019600070931C0280931D0290931E020091170237
:10197000109118022091190230911A026017710714
:101980008207930740F460931702709318028093C4
:10199000190290931A0200911702109118022091D7
:1019A000190230911A026B017C01C01AD10AE20AB5
:1019B000F30A970186010A3F11052105310508F454
:1019C000CFC060931702709318028093190290930E
:1019D0001A024092C4025092C5026092C6027092EE
:1019E000C7021092C8021092C9021092CA02109245
:1019F000CB028091BC029091BD02A091BE02B09139
:101A0000BF028093C0029093C102A093C202B09320
:101A1000C3020E9409056093BC027093BD028093CB
:101A2000BE029093BF020E9409056093B8027093B2
:101A3000B9028093BA029093BB020E9409056B0120
:101A40007C0169E971E08091F8029091F9020E94AD
:101A50008F012AE041E050E060E070E08091F80200
:101A60009091F9020E94A40160EA71E08091F8026D
:101A70009091F9020E948F012AE0B701A60180919E
:101A8000F8029091F9020E94A40162EA71E080914B
:101A9000F8029091F9020E948F018091BC0290910E
:101AA000BD02A091BE02B091BF02B701A601481BC2
:101AB000590B6A0B7B0B2AE08091F8029091F90296
:101AC0000E94A40162EA71E08091F8029091F9020B
:101AD0000E948F014091BC025091BD026091BE02F4
:101AE0007091BF028091C0029091C102A091C20288
:101AF000B091C302481B590B6A0B7B0B2AE0809103
:101B0000F8029091F9020E94A40164EA71E08091C8
:101B1000F8029091F9020E948F010E940905AB0121
:101B2000BC012AE08091F8029091F9020E94A40180
:101B300066EA71E08091F8029091F9020E949002A9
:101B400065E070E080E090E00E9443040E94090597
:101B50006093BC027093BD028093BE029093BF025B
:101B60000E945F0520910D0230910E02C90165E0CF
:101B700070E00E94440F40910B0250910C024530DE
:101B8000510534F44F5F5F4F50930C0240930B02AA
:101B90002F5F3F4F2530310529F030930E022093FF
:101BA0000D0204C010920E0210920D0220900B0242
:101BB00030900C020FE012E053E0C52E52E0D52E1B
:101BC0002AEC31E03A8329836BEFE62E61E0F62EB2
:101BD000AC01440F551F5E834D8318861F82D801C8
:101BE0001D921C92E981FA8181919191FA83E98396
:101BF000D6012D913C914C01281739070CF449016D
:101C0000F60191828082D701ED91FC91E817F907E6
:101C10000CF4FC01D701ED93FC93092C000CAA08ED
:101C2000BB082D813E814F815885240F351FD90176
:101C3000AD52BE4FBC83AB83092E000CAA0BBB0B6D
:101C40009C01AD01281939094A095B09AFEFB0E0E1
:101C50000E94B80F9F01FF0F440B550B281939093B
:101C60004A095B090E94990FEB81FC813183208333
:101C70002F3F310519F014F02FEF30E037FF02C08D
:101C800020E030E0AB81BC812D933C9320E030E03C
:101C9000F80180819181221533059CF4F901EE0F42
:101CA000FF1F4F815885E40FF51FED52FE4F408115
:101CB0005181840F951FD8018D939C932F5F3F4FC7
:101CC000E7CFB1010E94440FD8016D937D938D0140
:101CD000B2E0CB0ED11CE2E0EE0EF11C2F81388574
:101CE000265F3F4F38872F832832310509F077CFA1
:101CF0000E948306811137C08091D201882339F177
:101D00001092D2016DEA71E082E392E00E948F01AD
:101D10002AE043E050E060E070E082E392E00E945D
:101D2000A4016EE671E082E392E00E94900268EB0B
:101D30007BE080E090E00E9443040E9483068111D2
:101D400006C06AEB71E082E392E00E94900280910B
:101D5000150290911602C39734F480910F0290916E
:101D60001002C39744F040E050E0452B09F4E6CD63
:101D70000E940000E3CD8CE992E00E949F0682E879
:101D800092E00E949F06EFCFEF92FF920F931F9376
:101D9000CF93DF93E2E3F2E01382128288EE93E0C6
:101DA000A0E0B0E084839583A683B7838BE291E0C3
:101DB000918380838FEF9FEF95878487CCE9D2E072
:101DC0001B861A86198218821E8A1F8A188E198EFF
:101DD00088ECE82EF12CFF82EE8289E090E09D876E
:101DE0008C8788E090E09F878E8761E089E00E9481
:101DF000E20361E08E850E94E203198A188A1B8A39
:101E00001A8A1D8A1C8A02E010E019870887C2E836
:101E1000D2E01B861A86198218821E8A1F8A188EA3
:101E2000198EFF82EE828BE090E09D878C878AE09E
:101E300090E09F878E8761E08BE00E94E20361E083
:101E40008E850E94E203198A188A1B8A1A8A1D8AC3
:101E50001C8A19870887E6EBF2E016821782108643
:101E60001186128613861486158616861786108AA2
:101E7000118A128A138A148A158ADF91CF911F91D1
:101E80000F91FF90EF90089597FB072E16F40094A2
:101E900007D077FD09D00E945E0F07FC05D03EF405
:101EA000909581959F4F0895709561957F4F089506
:101EB000EE0FFF1F0590F491E02D0994AA1BBB1BA8
:101EC00051E107C0AA1FBB1FA617B70710F0A61B3A
:101ED000B70B881F991F5A95A9F780959095BC015B
:101EE000CD01089581E090E0F8940C94D20FA1E226
:101EF0001A2EAA1BBB1BFD010DC0AA1FBB1FEE1F84
:101F0000FF1FA217B307E407F50720F0A21BB30BCE
:101F1000E40BF50B661F771F881F991F1A9469F74A
:101F200060957095809590959B01AC01BD01CF01A6
:101F30000895052E97FB1EF400940E94B00F57FDE4
:101F400007D00E94770F07FC03D04EF40C94B00F1B
:101F500050954095309521953F4F4F4F5F4F0895D5
:101F600090958095709561957F4F8F4F9F4F089505
:101F70000E94C30FA59F900DB49F900DA49F800D4C
:101F8000911D11240895A29FB001B39FC001A39F8A
:101F9000700D811D1124911DB29F700D811D1124A2
:081FA000911D0895F894FFCF94
:101FA800FFFFFFFF00E1000000000000010000004B
:101FB80004001300060015000500140007001200B5
:101FC80000C1808100000000000000A4027D04C55B
:101FD8000270038E03BA02564D4450565F317C316D
:101FE8005F564D4450560D0A007365747570282964
:101FF80020737461727465642E2E2E0043616C69BF
:1020080062726174696E672073656E736F72732E86
:102018002E2E0053656E736F72732063616C696254
:10202800726174656421007365747570282920666F
:10203800696E69736865642100564D4450455F00B8
:102048003A323A007C005F564D4450450052657361
:10205800756D696E6720696E2000526573756D65D0
:0A206800210050617573652100002E
:00000001FF
