:100000000C9412010C943A010C943A010C943A01AC
:100010000C943A010C943A010C943A010C943A0174
:100020000C943A010C943A010C94520A0C94C40AB0
:100030000C943A010C943A010C943A010C943A0154
:100040000C943A010C943A010C943A010C943A0144
:100050000C943A010C943A010C943A010C94DC058E
:100060000C943A010C943A010C943A010C943A0124
:100070000C943A010C943A010C943A010C943A0114
:100080000C943A010C943A010C943A010C943A0104
:100090000C943A010C943A010C943A010C943A01F4
:1000A0000C943A010C943A010C943A018F0192019C
:1000B000810185018B01B301B301B30196019A015E
:1000C0009E01A401A801B301AE0145024B025102F9
:1000D00057025D0263026902A403AB03B203B903D2
:1000E000C003D703C703D703CE03810F870F8D0F3C
:1000F000990FA50FFA0FFA0FFA0FB10FBD0FC90F25
:10010000D50FE30FFA0FEC0F070605040100080AEC
:100110000B0C0D0900000000240027002A002D0010
:10012000300000000000250028002B002E003100C8
:10013000000000002300260029002C002F000404EA
:100140000404040304050202020204030202020280
:100150000606060606060404020202040404080257
:10016000011040804010204080408008020401803F
:10017000402010020110801020404020080B000297
:10018000020201000904000001020200000524002F
:1001900010010524010101042402060524060001C2
:1001A0000705810310004009040100020A00000055
:1001B0000705020240000007058302400000040317
:1001C000090441726475696E6F204C4C43004172A2
:1001D0006475696E6F204C656F6E6172646F00129A
:1001E00001000200000040412336800001010203AB
:1001F0000112010002EF020140412336800001019B
:100200000203010000000200090F000003040100C6
:100210000C000000000000000000000000000000D2
:100220000000670D11241FBECFEFDAE0DEBFCDBFA7
:1002300023E0A0ECB1E001C01D92A530B207E1F7C8
:1002400011E0A0E0B1E0E0E7F9E202C005900D9214
:10025000A03CB107D9F711E0C2E1D1E004C0219779
:10026000FE010E94A311C131D107C9F70E94470EB8
:100270000C94B6140C940000CF93DF931F92CDB76B
:10028000DEB76983DC01ED91FC910280F381E02D02
:1002900041E050E0BE016F5F7F4F09950F90DF9105
:1002A000CF91089583E08093E9008091F200882344
:1002B00019F08AE38093E8000895FC018485958510
:1002C00097FD0BC09FB7F89482E08093E90080917E
:1002D000F2009FBF90E0019608959FB7F89482E0E6
:1002E0008093E9008091F2009FBF90E0089590E034
:1002F000FC013197EF30F105B0F5EA5AFF4F0C944D
:10030000A311809180008F7703C0809180008F7D42
:1003100080938000089580918000877FF9CF84B515
:100320008F7702C084B58F7D84BD08958091900041
:100330008F7707C0809190008F7D03C080919000DF
:10034000877F8093900008958091C0008F7703C0CD
:100350008091C0008F7D8093C00008958091C2007D
:10036000877F8093C2000895CF93DF93282F30E0DA
:10037000F901ED5FFD4F8491F901E35AFE4FD491ED
:10038000F901E25CFE4FC491CC2391F081110E94EF
:100390007701EC2FF0E0EE0FFF1FE05DFE4FA5911F
:1003A000B491EC91ED2381E090E021F480E002C073
:1003B00080E090E0DF91CF910895823108F0825182
:1003C000E82FF0E0E85FFE4FE49180917B00E3FBD3
:1003D000222720F930E095E0220F331F9A95E1F7AC
:1003E0008F7D282B20937B00E770E064E0937C00F6
:1003F00080917A00806480937A0080917A0086FDF3
:10040000FCCF809178002091790090E0922B0895A4
:100410003FB7F8948091C1019091C201A091C301AE
:10042000B091C40126B5A89B05C02F3F19F00196D5
:10043000A11DB11D3FBFBA2FA92F982F8827820F6A
:10044000911DA11DB11DBC01CD0142E0660F771FBA
:10045000881F991F4A95D1F70895CF93DF9347706E
:10046000552766277727FA013197EC01A881B981D2
:10047000E730F10520F4EB59FF4F0C94A3111496CB
:10048000ED91FC91159761E029C01496ED91FC91D6
:10049000159765E023C01496ED91FC91159764E0E3
:1004A0001DC01496ED91FC91159766E017C0149647
:1004B000ED91FC91159762E011C01496ED91FC91BD
:1004C00015976AE00BC01496ED91FC91159768E0C2
:1004D00005C01496ED91FC91159769E0DF91CF91DD
:1004E0000994CF93DF93EC01CB01BA0126E030E011
:1004F00040E050E00E945B14623071058105910577
:1005000059F18CF46115710581059105F1F06130A7
:10051000710581059105C1F5E881F9810480F581B6
:10052000E02D65E02DC0643071058105910511F164
:10053000D4F0653071058105910531F5E881F981C7
:100540000480F581E02D66E01BC0E881F98104801C
:10055000F581E02D64E014C0E881F9810480F58123
:10056000E02D61E00DC0E881F9810480F581E02D86
:1005700063E006C0E881F9810480F581E02D62E046
:10058000CE01DF91CF910994DF91CF91089543700F
:10059000552766277727DC01ED91FC910480F581D2
:1005A000E02D423051056105710571F04330510570
:1005B0006105710559F0413051056105710511F072
:1005C00065E005C066E003C06AE001C069E0099427
:1005D000CF93DF93EC01CB01BA0123E030E040E0A0
:1005E00050E00E945B14613071058105910581F036
:1005F000623071058105910591F0672B682B692B9D
:10060000C1F4E881F9810480F581E02D64E00DC03A
:10061000E881F9810480F581E02D61E006C0E88180
:10062000F9810480F581E02D62E0CE01DF91CF9168
:100630000994DF91CF910895437055276627772756
:10064000DC01ED91FC910480F581E02D42305105F3
:100650006105710571F0433051056105710559F06F
:10066000413051056105710511F062E005C063E09C
:1006700003C061E001C060E009940F931F93CF9322
:10068000DF93EC01E881F9810480F581E02D8C0194
:100690000D5B1F4FD8018C91811102C060E001C039
:1006A00062E0CE010995E881F9810480F581E02DB1
:1006B000D8018C91811102C061E001C063E0CE01DC
:1006C0000995EBA5FCA5E230F10538F0EE0FFF1F10
:1006D000EE0FFF1F35973197F1F7E881F98104801C
:1006E000F581E02DD8018C91811102C060E001C03C
:1006F00062E0CE01DF91CF911F910F910994CF93CA
:10070000DF93EC0120E030E0A9016B897C898D89C1
:100710009E890E94891318161CF4EFA5F8A902C03F
:10072000E9A9FAA9DF91CF9109940F931F93DC01F6
:100730001296EC910E2F10E009301105C0F5F8016A
:10074000E459FF4F0C94A311DC01ED91FC9100845E
:10075000F185E02D29C0DC01ED91FC910284F38547
:10076000E02D22C0DC01ED91FC910484F585E02DA3
:100770001BC0DC01ED91FC910684F785E02D14C0CF
:10078000DC01ED91FC910088F189E02D0DC0DC01C8
:10079000ED91FC910288F389E02D06C0DC01ED911A
:1007A000FC910488F589E02D1F910F9109941F9108
:1007B0000F910895CF93DF931F92CDB7DEB7FC0161
:1007C0008485958597FD05C02FEF3FEF35872487FA
:1007D0000BC0CE0101960E94280A019719F4898165
:1007E00090E002C08FEF9FEF0F90DF91CF910895BF
:1007F0000F931F93CF93DF931F92CDB7DEB78C017A
:10080000FC018485958597FF0EC0CE0101960E945C
:10081000280A019719F4298130E002C02FEF3FEF39
:10082000F80135872487F801848595850F90DF913D
:10083000CF911F910F9108951F93CF93DF93282F8E
:1008400030E0F901ED5FFD4F8491F901E35AFE4F6D
:10085000D491F901E25CFE4FC491CC23C9F0162F6C
:1008600081110E947701EC2FF0E0EE0FFF1FEE5D8B
:10087000FE4FA591B4918FB7F894111105C09C91CA
:10088000ED2FE095E92302C0EC91ED2BEC938FBFA7
:10089000DF91CF911F910895CF92DF92EF92FF9257
:1008A0000F931F93CF93DF93FC012281243041F0FB
:1008B000283031F0233031F0263021F012E003C02F
:1008C00014E001C013E0EC012796E12CF12CC62EB8
:1008D000D12C01E0C6010E2C02C0959587950A9493
:1008E000E2F7688180FD6027FE01349780810E94D5
:1008F0001C04FFEFEF1AFF0A2196E11658F3DF916F
:10090000CF911F910F91FF90EF90DF90CF900895BE
:10091000CF93DF9390E0FC01E35AFE4F2491FC015A
:10092000E25CFE4F8491882361F190E0880F991F6B
:10093000FC01EC5EFE4FC591D491FC01EE5DFE4FD3
:10094000A591B491611109C09FB7F8948881209551
:1009500082238883EC912E230BC0623061F49FB711
:10096000F8943881822F809583238883EC912E2BF5
:100970002C939FBF06C08FB7F894E8812E2B288355
:100980008FBFDF91CF910895CF93DF93FC01228138
:10099000222359F1EC0161E083810E94880461E027
:1009A0008C810E9488048A81843011F0883039F467
:1009B00061E08D810E94880461E08E8106C08330F1
:1009C00011F0863021F461E08D810E9488048EA5AB
:1009D0008F3F59F061E00E9488046DA581E068278F
:1009E0008EA5DF91CF910C941C04DF91CF910895D7
:1009F000CF93DF93FC0122812223A9F0EC01019027
:100A0000F081E02D0480F581E02D60E009958EA550
:100A10008F3F49F061E00E9488046DA58EA5DF91AB
:100A2000CF910C941C04DF91CF9108958F929F92E7
:100A3000AF92BF92CF92DF92EF92FF926B017C0157
:100A40000E9408024B015C01C114D104E104F104CD
:100A5000F1F00E940802DC01CB0188199909AA096A
:100A6000BB09883E9340A105B10570F321E0C21A8D
:100A7000D108E108F10888EE880E83E0981EA11CD9
:100A8000B11CC114D104E104F10419F7DDCFFF90CA
:100A9000EF90DF90CF90BF90AF909F908F90089590
:100AA0008F929F92AF92BF92CF92DF92EF92FF927E
:100AB0000F931F93CF93DF935C016B018A018091A9
:100AC0000B01882309F45EC08091CE01882309F4CC
:100AD00059C08091CB0180FF05C08091E000826009
:100AE0008093E000E8018AEFF82E93E0E92E2FE3EF
:100AF000822E3AE3932E209709F43DC08FB7F894E5
:100B0000E092E9009091E80095FF06C09091F20014
:100B1000282D291B922F01C090E08FBF91110AC090
:100B2000FA94FF2079F161E070E080E090E00E94AB
:100B30001605E1CF292F30E0C217D3070CF49C2F04
:100B40008FB7F894E092E9002091E80025FF11C0EA
:100B5000292F30E0C21BD30BF601915020F04191B8
:100B60004093F100FACFC20ED31E9091E80095FF9A
:100B700013C08FBFC0CF5D9884E68093CC01101660
:100B8000110644F081E090E0F5019383828380E0D8
:100B900090E005C0C80103C09092E800EACFDF9161
:100BA000CF911F910F91FF90EF90DF90CF90BF906A
:100BB000AF909F908F9008951F920F920FB60F9253
:100BC00011242F933F938F939F93AF93BF93809163
:100BD000B4029091B502A091B602B091B7023091E3
:100BE000C00123E0230F2D3720F40196A11DB11D74
:100BF00005C026E8230F0296A11DB11D2093C00158
:100C00008093B4029093B502A093B602B093B7025A
:100C10008091C1019091C201A091C301B091C40122
:100C20000196A11DB11D8093C1019093C201A093B3
:100C3000C301B093C401BF91AF919F918F913F9138
:100C40002F910F900FBE0F901F9018958F929F922B
:100C5000AF92BF92CF92DF92FF920F931F93CF93E9
:100C6000DF93C0E1D1E088EBC82E82E0D82E9FE070
:100C7000A92EB12CF88060E08F2D0E941C041A81EF
:100C8000812F0E94DD014C0161E08F2D0E941C0428
:100C9000C5010197F1F7812F0E94DD018C0160E011
:100CA0008F2D0E941C0408191909F6010193119354
:100CB0006F012496F1E0C032DF07E1F6DF91CF91BA
:100CC0001F910F91FF90DF90CF90BF90AF909F90BA
:100CD0008F90089561E088E00E941C0460E089E044
:100CE0000E941C0460E08AE00E941C0460E08BE02B
:100CF0000C941C042F923F924F925F926F927F92BE
:100D00008F929F92AF92BF92CF92DF92EF92FF921B
:100D10000F931F93CF93DF9300D000D0CDB7DEB7F2
:100D20001C01FC0187849088A188B2888385948502
:100D3000A585B685881A990AAA0ABB0A63897489A7
:100D4000858996899B01AC010E948E136B017C0101
:100D5000F101638D748D858D968D9B01AC010E9490
:100D6000BE119B01AC01C701B6010E942F120E9467
:100D7000A11281149104A104B104A1F4623071059F
:100D8000810591050CF07CC0F10113A214A215A2FB
:100D900016A2138A148A158A168A13AA14AA15AAE7
:100DA00016AA03C1F10103A914A925A936A9ED5B6F
:100DB000FF4F181419041A041B04FCF41016110632
:100DC000120613064CF4681579058A059B054CF547
:100DD0002081211155C025C00115110521053105BE
:100DE00009F44EC0681579058A059B050CF048C0CA
:100DF0008081882309F444C037C0101611061206FA
:100E00001306F4F4002711279801081919092A0973
:100E10003B0960177107820793071CF42081222386
:100E200079F19B01AC0188279927DC01821B930B88
:100E3000A40BB50BF10183AB94ABA5ABB6AB20C053
:100E40000115110521053105D9F0CC24DD247601E9
:100E5000C818D908EA08FB086C157D058E059F05A2
:100E60007CF4808181110CC03095209510950195FE
:100E70001F4F2F4F3F4FF10103AB14AB25AB36ABE8
:100E8000F101C3A8D4A8E5A8F6A881010D5B1F4F06
:100E9000C114D104E104F10491F487A990ADA1AD8E
:100EA000B2AD83AF94AFA5AFB6AF81E0181419040B
:100EB0001A041B040CF080E0F801808340C0F101AB
:100EC00083AC94ACA5ACB6ACA5019401C501B4014A
:100ED0000E94BE112B013C01C701B6010E94D9122C
:100EE00020E030E040E850E40E948E1320E030E043
:100EF00040E85FE30E94BE119B01AC01C301B20157
:100F00000E942F129B01AC01C501B4010E94BD11CA
:100F10004B015C01F101FF9640805180628073803B
:100F20009201A3010E948913181614F04201530183
:100F3000A401B501F10143AF54AF65AF76AFFFEF48
:100F4000CF1ADF0AEF0AFF0AF101C3AAD4AAE5AA61
:100F5000F6AA23AD34AD45AD56ADCA01B90129831A
:100F60003A834B835C830E94A812F10163A374A3AC
:100F700085A396A329813A814B815C8160E074E26C
:100F800084E799E40E942F12F101638B748B858BA7
:100F9000968BF8012081211108C0DC01CB01B058EB
:100FA000F101838B948BA58BB68B0F900F900F90D4
:100FB0000F90DF91CF911F910F91FF90EF90DF90F5
:100FC000CF90BF90AF909F908F907F906F905F90E9
:100FD0004F903F902F9008954F925F926F927F9223
:100FE0008F929F92AF92BF92CF92DF92EF92FF9239
:100FF000CF93DF93EC016A017B018B8C9C8CAD8CD1
:10100000BE8C9A01AB01C501B4010E942A1288234B
:1010100009F449C06BA97CA98DA99EA90E94D91287
:101020002B013C01A7019601C501B4010E942F12BA
:101030009B01AC01C301B2010E948E130E94A11258
:101040006BAB7CAB8DAB9EABA701960160E070E013
:1010500080E090E40E942F120E94011426E53EE0F9
:101060004DE25FE30E948E1320E034E244E759E44E
:101070000E948E136FAB78AF89AF9AAFCB8EDC8EA8
:10108000ED8EFE8ECE01DF91CF91FF90EF90DF903D
:10109000CF90BF90AF909F908F907F906F905F9018
:1010A0004F900C947A06DF91CF91FF90EF90DF90F4
:1010B000CF90BF90AF909F908F907F906F905F90F8
:1010C0004F90089582E00E94B401892B39F483E0A7
:1010D0000E94B401892B11F480E008958091C00230
:1010E000811104C081E591E00E943E0981E0809376
:1010F000C00208958091AC0281110DC082E08093FE
:10110000A80284E08093A9021092AB021092AA0276
:1011100081E08093AC0288EA92E008950E94561420
:10112000CF92DF92EF92FF920F931F93CF93DF93B3
:101130001F92CDB7DEB7182F062FE42E862F880F0B
:101140008E5F99830E942C0D83E00E942C0DF12E5E
:10115000C12E9981D92E8C2D8F19801798F4F60104
:10116000E7FE02C0849101C080810E942C0D182FDF
:1011700080E00E942C0D8123FFEFCF1ADF0A81113E
:10118000EACF01C081E00F90DF91CF911F910F91C5
:10119000FF90EF90DF90CF900895DF92EF92FF9253
:1011A0000F931F93CF93DF93D82E8A017B01E40E18
:1011B000F51EEB01CE15DF0571F0D7FE03C0FE0171
:1011C000849101C088810E942C0D21968111F2CF5B
:1011D0008FEF9FEF01C0C801DF91CF911F910F9159
:1011E000FF90EF90DF9008950F931F93CF93DF93BD
:1011F0001F92CDB7DEB782E0898342E450E06CE70E
:1012000071E080E80E94CD080E947A08DC01129605
:101210000D911C9113970115110569F0D801ED91FD
:10122000FC910280F381E02DBE016F5F7F4FC8010A
:10123000099597FF07C089810F90DF91CF911F918A
:101240000F910895F80100851185E5CFBC01009745
:1012500091F0FC0101900020E9F73197AF01481BA4
:10126000590BE091CF01F091D0010280F381E02D84
:101270008FEC91E0099480E090E00895CF93DF93A4
:101280000E942609EC0188E591E00E9426098C0F56
:101290009D1FDF91CF910895CF92DF92EF92FF9241
:1012A000CF93DF93EC0120E030E543E457E46F890E
:1012B000788D898D9A8D0E942A12882309F442C064
:1012C00080E090E5A3E4B7E48F8B988FA98FBA8F65
:1012D00080E090E0A0EAB1E4FE01FF968083918374
:1012E000A283B3838BA99CA9ADA9BEA91816190620
:1012F0001A061B063CF56B897C898D899E899B01AA
:10130000AC010E948E136B017C016B8D7C8D8D8DE9
:101310009E8D9B01AC010E94BE119B01AC01C701D7
:10132000B6010E942F120E94A1126BAB7CAB8DAB59
:101330009EABCE01DF91CF91FF90EF90DF90CF90E9
:101340000C947A06DF91CF91FF90EF90DF90CF90D1
:1013500008958F929F92AF92BF92CF92DF92EF92B9
:10136000FF921F93CF93DF93EC0120E030E543E43D
:1013700057E46B897C898D899E890E942A12882373
:1013800009F45AC0CF88D88CE98CFA8C46015701F1
:10139000B7FAB094B7F8B09420E030E543E457E4EE
:1013A000C501B4010E94891318165CF020E030E5F5
:1013B00043E457E4C701B6010E942A1287FD03C027
:1013C00010C07501640120E030E0A901C701B60139
:1013D0000E942A1281110CC01BA21CA21DA21EA2D7
:1013E00027C0C12C80E5D82E83E4E82E87E4F82EB0
:1013F000A701960160E074E284E799E40E942F124D
:101400009F770E94A8126BA37CA38DA39EA35E016D
:1014100083E4A80EB11C11E020E030E0A901C7016F
:10142000B6010E94891318160CF010E0F501108324
:10143000CB8ADC8AED8AFE8ADF91CF911F91FF90E3
:10144000EF90DF90CF90BF90AF909F908F900895D6
:10145000FC018091CE01811103C08FEF9FEF0895B1
:101460009FB7F89482E08093E9002091F20030E089
:101470001216130614F421E030E02115310559F05D
:10148000289884E68093CD018091F100808380913B
:10149000F200882319F09FBFC90108958BE680935D
:1014A000E800F9CF1F920F920FB60F9211248F937D
:1014B0009F938091E1009091E100937F9093E100F0
:1014C00083FF0FC01092E90091E09093EB0010921F
:1014D000EC0092E39093ED001092CE0198E090938F
:1014E000F00082FF20C093E09093E9009091F20019
:1014F000992319F09AE39093E8009091CC019923F5
:1015000039F09091CC0191509093CC01992389F1BD
:101510009091CD01992339F09091CD019150909304
:10152000CD01992341F184FF10C08091E2008E7EAD
:1015300081608093E2008091E1008F7E8093E100E2
:101540008091CB018E7E806111C080FF16C080919A
:10155000E2008E7E80618093E2008091E1008E7EC9
:101560008093E1008091CB018E7E81608093CB01DE
:1015700004C05D9ACDCF289AD6CF9F918F910F90BE
:101580000FBE0F901F9018951F920F920FB60F92DB
:101590001124CF92DF92EF92FF920F931F932F931C
:1015A0003F934F935F936F937F938F939F93AF93EB
:1015B000BF93EF93FF93CF93DF93CDB7DEB76C97D5
:1015C000DEBFCDBF1092E9008091E80083FFFAC131
:1015D00068E0CE0145960E945A0D82EF8093E800A4
:1015E0008D8987FF05C09091E80090FFFCCF03C074
:1015F0009EEF9093E800982F907609F0C6C09E89E0
:101600002F89188D91110CC0803829F48091CA015E
:101610008093F10002C01092F1001092F10047C1D6
:10162000422F50E0512B913051F4811140C1413093
:10163000510509F03CC18091CA018D7F0BC09330E8
:1016400061F4811134C14130510509F030C18091FC
:10165000CA0182608093CA012AC1953041F4809109
:10166000E80080FFFCCF20682093E30020C1963083
:1016700009F05FC0EB8CFC8C1092E9001092C8015D
:101680001092C701123091F51092C6011092C50157
:101690000E94F40899E0BE016F5F7F4FDB01E92FE4
:1016A0001D92EA95E9F799831A8391E09E8390EA67
:1016B00098879AEF99872091C7013091C801275FD9
:1016C0003F4F3C832B838D831092E9001092C80119
:1016D0001092C701F092C601E092C50149E050E0C6
:1016E00080E00E94CD080E94F408E1C0F092C6019B
:1016F000E092C5010E947A08DC011296ED90FC9000
:101700001397E114F10409F4C0C0D701ED91FC91E5
:101710000480F581E02DBE016B5E7F4FC701099506
:10172000009719F00CF0C3C0C6C0F701E084F18443
:10173000E8CF973009F4BFC0983021F481E080935E
:10174000F100B5C0993009F0B2C0837009F0B3C0A0
:10175000E1E2F1E081E021E036E39081992361F05C
:101760008093E9002093EB0091919093EC003093EB
:10177000ED008F5F873089F78EE78093EA00109243
:10178000EA008F898093CE0192C08B8D9C8D109240
:10179000E9001092C8011092C7019093C60180938E
:1017A000C501898D811156C08E899D89913A59F460
:1017B000813209F080C047E050E064E071E080E0F1
:1017C0000E94CD0874C0913209F075C0833289F44B
:1017D000888D90E0982F88272F89822BA0E0B0E099
:1017E0008093000190930101A0930201B093030143
:1017F0005EC0803269F48091E80082FFFCCF67E030
:1018000084E091E00E945A0D8BEF8093E80006C0BF
:10181000823209F04CC08F8980930B018091C901FD
:10182000882319F0EEEFFAE002C0E0E0F8E08091E2
:10183000040190910501A0910601B0910701803B40
:101840009440A105B10509F088C080910B0180FF8B
:10185000A0C083C00E947A08DC0112960D911C91F1
:1018600013970115110539F1D801ED91FC91019003
:10187000F081E02DBE016B5E7F4FC801099581119B
:1018800016C0F80100851185ECCF1130C1F013307E
:1018900091F48F89882309F455C08230E9F440E837
:1018A00060E18EEC91E00E949008882321F08EEF99
:1018B0008093E80087C081E28093EB0083C08B8D2A
:1018C0009C8D089711F41093A7028091A7028111B3
:1018D00036C06FED71E038C0813029F440E86BE02C
:1018E00082EC91E0E0CF833031F70E947A08DC018E
:1018F0001296ED90FC9013978E010F5F1F4F6801B9
:10190000E114F10479F0D701ED91FC910680F781A3
:10191000E02DB801C7010995080F111DF701E084FA
:10192000F184EECFD8011C92F60101900020E9F776
:101930003197BF016C197D0940E0C601B4CF61EF5A
:1019400071E002C06EEB71E06115710509F4B3CF6F
:10195000FB01449150E080E833CF0FB6F894A8958E
:1019600080916000886180936000109260000FBEDB
:10197000A895EE3F2AE0F20739F08091FE0A909197
:10198000FF0A9183808393CF1092FF0A1092FE0A80
:101990008ECFEE3F8AE0F80731F0808191819093FD
:1019A000FF0A8093FE0A87E797E7918380839BE095
:1019B00088E10FB6F894A895809360000FBE9093CD
:1019C000600075CF6C960FB6F894DEBF0FBECDBF2A
:1019D000DF91CF91FF91EF91BF91AF919F918F9147
:1019E0007F916F915F914F913F912F911F910F9137
:1019F000FF90EF90DF90CF900F900FBE0F901F9051
:101A00001895CF92DF92EF92FF920F931F93CF938F
:101A1000DF936C017A018B01C0E0D0E0CE15DF05C9
:101A200089F0D8016D918D01D601ED91FC91019065
:101A3000F081E02DC6010995892B11F47E0102C0C9
:101A40002196ECCFC701DF91CF911F910F91FF90AD
:101A5000EF90DF90CF9008954091C7015091C80159
:101A60002091C5013091C60142175307B4F49091FB
:101A7000E8009570E1F39091E80092FD19C0809321
:101A8000F1008091C7019091C80101968F73992749
:101A9000892B19F48EEF8093E8008091C701909113
:101AA000C80101969093C8018093C70181E0089511
:101AB00080E00895615030F02091F100FC01208316
:101AC0000196F8CF289884E68093CD0108958F92EF
:101AD0009F92AF92BF92CF92DF92EF92FF920F93BD
:101AE0001F93CF93DF93EFECF1E01382128288EE25
:101AF00093E0A0E0B0E084839583A683B7838BE274
:101B000091E0918380838FEF9FEF95878487E3E651
:101B1000F2E00BE311E01183008388248394828236
:101B200013861486158616861786108A118A128ADD
:101B3000138A148A158A168AC12CD12C80E8E82EC3
:101B40008FE3F82EC78AD08EE18EF28E138E148E1C
:101B5000158E168EC78ED0A2E1A2F2A213A214A2F5
:101B600015A216A2C1E0D0E0D4A7C3A799249A94E5
:101B700096A617A210A611A612A689E0838388E074
:101B8000848394E0A92EA58225E0B22EB68213AA02
:101B900014AA15AA16AA17AA10AE11AE12AE13AE49
:101BA00014AE15AE16AEC092A202D092A302E0927D
:101BB000A402F092A5021092A60217821086118646
:101BC0001286CF010E94C404B701A60183E692E009
:101BD0000E94EC07EFE1F2E011830083828213861A
:101BE0001486158616861786108A118A128A138A19
:101BF000148A158A168AC78AD08EE18EF28E138EC9
:101C0000148E158E168EC78ED0A2E1A2F2A213A258
:101C100014A215A216A2D4A7C3A796A617A210A60F
:101C200011A612A68BE083838AE08483A582B68204
:101C300013AA14AA15AA16AA17AA10AE11AE12AEAC
:101C400013AE14AE15AE16AEC0925E02D0925F0215
:101C5000E0926002F0926102109262021782108696
:101C600011861286CF010E94C404B701A6018FE13C
:101C700092E0DF91CF911F910F91FF90EF90DF9055
:101C8000CF90BF90AF909F908F900C94EC07CF9324
:101C9000DF93CDB7DEB7A5970FB6F894DEBF0FBEC2
:101CA000CDBF789484B5826084BD84B5816084BDE5
:101CB00085B5826085BD85B5816085BD80916E00EA
:101CC000816080936E00109281008091810082601B
:101CD0008093810080918100816080938100809158
:101CE0008000816080938000809191008260809369
:101CF000910080919100816080939100809190008B
:101D00008160809390008091C10084608093C100C5
:101D10008091C10082608093C1008091C100816088
:101D20008093C1008091C30081608093C300809143
:101D3000C00082608093C0008091C2008160809367
:101D4000C20080917A00846080937A0080917A004A
:101D5000826080937A0080917A00816080937A001B
:101D600080917A00806880937A001092CE01109260
:101D7000CA011092CB018091D70081608093D70077
:101D800080EA8093D80089B5806189BD89B5826079
:101D900089BD09B400FEFDCF61E070E080E090E015
:101DA0000E9416058091D8008F7C80618093D800B6
:101DB0008091E000807F8093E0008091E1008E7E42
:101DC0008093E1008DE08093E200559A209AEEEF37
:101DD000FFE7859194918B3F9C4D19F481E08093AE
:101DE000C9018FEF9FEF9093DC018093DB0164E6E4
:101DF00070E080E090E00E9416058BE591E00E9483
:101E00003E0960E082E00E94880460E083E00E9476
:101E1000880461E08DE00E94880461E089E00E940E
:101E2000880461E088E00E94880461E08BE00E9401
:101E3000880461E08AE00E94880410926A0281E0CE
:101E400080936B028093900240E050E563E477E476
:101E500083E692E00E94EC0783E692E00E94A909E3
:101E600083E692E00E944C0940E050E563E477E4A9
:101E70008FE192E00E94EC078FE192E00E94A909B5
:101E80008FE192E00E944C0961E084E00E948804A6
:101E900061E085E00E94880461E086E00E94880499
:101EA00061E087E00E94880460E084E00E941C04F6
:101EB00060E085E00E941C0460E086E00E941C0453
:101EC00060E087E00E941C046AE070E080E090E03F
:101ED0000E9416058EE691E00E943E0961E08DE0C9
:101EE0000E948804E0E1F2E0E4918E2F90E0FC0192
:101EF0003197EF30F10508F07DC0EB58FF4F0C949F
:101F0000A31184B5806884BD84E687BD77C084B59D
:101F1000806284BD84E688BD71C080918000806845
:101F20008093800084E690E09093890080938800FD
:101F300065C08091800080628093800084E690E09C
:101F400090938B0080938A0059C0809180008860B4
:101F50008093800084E690E090938D0080938C00C5
:101F60004DC08091900080688093900084E690E05E
:101F7000909399008093980041C080919000806276
:101F80008093900084E690E090939B0080939A0069
:101F900035C08091900088608093900084E690E046
:101FA00090939D0080939C0029C08091C000806820
:101FB0008093C0008091C0008F7B8093C00084E636
:101FC0008093CF001BC08091C00080628093C000CE
:101FD00084E68093D00012C08091C2008860809314
:101FE000C2008091C2008B7F8093C20084E6809300
:101FF000D20004C060E08DE00E941C048FB7F8940A
:10200000C090B402D090B502E090B602F090B70252
:102010008FBF8FEF93E09093F2028093F1021092C2
:10202000EA021092E9029093F4028093F302109274
:10203000EC021092EB029093F6028093F50210925C
:10204000EE021092ED029093F8028093F702109244
:10205000F0021092EF022FB7F8948091B4029091A1
:10206000B502A091B602B091B7022FBF8C199D099D
:10207000AE09BF09883B9B40A105B10550F50E9400
:10208000260648EB52E0E1EFF2E069EE72E0DA0199
:102090008D919D91AD0120813181821793070CF4C0
:1020A0009C0121933193DB012D913C912817390735
:1020B0000CF49C01DB012D933D93BD01B2E0E93F9F
:1020C000FB0729F76AE070E080E090E00E941605C7
:1020D000C2CF61E08DE00E94880460E08DE00E9444
:1020E0001C0485E891E00E943E0968EE73E080E000
:1020F00090E00E94160589E991E00E943E090E9445
:1021000026062091FB023091FC02C90165E070E0D7
:102110000E948F114091F9025091FA024530510509
:1021200034F44F5F5F4F5093FA024093F9022F5FF0
:102130003F4F2530310529F03093FC022093FB02FC
:1021400004C01092FC021092FB028090F902909061
:10215000FA025DEFE52E52E0F52E61EFA62E62E069
:10216000B62E28EB32E03BA32AA379EEC72E72E00D
:10217000D72E1C01220C331C00E010E0D7011D9269
:102180001C92EAA1FBA121913191FBA3EAA3D50105
:102190008D919C912901821793070CF42C01F50174
:1021A00051824082D601ED91FC91E217F3070CF4C5
:1021B000F901D601ED93FC93052C000C6608770815
:1021C000C801820D931DAC014F535D4F5DA34CA31D
:1021D000C901330FAA0BBB0B9C01AD0124193509B2
:1021E00046095709AFEFB0E00E947A149F01FF0F34
:1021F000440B550B24193509460957090E945B14F5
:10220000ACA1BDA12D933C932F3F310519F014F0E3
:102210002FEF30E037FF02C020E030E0ECA1FDA15D
:102220003183208320E030E0F701808191812815FF
:1022300039058CF4F901EE0FFF1FE00FF11FEF538A
:10224000FD4F40815181840F951FD7018D939C9341
:102250002F5F3F4FE9CFB4010E948F11D7016D93DB
:102260007D937D01B2E0AB0EB11CE2E0CE0ED11C3D
:10227000065F1F4F0832110509F080CF0E946208E7
:10228000811145C08091C0028823F9F01092C002EC
:102290008BEA91E00E94260919A2F3E3F8A3CE018C
:1022A00080960E94260980E891E00E943E0968EB32
:1022B0007BE080E090E00E9416050E946208811198
:1022C00004C088EB91E00E943E0980910303909145
:1022D0000403C397D4F48091FD029091FE02C3974A
:1022E000A4F460E088E00E941C0461E089E00E94A0
:1022F0001C0461E08AE00E941C0461E08BE00E9403
:102300001C048FE090E00197F1F70E946A0620E03C
:1023100030E0232B09F4F3CE0E940000F0CE97FBAF
:10232000072E16F4009407D077FD09D00E94A9115A
:1023300007FC05D03EF4909581959F4F08957095C8
:1023400061957F4F0895EE0FFF1F0590F491E02DEA
:102350000994AA1BBB1B51E107C0AA1FBB1FA617EC
:10236000B70710F0A61BB70B881F991F5A95A9F73E
:1023700080959095BC01CD0108955058BB27AA27A0
:102380000E94D5110C944F130E94411338F00E9403
:10239000481320F039F49F3F19F426F40C943E13AF
:1023A0000EF4E095E7FB0C943813E92F0E946013BC
:1023B00058F3BA17620773078407950720F079F47A
:1023C000A6F50C9482130EF4E0950B2EBA2FA02DD7
:1023D0000B01B90190010C01CA01A0011124FF27D2
:1023E000591B99F0593F50F4503E68F11A16F040CD
:1023F000A22F232F342F4427585FF3CF46953795CC
:102400002795A795F0405395C9F77EF41F16BA0B90
:10241000620B730B840BBAF09150A1F0FF0FBB1F3E
:10242000661F771F881FC2F70EC0BA0F621F731F87
:10243000841F48F4879577956795B795F7959E3FE4
:1024400008F0B0CF9395880F08F09927EE0F979575
:10245000879508950E94141308F481E008950E945E
:1024600043120C944F130E94481358F00E944113DA
:1024700040F029F45F3F29F00C94381351110C946B
:1024800083130C943E130E94601368F39923B1F3F5
:10249000552391F3951B550BBB27AA27621773078A
:1024A000840738F09F5F5F4F220F331F441FAA1F1E
:1024B000A9F335D00E2E3AF0E0E832D091505040DA
:1024C000E695001CCAF72BD0FE2F29D0660F771F88
:1024D000881FBB1F261737074807AB07B0E809F06E
:1024E000BB0B802DBF01FF2793585F4F3AF09E3FF3
:1024F000510578F00C9438130C9483135F3FE4F388
:10250000983ED4F3869577956795B795F7959F5F35
:10251000C9F7880F911D9695879597F90895E1E081
:10252000660F771F881FBB1F621773078407BA07E0
:1025300020F0621B730B840BBA0BEE1F88F7E0953B
:1025400008950E94A8126894B1110C948313089501
:102550000E94681388F09F5798F0B92F9927B751B8
:10256000B0F0E1F0660F771F881F991F1AF0BA9537
:10257000C9F714C0B13091F00E948213B1E0089500
:102580000C948213672F782F8827B85F39F0B93FF2
:10259000CCF3869577956795B395D9F73EF49095EA
:1025A0008095709561957F4F8F4F9F4F0895E89468
:1025B00009C097FB3EF490958095709561957F4F8B
:1025C0008F4F9F4F9923A9F0F92F96E9BB27939539
:1025D000F695879577956795B795F111F8CFFAF449
:1025E000BB0F11F460FF1BC06F5F7F4F8F4F9F4F7A
:1025F00016C0882311F096E911C0772321F09EE8D8
:10260000872F762F05C0662371F096E8862F70E03D
:1026100060E02AF09A95660F771F881FDAF7880F17
:102620009695879597F90895990F0008550FAA0B6D
:10263000E0E8FEEF16161706E807F907C0F01216D5
:102640001306E407F50798F0621B730B840B950BD8
:1026500039F40A2661F0232B242B252B21F408952D
:102660000A2609F4A140A6958FEF811D811D0895CA
:1026700097F99F6780E870E060E008959FEF80EC35
:10268000089500240A9416161706180609060895D8
:1026900000240A9412161306140605060895092E3E
:1026A0000394000C11F4882352F0BB0F40F4BF2BAD
:1026B00011F460FF04C06F5F7F4F8F4F9F4F0895ED
:1026C00057FD9058440F551F59F05F3F71F04795E3
:1026D000880F97FB991F61F09F3F79F087950895C8
:1026E000121613061406551FF2CF4695F1DF08C0E7
:1026F000161617061806991FF1CF86957105610504
:1027000008940895E894BB2766277727CB0197F9AB
:1027100008950E94141308F48FEF08950E94A113E6
:102720000C944F130E94411338F00E94481320F07C
:10273000952311F00C9438130C943E1311240C942F
:1027400083130E94601370F3959FC1F3950F50E0BF
:10275000551F629FF001729FBB27F00DB11D639F53
:10276000AA27F00DB11DAA1F649F6627B00DA11DF9
:10277000661F829F2227B00DA11D621F739FB00D9F
:10278000A11D621F839FA00D611D221F749F33270F
:10279000A00D611D231F849F600D211D822F762FA8
:1027A0006A2F11249F5750409AF0F1F088234AF085
:1027B000EE0FFF1FBB1F661F771F881F91505040F1
:1027C000A9F79E3F510580F00C9438130C948313A5
:1027D0005F3FE4F3983ED4F3869577956795B79578
:1027E000F795E7959F5FC1F7FE2B880F911D969592
:1027F000879597F9089519F416F40C943E130C94E8
:1028000041140E946813B8F39923C9F3B6F39F5794
:10281000550B87FF0E944F140024A0E640EA900168
:1028200080585695979528F4805C660F771F881F0F
:1028300020F026173707480730F4621B730B840B10
:10284000202931294A2BA695179407942025312554
:102850004A2758F7660F771F881F20F0261737077B
:10286000480730F4620B730B840B200D311D411DA2
:10287000A09581F7B901842F9158880F9695879577
:1028800008959F3F31F0915020F487957795679593
:10289000B795880F911D9695879597F90895915052
:1028A0005040660F771F881FD2F7089581E090E0AF
:1028B000F8940C94B614052E97FB1EF400940E9415
:1028C000721457FD07D00E94851407FC03D04EF404
:1028D0000C94721450954095309521953F4F4F4F71
:1028E0005F4F089590958095709561957F4F8F4FBC
:1028F0009F4F08950E94A714A59F900DB49F900D1F
:10290000A49F800D911D11240895A1E21A2EAA1BE7
:10291000BB1BFD010DC0AA1FBB1FEE1FFF1FA2178F
:10292000B307E407F50720F0A21BB30BE40BF50B8C
:10293000661F771F881F991F1A9469F76095709515
:10294000809590959B01AC01BD01CF010895A29F98
:10295000B001B39FC001A39F700D811D1124911D73
:10296000B29F700D811D1124911D0895F894FFCF21
:10297000FFFFFFFF00E10000000000000100000079
:1029800004001300060015000500140007001200E3
:1029900000C18081000000000000003C0150055D86
:1029A00001DA03F803520100000000F804C4044CEB
:1029B0000495037F033D031C03E802C70271022D47
:1029C00002506175736521000D0A0073657475709E
:1029D000282920737461727465642E2E2E00436161
:1029E0006C6962726174696E672073656E736F7271
:1029F000732E2E2E0053656E736F72732063616C9D
:102A00006962726174656421007365747570282948
:102A10002066696E69736865642100526573756D1F
:102A2000696E6720696E2000526573756D652100BF
:00000001FF
