:100000000C9412010C943A010C943A010C943A01AC
:100010000C943A010C943A010C943A010C943A0174
:100020000C943A010C943A010C941A050C948C052A
:100030000C943A010C943A010C943A010C943A0154
:100040000C943A010C943A010C943A010C943A0144
:100050000C943A010C943A010C943A010C94630A02
:100060000C943A010C943A010C943A010C943A0124
:100070000C943A010C943A010C943A010C943A0114
:100080000C943A010C943A010C943A010C943A0104
:100090000C943A010C943A010C943A010C943A01F4
:1000A0000C943A010C943A010C943A018F0192019C
:1000B000810185018B01B301B301B30196019A015E
:1000C0009E01A401A801B301AE01CD0ED30ED90E3D
:1000D000E50EF10E460F460F460FFD0E090F150FE8
:1000E000210F2F0F460F380F06080C0812081808AA
:1000F0001E0824082A0865096C0973097A09810910
:100100009809880998098F09070605040100080A5B
:100110000B0C0D0900000000240027002A002D0010
:10012000300000000000250028002B002E003100C8
:10013000000000002300260029002C002F000404EA
:100140000404040304050202020204030202020280
:100150000606060606060404020202040404080257
:10016000011040804010204080408008020401803F
:1001700040201002011080102040402000000002AA
:1001800000090F0000030401000C00000000000043
:100190000000000000000000000000080B00020248
:1001A0000201000904000001020200000524001001
:1001B00001052401010104240206052406000107AB
:1001C00005810310004009040100020A0000000735
:1001D00005020240000007058302400000040309F5
:1001E0000441726475696E6F204C4C430041726427
:1001F00075696E6F204C656F6E6172646F001201DD
:10020000000200000040412336800001010203018A
:1002100012010002EF020140412336800001010279
:100220000301E51011241FBECFEFDAE0DEBFCDBF22
:1002300023E0A0ECB1E001C01D92A530B207E1F7C8
:1002400011E0A0E0B1E0ECEDF9E202C005900D9202
:10025000A03CB107D9F711E0C2E1D1E004C0219779
:10026000FE010E94D911C131D107C9F70E94A30D27
:100270000C94EC140C940000CF93DF931F92CDB735
:10028000DEB76983DC01ED91FC910280F381E02D02
:1002900041E050E0BE016F5F7F4F09950F90DF9105
:1002A000CF91089583E08093E9008091F200882344
:1002B00019F08AE38093E8000895FC018485958510
:1002C00097FD0BC09FB7F89482E08093E90080917E
:1002D000F2009FBF90E0019608959FB7F89482E0E6
:1002E0008093E9008091F2009FBF90E0089590E034
:1002F000FC013197EF30F105B0F5EA5AFF4F0C944D
:10030000D911809180008F7703C0809180008F7D0C
:1003100080938000089580918000877FF9CF84B515
:100320008F7702C084B58F7D84BD08958091900041
:100330008F7707C0809190008F7D03C080919000DF
:10034000877F8093900008958091C0008F7703C0CD
:100350008091C0008F7D8093C00008958091C2007D
:10036000877F8093C20008958F929F92AF92BF9231
:10037000CF92DF92EF92FF920F931F93CF93DF9371
:100380005C016B018A0180910B01882309F45EC036
:1003900080911A02882309F459C08091170280FFC6
:1003A00005C08091E00082608093E000E8018AEF60
:1003B000F82E93E0E92E2FE3822E3AE3932E209736
:1003C00009F43DC08FB7F894E092E9009091E800FD
:1003D00095FF06C09091F200282D291B922F01C095
:1003E00090E08FBF91110AC0FA94FF2079F161E08B
:1003F00070E080E090E00E94290AE1CF292F30E0F0
:10040000C217D3070CF49C2F8FB7F894E092E90041
:100410002091E80025FF11C0292F30E0C21BD30B2B
:10042000F601915020F041914093F100FACFC20EB5
:10043000D31E9091E80095FF13C08FBFC0CF5D9889
:1004400084E6809318021016110644F081E090E0D3
:10045000F5019383828380E090E005C0C80103C06A
:100460009092E800EACFDF91CF911F910F91FF901A
:10047000EF90DF90CF90BF90AF909F908F900895B6
:100480000F931F93CF93DF931F92CDB7DEB78C01ED
:10049000FC018485958597FF0EC0CE0101960E94D0
:1004A000F004019719F4298130E002C02FEF3FEFEB
:1004B000F80135872487F801848595850F90DF91B1
:1004C000CF911F910F910895CF93DF931F92CDB7D6
:1004D000DEB7FC018485958597FD05C02FEF3FEFC2
:1004E000358724870BC0CE0101960E94F004019746
:1004F00019F4898190E002C08FEF9FEF0F90DF9198
:10050000CF910895CF93DF93282F30E0F901E4587D
:10051000FE4F8491F901E35AFE4FD491F901E25C58
:10052000FE4FC491CC2391F081110E947701EC2FF2
:10053000F0E0EE0FFF1FE05DFE4FA591B491EC914E
:10054000ED2381E090E021F480E002C080E090E0C3
:10055000DF91CF9108951F93CF93DF93282F30E041
:10056000F901E458FE4F8491F901E35AFE4FD4910A
:10057000F901E25CFE4FC491CC23C9F0162F811122
:100580000E947701EC2FF0E0EE0FFF1FEE5DFE4FB3
:10059000A591B4918FB7F894111105C09C91ED2FDE
:1005A000E095E92302C0EC91ED2BEC938FBFDF9136
:1005B000CF911F910895CF93DF9390E0FC01E35A10
:1005C000FE4F2491FC01E25CFE4F8491882361F18F
:1005D00090E0880F991FFC01EC5EFE4FC591D4910D
:1005E000FC01EE5DFE4FA591B491611109C09FB76A
:1005F000F8948881209582238883EC912E230BC068
:10060000623061F49FB7F8943881822F80958323FC
:100610008883EC912E2B2C939FBF06C08FB7F89444
:10062000E8812E2B28838FBFDF91CF9108958231EF
:1006300008F08251E82FF0E0E85FFE4FE4918091EE
:100640007B00E3FB222720F930E095E0220F331FE7
:100650009A95E1F78F7D282B20937B00E770E0646B
:10066000E0937C0080917A00806480937A0080918E
:100670007A0086FDFCCF809178002091790090E08F
:10068000922B08958091F80281110DC082E0809331
:10069000F40284E08093F5021092F7021092F602C1
:1006A00081E08093F80284EF92E008950E948C1418
:1006B000CF92DF92EF92FF920F931F93CF93DF932E
:1006C0001F92CDB7DEB7182F062FE42E862F880F86
:1006D0008E5F99830E94680D83E00E94680DF12E61
:1006E000C12E9981D92E8C2D8F19801798F4F6017F
:1006F000E7FE02C0849101C080810E94680D182F1E
:1007000080E00E94680D8123FFEFCF1ADF0A81117C
:10071000EACF01C081E00F90DF91CF911F910F913F
:10072000FF90EF90DF90CF900895DF92EF92FF92CD
:100730000F931F93CF93DF93D82E8A017B01E40E92
:10074000F51EEB01CE15DF0571F0D7FE03C0FE01EB
:10075000849101C088810E94680D21968111F2CF99
:100760008FEF9FEF01C0C801DF91CF911F910F91D3
:10077000FF90EF90DF9008950F931F93CF93DF9337
:100780001F92CDB7DEB782E0898342E450E06BE987
:1007900071E080E80E9495030E944203DC011296FA
:1007A0000D911C9113970115110569F0D801ED9178
:1007B000FC910280F381E02DBE016F5F7F4FC80185
:1007C000099597FF07C089810F90DF91CF911F9105
:1007D0000F910895F80100851185E5CFBC010097C0
:1007E00091F0FC0101900020E9F73197AF01481B1F
:1007F000590BE0911B02F0911C020280F381E02D65
:100800008BE192E0099480E090E00895CF93DF932C
:100810000E94EE03EC0186EB91E00E94EE038C0F48
:100820009D1FDF91CF9108958F929F92AF92BF92BB
:10083000CF92DF92EF92FF921F93CF93DF93EC0161
:1008400020E03CE34CE156E46B897C898D899E89EC
:100850000E946012882309F45AC0CF88D88CE98C92
:10086000FA8C46015701B7FAB094B7F8B09420E07B
:100870003CE34CE156E4C501B4010E94BF131816D5
:100880005CF020E03CE34CE156E4C701B6010E9475
:10089000601287FD03C010C07501640120E030E0E4
:1008A000A901C701B6010E94601281110CC01BA2F0
:1008B0001CA21DA21EA227C0C12C8CE3D82E8CE145
:1008C000E82E86E4F82EA701960160E074E284E742
:1008D00099E40E9465129F770E94DE126BA37CA3AD
:1008E0008DA39EA35E0183E4A80EB11C11E020E05D
:1008F00030E0A901C701B6010E94BF1318160CF021
:1009000010E0F5011083CB8ADC8AED8AFE8ADF9144
:10091000CF911F91FF90EF90DF90CF90BF90AF905D
:100920009F908F900895CF92DF92EF92FF92CF9396
:10093000DF93EC0120E03CE34CE156E46F89788DD5
:10094000898D9A8D0E946012882309F442C080E04C
:100950009CE3ACE1B6E48F8B988FA98FBA8F8FE1BF
:1009600095E0A8ECB2E4FE01FF9680839183A28318
:10097000B3838BA99CA9ADA9BEA9181619061A069E
:100980001B063CF56B897C898D899E899B01AC0196
:100990000E94C4136B017C016B8D7C8D8D8D9E8DAF
:1009A0009B01AC010E94F4119B01AC01C701B6018F
:1009B0000E9465120E94D7126BAB7CAB8DAB9EABD5
:1009C000CE01DF91CF91FF90EF90DF90CF900C940C
:1009D0003D0BDF91CF91FF90EF90DF90CF90089586
:1009E000FC0180911A02811103C08FEF9FEF0895DF
:1009F0009FB7F89482E08093E9002091F20030E004
:100A00001216130614F421E030E02115310559F0D7
:100A1000289884E6809319028091F1008083809168
:100A2000F200882319F09FBFC90108958BE68093D7
:100A3000E800F9CF1F920F920FB60F9211248F93F7
:100A40009F938091E1009091E100937F9093E1006A
:100A500083FF0FC01092E90091E09093EB00109299
:100A6000EC0092E39093ED0010921A0298E09093BC
:100A7000F00082FF20C093E09093E9009091F20093
:100A8000992319F09AE39093E80090911802992322
:100A900039F090911802915090931802992389F19E
:100AA00090911902992339F09091190291509093E5
:100AB0001902992341F184FF10C08091E2008E7EDB
:100AC00081608093E2008091E1008F7E8093E1005D
:100AD000809117028E7E806111C080FF16C08091C8
:100AE000E2008E7E80618093E2008091E1008E7E44
:100AF0008093E100809117028E7E816080931702BF
:100B000004C05D9ACDCF289AD6CF9F918F910F9038
:100B10000FBE0F901F9018951F920F920FB60F9255
:100B20001124CF92DF92EF92FF920F931F932F9396
:100B30003F934F935F936F937F938F939F93AF9365
:100B4000BF93EF93FF93CF93DF93CDB7DEB76C974F
:100B5000DEBFCDBF1092E9008091E80083FFFAC1AB
:100B600068E0CE0145960E94960D82EF8093E800E2
:100B70008D8987FF05C09091E80090FFFCCF03C0EE
:100B80009EEF9093E800982F907609F0C6C09E895A
:100B90002F89188D91110CC0803829F4809116028C
:100BA0008093F10002C01092F1001092F10047C151
:100BB000422F50E0512B913051F4811140C141300E
:100BC000510509F03CC1809116028D7F0BC0933016
:100BD00061F4811134C14130510509F030C1809177
:100BE00016028260809316022AC1953041F48091EA
:100BF000E80080FFFCCF20682093E30020C19630FE
:100C000009F05FC0EB8CFC8C1092E900109214028A
:100C100010921302123091F51092120210921102EA
:100C20000E94BC0399E0BE016F5F7F4FDB01E92F9B
:100C30001D92EA95E9F799831A8391E09E8390EAE1
:100C400098879AEF99872091130230911402275FB9
:100C50003F4F3C832B838D831092E9001092140246
:100C600010921302F0921202E092110249E050E059
:100C700080E00E9495030E94BC03E1C0F092120242
:100C8000E09211020E944203DC011296ED90FC906A
:100C90001397E114F10409F4C0C0D701ED91FC9160
:100CA0000480F581E02DBE016B5E7F4FC701099581
:100CB000009719F00CF0C3C0C6C0F701E084F184BE
:100CC000E8CF973009F4BFC0983021F481E08093D9
:100CD000F100B5C0993009F0B2C0837009F0B3C01B
:100CE000E1E1F1E081E021E036E39081992361F0D8
:100CF0008093E9002093EB0091919093EC00309366
:100D0000ED008F5F873089F78EE78093EA001092BD
:100D1000EA008F8980931A0292C08B8D9C8D10926D
:100D2000E900109214021092130290931202809321
:100D30001102898D811156C08E899D89913A59F48D
:100D4000813209F080C047E050E064E071E080E06B
:100D50000E94950374C0913209F075C0833289F402
:100D6000888D90E0982F88272F89822BA0E0B0E013
:100D70008093000190930101A0930201B0930301BD
:100D80005EC0803269F48091E80082FFFCCF67E0AA
:100D900084E091E00E94960D8BEF8093E80006C0FE
:100DA000823209F04CC08F8980930B01809115022B
:100DB000882319F0EEEFFAE002C0E0E0F8E080915D
:100DC000040190910501A0910601B0910701803BBB
:100DD0009440A105B10509F088C080910B0180FF06
:100DE000A0C083C00E944203DC0112960D911C91A9
:100DF00013970115110539F1D801ED91FC9101907E
:100E0000F081E02DBE016B5E7F4FC8010995811115
:100E100016C0F80100851185ECCF1130C1F01330F8
:100E200091F48F89882309F455C08230E9F440E8B1
:100E300060E18DEE91E00E945803882321F08EEF4F
:100E40008093E80087C081E28093EB0083C08B8DA4
:100E50009C8D089711F41093F3028091F302811195
:100E600036C06EEF71E038C0813029F440E86BE0A5
:100E700081EE91E0E0CF833031F70E944203DC0144
:100E80001296ED90FC9013978E010F5F1F4F680133
:100E9000E114F10479F0D701ED91FC910680F7811E
:100EA000E02DB801C7010995080F111DF701E08475
:100EB000F184EECFD8011C92F60101900020E9F7F1
:100EC0003197BF016C197D0940E0C601B4CF60E1E4
:100ED00072E002C06DED71E06115710509F4B3CFE8
:100EE000FB01449150E080E833CF0FB6F894A89509
:100EF00080916000886180936000109260000FBE56
:100F0000A895EE3F2AE0F20739F08091FE0A909111
:100F1000FF0A9183808393CF1092FF0A1092FE0AFA
:100F20008ECFEE3F8AE0F80731F080819181909377
:100F3000FF0A8093FE0A87E797E7918380839BE00F
:100F400088E10FB6F894A895809360000FBE909347
:100F5000600075CF6C960FB6F894DEBF0FBECDBFA4
:100F6000DF91CF91FF91EF91BF91AF919F918F91C1
:100F70007F916F915F914F913F912F911F910F91B1
:100F8000FF90EF90DF90CF900F900FBE0F901F90CB
:100F900018953FB7F8948091010390910203A091B6
:100FA0000303B091040326B5A89B05C02F3F19F099
:100FB0000196A11DB11D3FBFBA2FA92F982F8827D9
:100FC000820F911DA11DB11DBC01CD0142E0660F34
:100FD000771F881F991F4A95D1F70895CF93DF9304
:100FE0004770552766277727FA013197EC01A881CA
:100FF000B981E730F10520F4EC58FF4F0C94D9117A
:101000001496ED91FC91159761E029C01496ED912D
:10101000FC91159765E023C01496ED91FC9115970E
:1010200064E01DC01496ED91FC91159766E017C021
:101030001496ED91FC91159762E011C01496ED9114
:10104000FC9115976AE00BC01496ED91FC911597F1
:1010500068E005C01496ED91FC91159769E0DF9169
:10106000CF910994CF93DF93EC01CB01BA0126E035
:1010700030E040E050E00E9491146230710581053B
:10108000910559F18CF46115710581059105F1F017
:101090006130710581059105C1F5E881F981048010
:1010A000F581E02D65E02DC0643071058105910565
:1010B00011F1D4F0653071058105910531F5E881B4
:1010C000F9810480F581E02D66E01BC0E881F9819B
:1010D0000480F581E02D64E014C0E881F98104808A
:1010E000F581E02D61E00DC0E881F9810480F58192
:1010F000E02D63E006C0E881F9810480F581E02DF0
:1011000062E0CE01DF91CF910994DF91CF910895F4
:101110004370552766277727DC01ED91FC91048009
:10112000F581E02D423051056105710571F04330C4
:1011300051056105710559F0413051056105710591
:1011400011F065E005C066E003C06AE001C069E037
:101150000994CF93DF93EC01CB01BA0123E030E097
:1011600040E050E00E9491146130710581059105C5
:1011700081F0623071058105910591F0672B682B34
:10118000692BC1F4E881F9810480F581E02D64E0E8
:101190000DC0E881F9810480F581E02D61E006C091
:1011A000E881F9810480F581E02D62E0CE01DF91D4
:1011B000CF910994DF91CF91089543705527662709
:1011C0007727DC01ED91FC910480F581E02D423020
:1011D00051056105710571F04330510561057105D7
:1011E00059F0413051056105710511F062E005C00B
:1011F00063E003C061E001C060E009940F931F93B6
:10120000CF93DF93EC01E881F9810480F581E02D33
:101210008C010D5B1F4FD8018C91811102C060E0E1
:1012200001C062E0CE010995E881F9810480F58171
:10123000E02DD8018C91811102C061E001C063E012
:10124000CE010995EBA5FCA5E230F10538F0EE0FD3
:10125000FF1FEE0FFF1F35973197F1F7E881F981F6
:101260000480F581E02DD8018C91811102C060E0ED
:1012700001C062E0CE01DF91CF911F910F910994DF
:10128000CF93DF93EC0120E030E0A9016B897C89EA
:101290008D899E890E94BF1318161CF4EFA5F8A92A
:1012A00002C0E9A9FAA9DF91CF9109940F931F9386
:1012B000DC011296EC910E2F10E009301105C0F5FB
:1012C000F801E558FF4F0C94D911DC01ED91FC9128
:1012D0000084F185E02D29C0DC01ED91FC910284B0
:1012E000F385E02D22C0DC01ED91FC910484F585AD
:1012F000E02D1BC0DC01ED91FC910684F785E02D0B
:1013000014C0DC01ED91FC910088F189E02D0DC045
:10131000DC01ED91FC910288F389E02D06C0DC012F
:10132000ED91FC910488F589E02D1F910F910994AE
:101330001F910F910895CF92DF92EF92FF920F933A
:101340001F93CF93DF93FC012281243041F028309A
:1013500031F0233031F0263021F012E003C014E0E8
:1013600001C013E0EC012796E12CF12CC62ED12C04
:1013700001E0C6010E2C02C0959587950A94E2F70C
:10138000688180FD6027FE01349780810E94AB0256
:10139000FFEFEF1AFF0A2196E11658F3DF91CF9184
:1013A0001F910F91FF90EF90DF90CF900895CF9312
:1013B000DF93FC012281222359F1EC0161E083815A
:1013C0000E94DB0261E08C810E94DB028A81843012
:1013D00011F0883039F461E08D810E94DB0261E018
:1013E0008E8106C0833011F0863021F461E08D815A
:1013F0000E94DB028EA58F3F59F061E00E94DB0264
:101400006DA581E068278EA5DF91CF910C94AB028A
:10141000DF91CF910895CF93DF93FC0122812223A6
:10142000A9F0EC010190F081E02D0480F581E02D20
:1014300060E009958EA58F3F49F061E00E94DB02D4
:101440006DA58EA5DF91CF910C94AB02DF91CF916A
:1014500008958F929F92AF92BF92CF92DF92EF92B8
:10146000FF926B017C010E94C9074B015C01C11412
:10147000D104E104F104F1F00E94C907DC01CB01C1
:1014800088199909AA09BB09883E9340A105B105AD
:1014900070F321E0C21AD108E108F10888EE880E45
:1014A00083E0981EA11CB11CC114D104E104F10415
:1014B00019F7DDCFFF90EF90DF90CF90BF90AF9006
:1014C0009F908F9008951F920F920FB60F92112444
:1014D0002F933F938F939F93AF93BF938091C001BE
:1014E0009091C101A091C201B091C301309100035C
:1014F00023E0230F2D3720F40196A11DB11D05C057
:1015000026E8230F0296A11DB11D209300038093AE
:10151000C0019093C101A093C201B093C301809117
:10152000010390910203A0910303B091040301967B
:10153000A11DB11D8093010390930203A0930303A7
:10154000B0930403BF91AF919F918F913F912F91E1
:101550000F900FBE0F901F9018958F929F92AF9291
:10156000BF92CF92DF92FF920F931F93CF93DF939F
:10157000C1E4D1E084ECC82E81E0D82E9FE0A92EF2
:10158000B12CF88060E08F2D0E94AB021A81812F70
:101590000E9417034C0161E08F2D0E94AB02C50130
:1015A0000197F1F7812F0E9417038C0160E08F2DC6
:1015B0000E94AB0208191909F601019311936F01FA
:1015C0002496F1E0C135DF07E1F6DF91CF911F915D
:1015D0000F91FF90DF90CF90BF90AF909F908F9032
:1015E0000895CF92DF92EF92FF92CF93DF93EC01B9
:1015F0000E94C9076B017C018FA198A5A9A5BAA576
:10160000B701A601481B590B6A0B7B0B8BA19CA150
:10161000ADA1BEA1481759076A077B0730F1FE014B
:10162000ED5BFF4F20818B859C85AD85BE85222398
:1016300021F00196A11DB11D03C00197A109B109B7
:101640008B879C87AD87BE87E881F9814B855C8558
:101650006D857E850680F781E02DCE010995CFA2AC
:10166000D8A6E9A6FAA681E001C080E0DF91CF917B
:10167000FF90EF90DF90CF9008952F923F924F927E
:101680005F926F927F928F929F92AF92BF92CF9212
:10169000DF92EF92FF920F931F93CF93DF9300D0CF
:1016A00000D0CDB7DEB71C01FC0187849088A188EB
:1016B000B28883859485A585B685881A990AAA0A71
:1016C000BB0A63897489858996899B01AC010E9454
:1016D000C4136B017C01F101638D748D858D968D32
:1016E0009B01AC010E94F4119B01AC01C701B60142
:1016F0000E9465120E94D71281149104A104B104C2
:10170000A1F462307105810591050CF07CC0F101F6
:1017100013A214A215A216A2138A148A158A168A75
:1017200013AA14AA15AA16AA03C1F10103A914A9A0
:1017300025A936A9ED5BFF4F181419041A041B04E0
:10174000FCF410161106120613064CF46815790500
:101750008A059B054CF52081211155C025C0011536
:1017600011052105310509F44EC0681579058A0572
:101770009B050CF048C08081882309F444C037C021
:101780001016110612061306F4F40027112798010B
:10179000081919092A093B0960177107820793077D
:1017A0001CF42081222379F19B01AC018827992721
:1017B000DC01821B930BA40BB50BF10183AB94AB43
:1017C000A5ABB6AB20C00115110521053105D9F037
:1017D000CC24DD247601C818D908EA08FB086C156A
:1017E0007D058E059F057CF4808181110CC03095AC
:1017F0002095109501951F4F2F4F3F4FF10103ABDF
:1018000014AB25AB36ABF101C3A8D4A8E5A8F6A864
:1018100081010D5B1F4FC114D104E104F10491F467
:1018200087A990ADA1ADB2AD83AF94AFA5AFB6AF70
:1018300081E0181419041A041B040CF080E0F8016C
:10184000808340C0F10183AC94ACA5ACB6ACA501DB
:101850009401C501B4010E94F4112B013C01C701A0
:10186000B6010E940F1320E030E040E850E40E94EF
:10187000C41320E030E040E85FE30E94F4119B01D4
:10188000AC01C301B2010E9465129B01AC01C5010C
:10189000B4010E94F3114B015C01F101FF964080FD
:1018A0005180628073809201A3010E94BF131816B9
:1018B00014F042015301A401B501F10143AF54AF4B
:1018C00065AF76AFFFEFCF1ADF0AEF0AFF0AF1012B
:1018D000C3AAD4AAE5AAF6AA23AD34AD45AD56AD48
:1018E000CA01B90129833A834B835C830E94DE12CB
:1018F000F10163A374A385A396A329813A814B8147
:101900005C8160E074E284E799E40E946512F10171
:10191000638B748B858B968BF8012081211108C015
:10192000DC01CB01B058F101838B948BA58BB68B76
:101930000F900F900F900F90DF91CF911F910F910B
:10194000FF90EF90DF90CF90BF90AF909F908F90DF
:101950007F906F905F904F903F902F9008954F929F
:101960005F926F927F928F929F92AF92BF92CF922F
:10197000DF92EF92FF92CF93DF93EC016A017B013C
:101980008B8C9C8CAD8CBE8C9A01AB01C501B401D3
:101990000E946012882309F449C06BA97CA98DA913
:1019A0009EA90E940F132B013C01A7019601C501BE
:1019B000B4010E9465129B01AC01C301B2010E94F7
:1019C000C4130E94D7126BAB7CAB8DAB9EABA7014F
:1019D000960160E070E080E090E40E9465120E9451
:1019E000371426E53EE04DE25FE30E94C41320E099
:1019F00034E244E759E40E94C4136FAB78AF89AF77
:101A00009AAFCB8EDC8EED8EFE8ECE01DF91CF9124
:101A1000FF90EF90DF90CF90BF90AF909F908F900E
:101A20007F906F905F904F900C943D0BDF91CF9122
:101A3000FF90EF90DF90CF90BF90AF909F908F90EE
:101A40007F906F905F904F90089582E00E94820295
:101A5000892B39F483E00E948202892B11F480E003
:101A600008958091CC01811104C089EB91E00E941E
:101A7000060481E08093CC010895CF92DF92EF922B
:101A8000FF920F931F93CF93DF936C017A018B0129
:101A9000C0E0D0E0CE15DF0589F0D8016D918D0151
:101AA000D601ED91FC910190F081E02DC6010995E0
:101AB000892B11F47E0102C02196ECCFC701DF9182
:101AC000CF911F910F91FF90EF90DF90CF900895ED
:101AD0004091130250911402209111023091120290
:101AE00042175307B4F49091E8009570E1F3909198
:101AF000E80092FD19C08093F1008091130290914B
:101B0000140201968F739927892B19F48EEF809315
:101B1000E8008091130290911402019690931402B0
:101B20008093130281E0089580E00895615030F0C1
:101B30002091F100FC0120830196F8CF289884E6DB
:101B4000809319020895CF93DF93CDB7DEB7A597A1
:101B50000FB6F894DEBF0FBECDBF789484B5826017
:101B600084BD84B5816084BD85B5826085BD85B541
:101B7000816085BD80916E00816080936E001092BF
:101B8000810080918100826080938100809181003A
:101B900081608093810080918000816080938000CB
:101BA000809191008260809391008091910081608A
:101BB000809391008091900081608093900080914B
:101BC000C10084608093C1008091C10082608093D5
:101BD000C1008091C10081608093C1008091C300E9
:101BE00081608093C3008091C00082608093C000B8
:101BF0008091C20081608093C20080917A008460ED
:101C000080937A0080917A00826080937A0080913C
:101C10007A00816080937A0080917A008068809356
:101C20007A0010921A0210921602109217028091F6
:101C3000D70081608093D70080EA8093D80089B56F
:101C4000806189BD89B5826089BD09B400FEFDCF80
:101C500061E070E080E090E00E94290A8091D80065
:101C60008F7C80618093D8008091E000807F80939A
:101C7000E0008091E1008E7E8093E1008DE0809312
:101C8000E200559A209AEEEFFFE7859194918B3F01
:101C90009C4D19F481E0809315028FEF9FEF909394
:101CA00028028093270264E670E080E090E00E94C2
:101CB000290A81E591E00E94060460E082E00E942A
:101CC000DB0260E083E00E94DB0261E08DE00E94C5
:101CD000DB021092B60281E08093B7028093DC02AF
:101CE0008FEA92E00E9493048FEA92E00E9414042B
:101CF0004DEC5CEC6CEC7DE38FEA92E00E94AF0C63
:101D00008BE692E00E9493048BE692E00E9414041A
:101D10004DEC5CEC6CEC7DE38BE692E00E94AF0C4A
:101D200061E084E00E94DB0261E085E00E94DB026A
:101D300061E086E00E94DB0261E087E00E94DB0256
:101D400060E084E00E94AB0260E085E00E94AB02AC
:101D500060E086E00E94AB0260E087E00E94AB0298
:101D60006AE070E080E090E00E94290A84E691E059
:101D70000E94060461E08DE00E94DB02E9E8F1E0E8
:101D8000E4918E2F90E0FC013197EF30F10508F0DF
:101D90007DC0EB59FF4F0C94D91184B5806884BD88
:101DA00084E687BD77C084B5806284BD84E688BD43
:101DB00071C08091800080688093800084E690E00C
:101DC000909389008093880065C080918000806234
:101DD0008093800084E690E090938B0080938A004B
:101DE00059C08091800088608093800084E690E0F4
:101DF00090938D0080938C004DC0809190008068FE
:101E00008093900084E690E09093990080939800EE
:101E100041C08091900080628093900084E690E0C1
:101E200090939B0080939A0035C0809190008860C9
:101E30008093900084E690E090939D0080939C00B6
:101E400029C08091C00080688093C0008091C0004C
:101E50008F7B8093C00084E68093CF001BC080916D
:101E6000C00080628093C00084E68093D00012C0DE
:101E70008091C20088608093C2008091C2008B7FF5
:101E80008093C20084E68093D20004C060E08DE0BD
:101E90000E94AB028FB7F894C090C001D090C101EE
:101EA000E090C201F090C3018FBF8FEF93E0909359
:101EB000FE018093FD011092F6011092F5019093BE
:101EC00000028093FF011092F8011092F7019093A5
:101ED0000202809301021092FA011092F90190938C
:101EE0000402809303021092FC011092FB012FB7B1
:101EF000F8948091C0019091C101A091C201B0916C
:101F0000C3012FBF8C199D09AE09BF09883B9B40B7
:101F1000A105B10550F50E94AD0A44EC51E0EDEF8A
:101F2000F1E065EF71E0DA018D919D91AD012081C5
:101F30003181821793070CF49C0121933193DB01CB
:101F40002D913C91281739070CF49C01DB012D934E
:101F50003D93BD01B2E0E530FB0729F76AE070E090
:101F600080E090E00E94290AC2CF61E08DE00E94EB
:101F7000DB0260E08DE00E94AB028BE791E00E9403
:101F8000060468EE73E080E090E00E94290A8FE882
:101F900091E00E9406040E94AD0A20910702309150
:101FA0000802C90165E070E00E94C5114091050278
:101FB000509106024530510534F44F5F5F4F509306
:101FC0000602409305022F5F3F4F2530310529F06F
:101FD000309308022093070204C010920802109266
:101FE0000702809005029090060259E0E52E52E02B
:101FF000F52E6DEFA62E61E0B62E24EC31E03BA36A
:102000002AA375EFC72E71E0D72E1C01220C331CBA
:1020100000E010E0D7011D921C92EAA1FBA12191E2
:102020003191FBA3EAA3D5018D919C9129018217DF
:1020300093070CF42C01F50151824082D601ED91F9
:10204000FC91E217F3070CF4F901D601ED93FC9330
:10205000052C000C66087708C801820D931DAC01A1
:1020600043535E4F5DA34CA3C901330FAA0BBB0BB7
:102070009C01AD012419350946095709AFEFB0E0BD
:102080000E94B0149F01FF0F440B550B2419350912
:10209000460957090E949114ACA1BDA12D933C9310
:1020A0002F3F310519F014F02FEF30E037FF02C059
:1020B00020E030E0ECA1FDA13183208320E030E07E
:1020C000F70180819181281539058CF4F901EE0F13
:1020D000FF1FE00FF11FE353FE4F40815181840F3A
:1020E000951FD7018D939C932F5F3F4FE9CFB4018C
:1020F0000E94C511D7016D937D937D01B2E0AB0EB7
:10210000B11CE2E0CE0ED11C065F1F4F0832110554
:1021100009F080CF0E94250D81114FC08091CC0124
:102120008823F9F01092CC0181EA91E00E94EE033D
:1021300019A2F3E3F8A3CE0180960E94EE0386E78E
:1021400091E00E94060468EB7BE080E090E00E9452
:10215000290A0E94250D811104C08EEA91E00E9497
:10216000060480910F0290911002C39734F580917C
:10217000090290910A02C39704F58091D2029091CE
:10218000D302A091D402B091D502892B8A2B8B2B3C
:1021900021F08FEA92E00E94F10A80918E029091E4
:1021A0008F02A0919002B0919102892B8A2B8B2BE8
:1021B00021F08BE692E00E94F10A20E030E0232B30
:1021C00009F4E9CE0E940000E6CE8F929F92AF9272
:1021D000BF92CF92DF92EF92FF920F931F93CF9314
:1021E000DF93EBE1F2E01382128288EE93E0A0E04D
:1021F000B0E084839583A683B7838BE191E09183DC
:1022000080838FEF9FEF95878487EFEAF2E00BE200
:1022100011E01183008388248394828213861486BC
:10222000158616861786108A118A128A138A148ACE
:10223000158A168AC12CD12C80E8E82E8FE3F82E5F
:10224000C78AD08EE18EF28E138E148E158E168E66
:10225000C78ED0A2E1A2F2A213A214A215A216A2C6
:10226000C1E0D0E0D4A7C3A799249A9496A617A258
:1022700010A611A612A689E0838388E0848394E0E7
:10228000A92EA58225E0B22EB68213AA14AA15AAF9
:1022900016AA17AA10AE11AE12AE13AE14AE15AE3A
:1022A00016AEC092EE02D092EF02E092F002F092EF
:1022B000F1021092F2021782108611861286CF0167
:1022C0000E94D709B701A6018FEA92E00E94AF0CE5
:1022D000EBE6F2E011830083828213861486158672
:1022E00016861786108A118A128A138A148A158A0A
:1022F000168AC78AD08EE18EF28E138E148E158EBA
:10230000168EC78ED0A2E1A2F2A213A214A215A229
:1023100016A2D4A7C3A796A617A210A611A612A606
:102320008BE083838AE08483A582B68213AA14AAF1
:1023300015AA16AA17AA10AE11AE12AE13AE14AE9D
:1023400015AE16AEC092AA02D092AB02E092AC02D9
:10235000F092AD021092AE0217821086118612869C
:10236000CF010E94D709B701A6018BE692E0DF9169
:10237000CF911F910F91FF90EF90DF90CF90BF9082
:10238000AF909F908F900C94AF0C97FB072E16F494
:10239000009407D077FD09D00E94DF1107FC05D01B
:1023A0003EF4909581959F4F0895709561957F4F6C
:1023B0000895EE0FFF1F0590F491E02D0994AA1BDC
:1023C000BB1B51E107C0AA1FBB1FA617B70710F020
:1023D000A61BB70B881F991F5A95A9F78095909552
:1023E000BC01CD0108955058BB27AA270E940B12AB
:1023F0000C9485130E94771338F00E947E1320F00E
:1024000039F49F3F19F426F40C9474130EF4E095FC
:10241000E7FB0C946E13E92F0E94961358F3BA173A
:10242000620773078407950720F079F4A6F50C94EA
:10243000B8130EF4E0950B2EBA2FA02D0B01B901A5
:1024400090010C01CA01A0011124FF27591B99F02A
:10245000593F50F4503E68F11A16F040A22F232F36
:10246000342F4427585FF3CF469537952795A79586
:10247000F0405395C9F77EF41F16BA0B620B730B2D
:10248000840BBAF09150A1F0FF0FBB1F661F771F9E
:10249000881FC2F70EC0BA0F621F731F841F48F453
:1024A000879577956795B795F7959E3F08F0B0CFDC
:1024B0009395880F08F09927EE0F979587950895C3
:1024C0000E944A1308F481E008950E9479120C9446
:1024D00085130E947E1358F00E94771340F029F470
:1024E0005F3F29F00C946E1351110C94B9130C94A6
:1024F00074130E94961368F39923B1F3552391F353
:10250000951B550BBB27AA2762177307840738F062
:102510009F5F5F4F220F331F441FAA1FA9F335D0BF
:102520000E2E3AF0E0E832D091505040E695001C73
:10253000CAF72BD0FE2F29D0660F771F881FBB1F2D
:10254000261737074807AB07B0E809F0BB0B802D0B
:10255000BF01FF2793585F4F3AF09E3F510578F037
:102560000C946E130C94B9135F3FE4F3983ED4F3CC
:10257000869577956795B795F7959F5FC9F7880F0B
:10258000911D9695879597F90895E1E0660F771F5D
:10259000881FBB1F621773078407BA0720F0621BEE
:1025A000730B840BBA0BEE1F88F7E09508950E9419
:1025B000DE126894B1110C94B91308950E949E1311
:1025C00088F09F5798F0B92F9927B751B0F0E1F0F4
:1025D000660F771F881F991F1AF0BA95C9F714C0A4
:1025E000B13091F00E94B813B1E008950C94B81383
:1025F000672F782F8827B85F39F0B93FCCF38695DD
:1026000077956795B395D9F73EF490958095709539
:1026100061957F4F8F4F9F4F0895E89409C097FBB6
:102620003EF490958095709561957F4F8F4F9F4FA9
:102630009923A9F0F92F96E9BB279395F6958795ED
:1026400077956795B795F111F8CFFAF4BB0F11F4B0
:1026500060FF1BC06F5F7F4F8F4F9F4F16C0882357
:1026600011F096E911C0772321F09EE8872F762F8D
:1026700005C0662371F096E8862F70E060E02AF0CE
:102680009A95660F771F881FDAF7880F96958795BA
:1026900097F90895990F0008550FAA0BE0E8FEEF8F
:1026A00016161706E807F907C0F012161306E40716
:1026B000F50798F0621B730B840B950B39F40A260F
:1026C00061F0232B242B252B21F408950A2609F4ED
:1026D000A140A6958FEF811D811D089597F99F67F1
:1026E00080E870E060E008959FEF80EC089500249A
:1026F0000A941616170618060906089500240A9467
:1027000012161306140605060895092E0394000CEC
:1027100011F4882352F0BB0F40F4BF2B11F460FF7B
:1027200004C06F5F7F4F8F4F9F4F089557FD9058A4
:10273000440F551F59F05F3F71F04795880F97FB85
:10274000991F61F09F3F79F087950895121613063F
:102750001406551FF2CF4695F1DF08C0161617066E
:102760001806991FF1CF86957105610508940895A3
:10277000E894BB2766277727CB0197F908950E9435
:102780004A1308F48FEF08950E94D7130C94851311
:102790000E94771338F00E947E1320F0952311F0E9
:1027A0000C946E130C94741311240C94B9130E949E
:1027B000961370F3959FC1F3950F50E0551F629FDC
:1027C000F001729FBB27F00DB11D639FAA27F00D8A
:1027D000B11DAA1F649F6627B00DA11D661F829FB1
:1027E0002227B00DA11D621F739FB00DA11D621F96
:1027F000839FA00D611D221F749F3327A00D611DB3
:10280000231F849F600D211D822F762F6A2F112494
:102810009F5750409AF0F1F088234AF0EE0FFF1FC7
:10282000BB1F661F771F881F91505040A9F79E3F1E
:10283000510580F00C946E130C94B9135F3FE4F3D0
:10284000983ED4F3869577956795B795F795E79574
:102850009F5FC1F7FE2B880F911D9695879597F97D
:10286000089519F416F40C9474130C9477140E94C0
:102870009E13B8F39923C9F3B6F39F57550B87FFFF
:102880000E9485140024A0E640EA900180585695E5
:10289000979528F4805C660F771F881F20F0261715
:1028A0003707480730F4621B730B840B202931294A
:1028B0004A2BA69517940794202531254A2758F7C7
:1028C000660F771F881F20F026173707480730F458
:1028D000620B730B840B200D311D411DA09581F7F8
:1028E000B901842F9158880F9695879508959F3F39
:1028F00031F0915020F4879577956795B795880FBB
:10290000911D9695879597F9089591505040660FBF
:10291000771F881FD2F7089581E090E0F8940C9417
:10292000EC14052E97FB1EF400940E94A81457FD8A
:1029300007D00E94BB1407FC03D04EF40C94A814DB
:1029400050954095309521953F4F4F4F5F4F0895DB
:1029500090958095709561957F4F8F4F9F4F08950B
:102960000E94DD14A59F900DB49F900DA49F800D33
:10297000911D11240895A1E21A2EAA1BBB1BFD0173
:102980000DC0AA1FBB1FEE1FFF1FA217B307E4074E
:10299000F50720F0A21BB30BE40BF50B661F771FA6
:1029A000881F991F1A9469F7609570958095909586
:1029B0009B01AC01BD01CF010895A29FB001B39F5F
:1029C000C001A39F700D811D1124911DB29F700D38
:0C29D000811D1124911D0895F894FFCF83
:1029DC00FFFFFFFF00E1000000000000010000000D
:1029EC0000C18081000000000000003C01B4015DCA
:1029FC0001640240025201000000000B0AD7099B3F
:102A0C000956094009FE08DD08A90888083208EEB5
:102A1C00070400130006001500050014000700123F
:102A2C000073657475702829207374617274656401
:102A3C002E2E2E0043616C6962726174696E672080
:102A4C0073656E736F72732E2E2E0053656E736FDB
:102A5C0072732063616C69627261746564210073C6
:102A6C006574757028292066696E697368656421C0
:102A7C0000526573756D696E6720696E2000526532
:102A8C0073756D6521000D0A005061757365210029
:00000001FF
